{
  "_format": "hh-sol-artifact-1",
  "contractName": "DecentralizedLibrary",
  "sourceName": "contracts/DecentralizedLibrary.sol",
  "abi": [
    {
      "inputs": [],
      "stateMutability": "nonpayable",
      "type": "constructor"
    },
    {
      "anonymous": false,
      "inputs": [
        {
          "indexed": false,
          "internalType": "string",
          "name": "ipfsCID",
          "type": "string"
        },
        {
          "indexed": false,
          "internalType": "string",
          "name": "fileName",
          "type": "string"
        },
        {
          "indexed": false,
          "internalType": "uint256",
          "name": "timeUploaded",
          "type": "uint256"
        },
        {
          "indexed": false,
          "internalType": "address",
          "name": "fileOwner",
          "type": "address"
        }
      ],
      "name": "FileUploaded",
      "type": "event"
    },
    {
      "inputs": [
        {
          "internalType": "string",
          "name": "",
          "type": "string"
        }
      ],
      "name": "collection",
      "outputs": [
        {
          "internalType": "string",
          "name": "ipfsCID",
          "type": "string"
        },
        {
          "internalType": "string",
          "name": "fileName",
          "type": "string"
        },
        {
          "internalType": "uint256",
          "name": "timeUploaded",
          "type": "uint256"
        },
        {
          "internalType": "address",
          "name": "fileOwner",
          "type": "address"
        }
      ],
      "stateMutability": "view",
      "type": "function"
    },
    {
      "inputs": [
        {
          "internalType": "string",
          "name": "",
          "type": "string"
        }
      ],
      "name": "fileExists",
      "outputs": [
        {
          "internalType": "bool",
          "name": "",
          "type": "bool"
        }
      ],
      "stateMutability": "view",
      "type": "function"
    },
    {
      "inputs": [
        {
          "internalType": "string",
          "name": "_ipfsCID",
          "type": "string"
        },
        {
          "internalType": "string",
          "name": "_fileName",
          "type": "string"
        },
        {
          "internalType": "uint256",
          "name": "_uploadType",
          "type": "uint256"
        }
      ],
      "name": "fileUpload",
      "outputs": [],
      "stateMutability": "nonpayable",
      "type": "function"
    },
    {
      "inputs": [],
      "name": "getAllPrivateUploads",
      "outputs": [
        {
          "internalType": "string[]",
          "name": "",
          "type": "string[]"
        },
        {
          "internalType": "string[]",
          "name": "",
          "type": "string[]"
        },
        {
          "internalType": "uint256[]",
          "name": "",
          "type": "uint256[]"
        },
        {
          "internalType": "address[]",
          "name": "",
          "type": "address[]"
        }
      ],
      "stateMutability": "view",
      "type": "function"
    },
    {
      "inputs": [],
      "name": "getAllPublicUploads",
      "outputs": [
        {
          "internalType": "string[]",
          "name": "",
          "type": "string[]"
        },
        {
          "internalType": "string[]",
          "name": "",
          "type": "string[]"
        },
        {
          "internalType": "uint256[]",
          "name": "",
          "type": "uint256[]"
        },
        {
          "internalType": "address[]",
          "name": "",
          "type": "address[]"
        }
      ],
      "stateMutability": "view",
      "type": "function"
    },
    {
      "inputs": [],
      "name": "getLatestPrivateUpload",
      "outputs": [
        {
          "internalType": "string",
          "name": "",
          "type": "string"
        },
        {
          "internalType": "string",
          "name": "",
          "type": "string"
        },
        {
          "internalType": "uint256",
          "name": "",
          "type": "uint256"
        },
        {
          "internalType": "address",
          "name": "",
          "type": "address"
        }
      ],
      "stateMutability": "view",
      "type": "function"
    },
    {
      "inputs": [],
      "name": "getLatestPublicUpload",
      "outputs": [
        {
          "internalType": "string",
          "name": "",
          "type": "string"
        },
        {
          "internalType": "string",
          "name": "",
          "type": "string"
        },
        {
          "internalType": "uint256",
          "name": "",
          "type": "uint256"
        },
        {
          "internalType": "address",
          "name": "",
          "type": "address"
        }
      ],
      "stateMutability": "view",
      "type": "function"
    },
    {
      "inputs": [
        {
          "internalType": "string",
          "name": "_fileName",
          "type": "string"
        }
      ],
      "name": "getOnePrivateFile",
      "outputs": [
        {
          "internalType": "string",
          "name": "_ipfsCID",
          "type": "string"
        },
        {
          "internalType": "string",
          "name": "_filename",
          "type": "string"
        },
        {
          "internalType": "uint256",
          "name": "_timeUploaded",
          "type": "uint256"
        },
        {
          "internalType": "address",
          "name": "_fileOwner",
          "type": "address"
        }
      ],
      "stateMutability": "view",
      "type": "function"
    },
    {
      "inputs": [],
      "name": "getSize",
      "outputs": [
        {
          "internalType": "uint256",
          "name": "",
          "type": "uint256"
        }
      ],
      "stateMutability": "view",
      "type": "function"
    },
    {
      "inputs": [],
      "name": "getSizeOfPrivateUploads",
      "outputs": [
        {
          "internalType": "uint256",
          "name": "",
          "type": "uint256"
        }
      ],
      "stateMutability": "view",
      "type": "function"
    },
    {
      "inputs": [
        {
          "internalType": "uint256",
          "name": "",
          "type": "uint256"
        }
      ],
      "name": "keys",
      "outputs": [
        {
          "internalType": "string",
          "name": "",
          "type": "string"
        }
      ],
      "stateMutability": "view",
      "type": "function"
    },
    {
      "inputs": [],
      "name": "owner",
      "outputs": [
        {
          "internalType": "address",
          "name": "",
          "type": "address"
        }
      ],
      "stateMutability": "view",
      "type": "function"
    },
    {
      "inputs": [
        {
          "internalType": "address",
          "name": "",
          "type": "address"
        },
        {
          "internalType": "string",
          "name": "",
          "type": "string"
        }
      ],
      "name": "privateCollection",
      "outputs": [
        {
          "internalType": "string",
          "name": "ipfsCID",
          "type": "string"
        },
        {
          "internalType": "string",
          "name": "fileName",
          "type": "string"
        },
        {
          "internalType": "uint256",
          "name": "timeUploaded",
          "type": "uint256"
        },
        {
          "internalType": "address",
          "name": "fileOwner",
          "type": "address"
        }
      ],
      "stateMutability": "view",
      "type": "function"
    },
    {
      "inputs": [
        {
          "internalType": "address",
          "name": "_to",
          "type": "address"
        },
        {
          "internalType": "string",
          "name": "_fileName",
          "type": "string"
        }
      ],
      "name": "sharePrivateFile",
      "outputs": [],
      "stateMutability": "nonpayable",
      "type": "function"
    }
  ],
  "bytecode": "0x608060405234801561001057600080fd5b50336000806101000a81548173ffffffffffffffffffffffffffffffffffffffff021916908373ffffffffffffffffffffffffffffffffffffffff160217905550612f67806100606000396000f3fe608060405234801561001057600080fd5b50600436106100ea5760003560e01c80639bccd6ad1161008c578063dc642f3011610066578063dc642f3014610270578063de8fa431146102a3578063e97da63b146102c1578063eaaa9ff2146102dd576100ea565b80639bccd6ad146101fe578063c19455d01461022e578063daaf618a1461024f576100ea565b80634d2bc142116100c85780634d2bc1421461015e5780635733cfd7146101915780638da5cb5b146101c4578063931eae1b146101e2576100ea565b80630cb6aaf1146100ef57806348e641c21461011f5780634c1986761461013d575b600080fd5b610109600480360381019061010491906125d6565b6102fe565b604051610116919061299c565b60405180910390f35b6101276103aa565b6040516101349190612a91565b60405180910390f35b6101456103b7565b6040516101559493929190612920565b60405180910390f35b610178600480360381019061017391906124c2565b6109a0565b60405161018894939291906129be565b60405180910390f35b6101ab60048036038101906101a69190612516565b610b23565b6040516101bb94939291906129be565b60405180910390f35b6101cc610e56565b6040516101d99190612905565b60405180910390f35b6101fc60048036038101906101f791906124c2565b610e7a565b005b61021860048036038101906102139190612516565b61109f565b6040516102259190612981565b60405180910390f35b6102366110d5565b60405161024694939291906129be565b60405180910390f35b610257611390565b60405161026794939291906129be565b60405180910390f35b61028a60048036038101906102859190612516565b61173f565b60405161029a94939291906129be565b60405180910390f35b6102ab6118b5565b6040516102b89190612a91565b60405180910390f35b6102db60048036038101906102d69190612557565b6118c2565b005b6102e5611cb0565b6040516102f59493929190612920565b60405180910390f35b6002818154811061030e57600080fd5b90600052602060002001600091509050805461032990612ca3565b80601f016020809104026020016040519081016040528092919081815260200182805461035590612ca3565b80156103a25780601f10610377576101008083540402835291602001916103a2565b820191906000526020600020905b81548152906001019060200180831161038557829003601f168201915b505050505081565b6000600480549050905090565b6060806060806000600280549050905060008167ffffffffffffffff811115610409577f4e487b7100000000000000000000000000000000000000000000000000000000600052604160045260246000fd5b60405190808252806020026020018201604052801561043c57816020015b60608152602001906001900390816104275790505b50905060008267ffffffffffffffff811115610481577f4e487b7100000000000000000000000000000000000000000000000000000000600052604160045260246000fd5b6040519080825280602002602001820160405280156104b457816020015b606081526020019060019003908161049f5790505b50905060008367ffffffffffffffff8111156104f9577f4e487b7100000000000000000000000000000000000000000000000000000000600052604160045260246000fd5b6040519080825280602002602001820160405280156105275781602001602082028036833780820191505090505b50905060008467ffffffffffffffff81111561056c577f4e487b7100000000000000000000000000000000000000000000000000000000600052604160045260246000fd5b60405190808252806020026020018201604052801561059a5781602001602082028036833780820191505090505b50905060005b600280549050811015610988576000600282815481106105e9577f4e487b7100000000000000000000000000000000000000000000000000000000600052603260045260246000fd5b9060005260206000200180546105fe90612ca3565b80601f016020809104026020016040519081016040528092919081815260200182805461062a90612ca3565b80156106775780601f1061064c57610100808354040283529160200191610677565b820191906000526020600020905b81548152906001019060200180831161065a57829003601f168201915b5050505050905060018160405161068e91906128ee565b908152602001604051809103902060000180546106aa90612ca3565b80601f01602080910402602001604051908101604052809291908181526020018280546106d690612ca3565b80156107235780601f106106f857610100808354040283529160200191610723565b820191906000526020600020905b81548152906001019060200180831161070657829003601f168201915b5050505050868381518110610761577f4e487b7100000000000000000000000000000000000000000000000000000000600052603260045260246000fd5b602002602001018190525060018160405161077c91906128ee565b9081526020016040518091039020600101805461079890612ca3565b80601f01602080910402602001604051908101604052809291908181526020018280546107c490612ca3565b80156108115780601f106107e657610100808354040283529160200191610811565b820191906000526020600020905b8154815290600101906020018083116107f457829003601f168201915b505050505085838151811061084f577f4e487b7100000000000000000000000000000000000000000000000000000000600052603260045260246000fd5b602002602001018190525060018160405161086a91906128ee565b9081526020016040518091039020600201548483815181106108b5577f4e487b7100000000000000000000000000000000000000000000000000000000600052603260045260246000fd5b6020026020010181815250506001816040516108d191906128ee565b908152602001604051809103902060030160009054906101000a900473ffffffffffffffffffffffffffffffffffffffff1683838151811061093c577f4e487b7100000000000000000000000000000000000000000000000000000000600052603260045260246000fd5b602002602001019073ffffffffffffffffffffffffffffffffffffffff16908173ffffffffffffffffffffffffffffffffffffffff1681525050508061098190612d06565b90506105a0565b50838383839850985098509850505050505090919293565b600360205281600052604060002081805160208101820180518482526020830160208501208183528095505050505050600091509150508060000180546109e690612ca3565b80601f0160208091040260200160405190810160405280929190818152602001828054610a1290612ca3565b8015610a5f5780601f10610a3457610100808354040283529160200191610a5f565b820191906000526020600020905b815481529060010190602001808311610a4257829003601f168201915b505050505090806001018054610a7490612ca3565b80601f0160208091040260200160405190810160405280929190818152602001828054610aa090612ca3565b8015610aed5780601f10610ac257610100808354040283529160200191610aed565b820191906000526020600020905b815481529060010190602001808311610ad057829003601f168201915b5050505050908060020154908060030160009054906101000a900473ffffffffffffffffffffffffffffffffffffffff16905084565b60608060008060011515600586604051610b3d91906128ee565b908152602001604051809103902060009054906101000a900460ff16151514610b9b576040517f08c379a0000000000000000000000000000000000000000000000000000000008152600401610b9290612a51565b60405180910390fd5b600360003373ffffffffffffffffffffffffffffffffffffffff1673ffffffffffffffffffffffffffffffffffffffff16815260200190815260200160002085604051610be891906128ee565b90815260200160405180910390206000018054610c0490612ca3565b80601f0160208091040260200160405190810160405280929190818152602001828054610c3090612ca3565b8015610c7d5780601f10610c5257610100808354040283529160200191610c7d565b820191906000526020600020905b815481529060010190602001808311610c6057829003601f168201915b50505050509350600360003373ffffffffffffffffffffffffffffffffffffffff1673ffffffffffffffffffffffffffffffffffffffff16815260200190815260200160002085604051610cd191906128ee565b90815260200160405180910390206001018054610ced90612ca3565b80601f0160208091040260200160405190810160405280929190818152602001828054610d1990612ca3565b8015610d665780601f10610d3b57610100808354040283529160200191610d66565b820191906000526020600020905b815481529060010190602001808311610d4957829003601f168201915b50505050509250600360003373ffffffffffffffffffffffffffffffffffffffff1673ffffffffffffffffffffffffffffffffffffffff16815260200190815260200160002085604051610dba91906128ee565b9081526020016040518091039020600201549150600360003373ffffffffffffffffffffffffffffffffffffffff1673ffffffffffffffffffffffffffffffffffffffff16815260200190815260200160002085604051610e1b91906128ee565b908152602001604051809103902060030160009054906101000a900473ffffffffffffffffffffffffffffffffffffffff1690509193509193565b60008054906101000a900473ffffffffffffffffffffffffffffffffffffffff1681565b60011515600582604051610e8e91906128ee565b908152602001604051809103902060009054906101000a900460ff16151514610eec576040517f08c379a0000000000000000000000000000000000000000000000000000000008152600401610ee390612a51565b60405180910390fd5b600080600080610efb85610b23565b93509350935093503373ffffffffffffffffffffffffffffffffffffffff168173ffffffffffffffffffffffffffffffffffffffff1614610f71576040517f08c379a0000000000000000000000000000000000000000000000000000000008152600401610f6890612a11565b60405180910390fd5b600060405180608001604052808681526020018581526020018481526020018373ffffffffffffffffffffffffffffffffffffffff16815250905080600360008973ffffffffffffffffffffffffffffffffffffffff1673ffffffffffffffffffffffffffffffffffffffff16815260200190815260200160002087604051610ffa91906128ee565b9081526020016040518091039020600082015181600001908051906020019061102492919061238d565b50602082015181600101908051906020019061104192919061238d565b506040820151816002015560608201518160030160006101000a81548173ffffffffffffffffffffffffffffffffffffffff021916908373ffffffffffffffffffffffffffffffffffffffff16021790555090505050505050505050565b6005818051602081018201805184825260208301602085012081835280955050505050506000915054906101000a900460ff1681565b60608060008060006002805490509050600060026001836110f69190612be5565b8154811061112d577f4e487b7100000000000000000000000000000000000000000000000000000000600052603260045260246000fd5b90600052602060002001805461114290612ca3565b80601f016020809104026020016040519081016040528092919081815260200182805461116e90612ca3565b80156111bb5780601f10611190576101008083540402835291602001916111bb565b820191906000526020600020905b81548152906001019060200180831161119e57829003601f168201915b505050505090506001816040516111d291906128ee565b90815260200160405180910390206000016001826040516111f391906128ee565b908152602001604051809103902060010160018360405161121491906128ee565b90815260200160405180910390206002015460018460405161123691906128ee565b908152602001604051809103902060030160009054906101000a900473ffffffffffffffffffffffffffffffffffffffff1683805461127490612ca3565b80601f01602080910402602001604051908101604052809291908181526020018280546112a090612ca3565b80156112ed5780601f106112c2576101008083540402835291602001916112ed565b820191906000526020600020905b8154815290600101906020018083116112d057829003601f168201915b5050505050935082805461130090612ca3565b80601f016020809104026020016040519081016040528092919081815260200182805461132c90612ca3565b80156113795780601f1061134e57610100808354040283529160200191611379565b820191906000526020600020905b81548152906001019060200180831161135c57829003601f168201915b505050505092509550955095509550505090919293565b60608060008060006004805490509050600060046001836113b19190612be5565b815481106113e8577f4e487b7100000000000000000000000000000000000000000000000000000000600052603260045260246000fd5b9060005260206000200180546113fd90612ca3565b80601f016020809104026020016040519081016040528092919081815260200182805461142990612ca3565b80156114765780601f1061144b57610100808354040283529160200191611476565b820191906000526020600020905b81548152906001019060200180831161145957829003601f168201915b50505050509050600360003373ffffffffffffffffffffffffffffffffffffffff1673ffffffffffffffffffffffffffffffffffffffff168152602001908152602001600020816040516114ca91906128ee565b9081526020016040518091039020600001600360003373ffffffffffffffffffffffffffffffffffffffff1673ffffffffffffffffffffffffffffffffffffffff1681526020019081526020016000208260405161152891906128ee565b9081526020016040518091039020600101600360003373ffffffffffffffffffffffffffffffffffffffff1673ffffffffffffffffffffffffffffffffffffffff1681526020019081526020016000208360405161158691906128ee565b908152602001604051809103902060020154600360003373ffffffffffffffffffffffffffffffffffffffff1673ffffffffffffffffffffffffffffffffffffffff168152602001908152602001600020846040516115e591906128ee565b908152602001604051809103902060030160009054906101000a900473ffffffffffffffffffffffffffffffffffffffff1683805461162390612ca3565b80601f016020809104026020016040519081016040528092919081815260200182805461164f90612ca3565b801561169c5780601f106116715761010080835404028352916020019161169c565b820191906000526020600020905b81548152906001019060200180831161167f57829003601f168201915b505050505093508280546116af90612ca3565b80601f01602080910402602001604051908101604052809291908181526020018280546116db90612ca3565b80156117285780601f106116fd57610100808354040283529160200191611728565b820191906000526020600020905b81548152906001019060200180831161170b57829003601f168201915b505050505092509550955095509550505090919293565b60018180516020810182018051848252602083016020850120818352809550505050505060009150905080600001805461177890612ca3565b80601f01602080910402602001604051908101604052809291908181526020018280546117a490612ca3565b80156117f15780601f106117c6576101008083540402835291602001916117f1565b820191906000526020600020905b8154815290600101906020018083116117d457829003601f168201915b50505050509080600101805461180690612ca3565b80601f016020809104026020016040519081016040528092919081815260200182805461183290612ca3565b801561187f5780601f106118545761010080835404028352916020019161187f565b820191906000526020600020905b81548152906001019060200180831161186257829003601f168201915b5050505050908060020154908060030160009054906101000a900473ffffffffffffffffffffffffffffffffffffffff16905084565b6000600280549050905090565b600015156005846040516118d691906128ee565b908152602001604051809103902060009054906101000a900460ff16151514611934576040517f08c379a000000000000000000000000000000000000000000000000000000000815260040161192b90612a31565b60405180910390fd5b6000151560058360405161194891906128ee565b908152602001604051809103902060009054906101000a900460ff161515146119a6576040517f08c379a000000000000000000000000000000000000000000000000000000000815260040161199d90612a71565b60405180910390fd5b600060405180608001604052808581526020018481526020014281526020013373ffffffffffffffffffffffffffffffffffffffff1681525090506001821415611b155780600360003373ffffffffffffffffffffffffffffffffffffffff1673ffffffffffffffffffffffffffffffffffffffff16815260200190815260200160002084604051611a3891906128ee565b90815260200160405180910390206000820151816000019080519060200190611a6292919061238d565b506020820151816001019080519060200190611a7f92919061238d565b506040820151816002015560608201518160030160006101000a81548173ffffffffffffffffffffffffffffffffffffffff021916908373ffffffffffffffffffffffffffffffffffffffff160217905550905050600483908060018154018082558091505060019003906000526020600020016000909190919091509080519060200190611b0f92919061238d565b50611bff565b80600185604051611b2691906128ee565b90815260200160405180910390206000820151816000019080519060200190611b5092919061238d565b506020820151816001019080519060200190611b6d92919061238d565b506040820151816002015560608201518160030160006101000a81548173ffffffffffffffffffffffffffffffffffffffff021916908373ffffffffffffffffffffffffffffffffffffffff160217905550905050600284908060018154018082558091505060019003906000526020600020016000909190919091509080519060200190611bfd92919061238d565b505b6001600584604051611c1191906128ee565b908152602001604051809103902060006101000a81548160ff0219169083151502179055506001600585604051611c4891906128ee565b908152602001604051809103902060006101000a81548160ff0219169083151502179055507f23328c870127949cf845a05506d0fc9028a78b1fe34f9c4300f672ca306238c384844233604051611ca294939291906129be565b60405180910390a150505050565b6060806060806000600480549050905060008167ffffffffffffffff811115611d02577f4e487b7100000000000000000000000000000000000000000000000000000000600052604160045260246000fd5b604051908082528060200260200182016040528015611d3557816020015b6060815260200190600190039081611d205790505b50905060008267ffffffffffffffff811115611d7a577f4e487b7100000000000000000000000000000000000000000000000000000000600052604160045260246000fd5b604051908082528060200260200182016040528015611dad57816020015b6060815260200190600190039081611d985790505b50905060008367ffffffffffffffff811115611df2577f4e487b7100000000000000000000000000000000000000000000000000000000600052604160045260246000fd5b604051908082528060200260200182016040528015611e205781602001602082028036833780820191505090505b50905060008467ffffffffffffffff811115611e65577f4e487b7100000000000000000000000000000000000000000000000000000000600052604160045260246000fd5b604051908082528060200260200182016040528015611e935781602001602082028036833780820191505090505b50905060005b60048054905081101561237557600060048281548110611ee2577f4e487b7100000000000000000000000000000000000000000000000000000000600052603260045260246000fd5b906000526020600020018054611ef790612ca3565b80601f0160208091040260200160405190810160405280929190818152602001828054611f2390612ca3565b8015611f705780601f10611f4557610100808354040283529160200191611f70565b820191906000526020600020905b815481529060010190602001808311611f5357829003601f168201915b50505050509050600360003373ffffffffffffffffffffffffffffffffffffffff1673ffffffffffffffffffffffffffffffffffffffff16815260200190815260200160002081604051611fc491906128ee565b90815260200160405180910390206000018054611fe090612ca3565b80601f016020809104026020016040519081016040528092919081815260200182805461200c90612ca3565b80156120595780601f1061202e57610100808354040283529160200191612059565b820191906000526020600020905b81548152906001019060200180831161203c57829003601f168201915b5050505050868381518110612097577f4e487b7100000000000000000000000000000000000000000000000000000000600052603260045260246000fd5b6020026020010181905250600360003373ffffffffffffffffffffffffffffffffffffffff1673ffffffffffffffffffffffffffffffffffffffff168152602001908152602001600020816040516120ef91906128ee565b9081526020016040518091039020600101805461210b90612ca3565b80601f016020809104026020016040519081016040528092919081815260200182805461213790612ca3565b80156121845780601f1061215957610100808354040283529160200191612184565b820191906000526020600020905b81548152906001019060200180831161216757829003601f168201915b50505050508583815181106121c2577f4e487b7100000000000000000000000000000000000000000000000000000000600052603260045260246000fd5b6020026020010181905250600360003373ffffffffffffffffffffffffffffffffffffffff1673ffffffffffffffffffffffffffffffffffffffff1681526020019081526020016000208160405161221a91906128ee565b908152602001604051809103902060020154848381518110612265577f4e487b7100000000000000000000000000000000000000000000000000000000600052603260045260246000fd5b602002602001018181525050600360003373ffffffffffffffffffffffffffffffffffffffff1673ffffffffffffffffffffffffffffffffffffffff168152602001908152602001600020816040516122be91906128ee565b908152602001604051809103902060030160009054906101000a900473ffffffffffffffffffffffffffffffffffffffff16838381518110612329577f4e487b7100000000000000000000000000000000000000000000000000000000600052603260045260246000fd5b602002602001019073ffffffffffffffffffffffffffffffffffffffff16908173ffffffffffffffffffffffffffffffffffffffff1681525050508061236e90612d06565b9050611e99565b50838383839850985098509850505050505090919293565b82805461239990612ca3565b90600052602060002090601f0160209004810192826123bb5760008555612402565b82601f106123d457805160ff1916838001178555612402565b82800160010185558215612402579182015b828111156124015782518255916020019190600101906123e6565b5b50905061240f9190612413565b5090565b5b8082111561242c576000816000905550600101612414565b5090565b600061244361243e84612ad1565b612aac565b90508281526020810184848401111561245b57600080fd5b612466848285612c61565b509392505050565b60008135905061247d81612f03565b92915050565b600082601f83011261249457600080fd5b81356124a4848260208601612430565b91505092915050565b6000813590506124bc81612f1a565b92915050565b600080604083850312156124d557600080fd5b60006124e38582860161246e565b925050602083013567ffffffffffffffff81111561250057600080fd5b61250c85828601612483565b9150509250929050565b60006020828403121561252857600080fd5b600082013567ffffffffffffffff81111561254257600080fd5b61254e84828501612483565b91505092915050565b60008060006060848603121561256c57600080fd5b600084013567ffffffffffffffff81111561258657600080fd5b61259286828701612483565b935050602084013567ffffffffffffffff8111156125af57600080fd5b6125bb86828701612483565b92505060406125cc868287016124ad565b9150509250925092565b6000602082840312156125e857600080fd5b60006125f6848285016124ad565b91505092915050565b600061260b8383612643565b60208301905092915050565b600061262383836127a1565b905092915050565b600061263783836128d0565b60208301905092915050565b61264c81612c19565b82525050565b61265b81612c19565b82525050565b600061266c82612b32565b6126768185612b85565b935061268183612b02565b8060005b838110156126b257815161269988826125ff565b97506126a483612b5e565b925050600181019050612685565b5085935050505092915050565b60006126ca82612b3d565b6126d48185612b96565b9350836020820285016126e685612b12565b8060005b8581101561272257848403895281516127038582612617565b945061270e83612b6b565b925060208a019950506001810190506126ea565b50829750879550505050505092915050565b600061273f82612b48565b6127498185612ba7565b935061275483612b22565b8060005b8381101561278557815161276c888261262b565b975061277783612b78565b925050600181019050612758565b5085935050505092915050565b61279b81612c2b565b82525050565b60006127ac82612b53565b6127b68185612bb8565b93506127c6818560208601612c70565b6127cf81612ddc565b840191505092915050565b60006127e582612b53565b6127ef8185612bc9565b93506127ff818560208601612c70565b61280881612ddc565b840191505092915050565b600061281e82612b53565b6128288185612bda565b9350612838818560208601612c70565b80840191505092915050565b6000612851602483612bc9565b915061285c82612ded565b604082019050919050565b6000612874602283612bc9565b915061287f82612e3c565b604082019050919050565b6000612897601383612bc9565b91506128a282612e8b565b602082019050919050565b60006128ba602b83612bc9565b91506128c582612eb4565b604082019050919050565b6128d981612c57565b82525050565b6128e881612c57565b82525050565b60006128fa8284612813565b915081905092915050565b600060208201905061291a6000830184612652565b92915050565b6000608082019050818103600083015261293a81876126bf565b9050818103602083015261294e81866126bf565b905081810360408301526129628185612734565b905081810360608301526129768184612661565b905095945050505050565b60006020820190506129966000830184612792565b92915050565b600060208201905081810360008301526129b681846127da565b905092915050565b600060808201905081810360008301526129d881876127da565b905081810360208301526129ec81866127da565b90506129fb60408301856128df565b612a086060830184612652565b95945050505050565b60006020820190508181036000830152612a2a81612844565b9050919050565b60006020820190508181036000830152612a4a81612867565b9050919050565b60006020820190508181036000830152612a6a8161288a565b9050919050565b60006020820190508181036000830152612a8a816128ad565b9050919050565b6000602082019050612aa660008301846128df565b92915050565b6000612ab6612ac7565b9050612ac28282612cd5565b919050565b6000604051905090565b600067ffffffffffffffff821115612aec57612aeb612dad565b5b612af582612ddc565b9050602081019050919050565b6000819050602082019050919050565b6000819050602082019050919050565b6000819050602082019050919050565b600081519050919050565b600081519050919050565b600081519050919050565b600081519050919050565b6000602082019050919050565b6000602082019050919050565b6000602082019050919050565b600082825260208201905092915050565b600082825260208201905092915050565b600082825260208201905092915050565b600082825260208201905092915050565b600082825260208201905092915050565b600081905092915050565b6000612bf082612c57565b9150612bfb83612c57565b925082821015612c0e57612c0d612d4f565b5b828203905092915050565b6000612c2482612c37565b9050919050565b60008115159050919050565b600073ffffffffffffffffffffffffffffffffffffffff82169050919050565b6000819050919050565b82818337600083830152505050565b60005b83811015612c8e578082015181840152602081019050612c73565b83811115612c9d576000848401525b50505050565b60006002820490506001821680612cbb57607f821691505b60208210811415612ccf57612cce612d7e565b5b50919050565b612cde82612ddc565b810181811067ffffffffffffffff82111715612cfd57612cfc612dad565b5b80604052505050565b6000612d1182612c57565b91507fffffffffffffffffffffffffffffffffffffffffffffffffffffffffffffffff821415612d4457612d43612d4f565b5b600182019050919050565b7f4e487b7100000000000000000000000000000000000000000000000000000000600052601160045260246000fd5b7f4e487b7100000000000000000000000000000000000000000000000000000000600052602260045260246000fd5b7f4e487b7100000000000000000000000000000000000000000000000000000000600052604160045260246000fd5b6000601f19601f8301169050919050565b7f46496c65207368617265206e6f7420617574686f72697a65642e204e6f74204f60008201527f776e657200000000000000000000000000000000000000000000000000000000602082015250565b7f46696c65207769746820746869732043494420616c726561647920657869737460008201527f732e000000000000000000000000000000000000000000000000000000000000602082015250565b7f46696c6520646f6573206e6f7420657869737400000000000000000000000000600082015250565b7f46696c6520776974682074686973204e616d6520616c7265616479206578697360008201527f74732c2052656e616d652e000000000000000000000000000000000000000000602082015250565b612f0c81612c19565b8114612f1757600080fd5b50565b612f2381612c57565b8114612f2e57600080fd5b5056fea26469706673582212206baeaa4b2ee966a9e8edb932dcb5eefe081307954c2f8d751b9f9e387de637c064736f6c63430008040033",
  "linkReferences": {},
  "deployedLinkReferences": {}
}