{
  "_format": "hh-sol-artifact-1",
  "contractName": "DecentralizedLibrary",
  "sourceName": "contracts/DecentralizedLibrary.sol",
  "abi": [
    {
      "inputs": [],
      "stateMutability": "nonpayable",
      "type": "constructor"
    },
    {
      "anonymous": false,
      "inputs": [
        {
          "indexed": false,
          "internalType": "string",
          "name": "ipfsCID",
          "type": "string"
        },
        {
          "indexed": false,
          "internalType": "string",
          "name": "fileName",
          "type": "string"
        },
        {
          "indexed": false,
          "internalType": "uint256",
          "name": "timeUploaded",
          "type": "uint256"
        },
        {
          "indexed": false,
          "internalType": "address",
          "name": "fileOwner",
          "type": "address"
        }
      ],
      "name": "FileUploaded",
      "type": "event"
    },
    {
      "inputs": [
        {
          "internalType": "string",
          "name": "",
          "type": "string"
        }
      ],
      "name": "collection",
      "outputs": [
        {
          "internalType": "string",
          "name": "ipfsCID",
          "type": "string"
        },
        {
          "internalType": "string",
          "name": "fileName",
          "type": "string"
        },
        {
          "internalType": "uint256",
          "name": "timeUploaded",
          "type": "uint256"
        },
        {
          "internalType": "address",
          "name": "fileOwner",
          "type": "address"
        }
      ],
      "stateMutability": "view",
      "type": "function"
    },
    {
      "inputs": [
        {
          "internalType": "string",
          "name": "",
          "type": "string"
        }
      ],
      "name": "fileExists",
      "outputs": [
        {
          "internalType": "bool",
          "name": "",
          "type": "bool"
        }
      ],
      "stateMutability": "view",
      "type": "function"
    },
    {
      "inputs": [
        {
          "internalType": "address",
          "name": "",
          "type": "address"
        },
        {
          "internalType": "string",
          "name": "",
          "type": "string"
        }
      ],
      "name": "fileShared",
      "outputs": [
        {
          "internalType": "bool",
          "name": "",
          "type": "bool"
        }
      ],
      "stateMutability": "view",
      "type": "function"
    },
    {
      "inputs": [
        {
          "internalType": "string",
          "name": "_ipfsCID",
          "type": "string"
        },
        {
          "internalType": "string",
          "name": "_fileName",
          "type": "string"
        },
        {
          "internalType": "uint256",
          "name": "_uploadType",
          "type": "uint256"
        }
      ],
      "name": "fileUpload",
      "outputs": [],
      "stateMutability": "nonpayable",
      "type": "function"
    },
    {
      "inputs": [],
      "name": "getAllPrivateUploads",
      "outputs": [
        {
          "internalType": "string[]",
          "name": "",
          "type": "string[]"
        },
        {
          "internalType": "string[]",
          "name": "",
          "type": "string[]"
        },
        {
          "internalType": "uint256[]",
          "name": "",
          "type": "uint256[]"
        },
        {
          "internalType": "address[]",
          "name": "",
          "type": "address[]"
        }
      ],
      "stateMutability": "view",
      "type": "function"
    },
    {
      "inputs": [],
      "name": "getAllPublicUploads",
      "outputs": [
        {
          "internalType": "string[]",
          "name": "",
          "type": "string[]"
        },
        {
          "internalType": "string[]",
          "name": "",
          "type": "string[]"
        },
        {
          "internalType": "uint256[]",
          "name": "",
          "type": "uint256[]"
        },
        {
          "internalType": "address[]",
          "name": "",
          "type": "address[]"
        }
      ],
      "stateMutability": "view",
      "type": "function"
    },
    {
      "inputs": [],
      "name": "getLatestPrivateUpload",
      "outputs": [
        {
          "internalType": "string",
          "name": "",
          "type": "string"
        },
        {
          "internalType": "string",
          "name": "",
          "type": "string"
        },
        {
          "internalType": "uint256",
          "name": "",
          "type": "uint256"
        },
        {
          "internalType": "address",
          "name": "",
          "type": "address"
        }
      ],
      "stateMutability": "view",
      "type": "function"
    },
    {
      "inputs": [],
      "name": "getLatestPublicUpload",
      "outputs": [
        {
          "internalType": "string",
          "name": "",
          "type": "string"
        },
        {
          "internalType": "string",
          "name": "",
          "type": "string"
        },
        {
          "internalType": "uint256",
          "name": "",
          "type": "uint256"
        },
        {
          "internalType": "address",
          "name": "",
          "type": "address"
        }
      ],
      "stateMutability": "view",
      "type": "function"
    },
    {
      "inputs": [
        {
          "internalType": "string",
          "name": "_fileName",
          "type": "string"
        }
      ],
      "name": "getOnePrivateFile",
      "outputs": [
        {
          "internalType": "string",
          "name": "_ipfsCID",
          "type": "string"
        },
        {
          "internalType": "string",
          "name": "_filename",
          "type": "string"
        },
        {
          "internalType": "uint256",
          "name": "_timeUploaded",
          "type": "uint256"
        },
        {
          "internalType": "address",
          "name": "_fileOwner",
          "type": "address"
        }
      ],
      "stateMutability": "view",
      "type": "function"
    },
    {
      "inputs": [],
      "name": "getSharedFiles",
      "outputs": [
        {
          "internalType": "string[]",
          "name": "",
          "type": "string[]"
        },
        {
          "internalType": "string[]",
          "name": "",
          "type": "string[]"
        },
        {
          "internalType": "uint256[]",
          "name": "",
          "type": "uint256[]"
        },
        {
          "internalType": "address[]",
          "name": "",
          "type": "address[]"
        }
      ],
      "stateMutability": "view",
      "type": "function"
    },
    {
      "inputs": [],
      "name": "getSize",
      "outputs": [
        {
          "internalType": "uint256",
          "name": "",
          "type": "uint256"
        }
      ],
      "stateMutability": "view",
      "type": "function"
    },
    {
      "inputs": [],
      "name": "getSizeOfPrivateUploads",
      "outputs": [
        {
          "internalType": "uint256",
          "name": "",
          "type": "uint256"
        }
      ],
      "stateMutability": "view",
      "type": "function"
    },
    {
      "inputs": [],
      "name": "getUserPublicUploads",
      "outputs": [
        {
          "internalType": "string[]",
          "name": "",
          "type": "string[]"
        },
        {
          "internalType": "string[]",
          "name": "",
          "type": "string[]"
        },
        {
          "internalType": "uint256[]",
          "name": "",
          "type": "uint256[]"
        },
        {
          "internalType": "address[]",
          "name": "",
          "type": "address[]"
        }
      ],
      "stateMutability": "view",
      "type": "function"
    },
    {
      "inputs": [
        {
          "internalType": "uint256",
          "name": "",
          "type": "uint256"
        }
      ],
      "name": "keys",
      "outputs": [
        {
          "internalType": "string",
          "name": "",
          "type": "string"
        }
      ],
      "stateMutability": "view",
      "type": "function"
    },
    {
      "inputs": [
        {
          "internalType": "address",
          "name": "",
          "type": "address"
        },
        {
          "internalType": "string",
          "name": "",
          "type": "string"
        }
      ],
      "name": "myCollection",
      "outputs": [
        {
          "internalType": "string",
          "name": "ipfsCID",
          "type": "string"
        },
        {
          "internalType": "string",
          "name": "fileName",
          "type": "string"
        },
        {
          "internalType": "uint256",
          "name": "timeUploaded",
          "type": "uint256"
        },
        {
          "internalType": "address",
          "name": "fileOwner",
          "type": "address"
        }
      ],
      "stateMutability": "view",
      "type": "function"
    },
    {
      "inputs": [],
      "name": "owner",
      "outputs": [
        {
          "internalType": "address",
          "name": "",
          "type": "address"
        }
      ],
      "stateMutability": "view",
      "type": "function"
    },
    {
      "inputs": [
        {
          "internalType": "address",
          "name": "",
          "type": "address"
        },
        {
          "internalType": "string",
          "name": "",
          "type": "string"
        }
      ],
      "name": "privateCollection",
      "outputs": [
        {
          "internalType": "string",
          "name": "ipfsCID",
          "type": "string"
        },
        {
          "internalType": "string",
          "name": "fileName",
          "type": "string"
        },
        {
          "internalType": "uint256",
          "name": "timeUploaded",
          "type": "uint256"
        },
        {
          "internalType": "address",
          "name": "fileOwner",
          "type": "address"
        }
      ],
      "stateMutability": "view",
      "type": "function"
    },
    {
      "inputs": [
        {
          "internalType": "address",
          "name": "_to",
          "type": "address"
        },
        {
          "internalType": "string",
          "name": "_fileName",
          "type": "string"
        }
      ],
      "name": "sharePrivateFile",
      "outputs": [],
      "stateMutability": "nonpayable",
      "type": "function"
    },
    {
      "inputs": [
        {
          "internalType": "address",
          "name": "",
          "type": "address"
        },
        {
          "internalType": "string",
          "name": "",
          "type": "string"
        }
      ],
      "name": "sharedCollection",
      "outputs": [
        {
          "internalType": "string",
          "name": "ipfsCID",
          "type": "string"
        },
        {
          "internalType": "string",
          "name": "fileName",
          "type": "string"
        },
        {
          "internalType": "uint256",
          "name": "timeUploaded",
          "type": "uint256"
        },
        {
          "internalType": "address",
          "name": "fileOwner",
          "type": "address"
        }
      ],
      "stateMutability": "view",
      "type": "function"
    }
  ],
  "bytecode": "0x608060405234801561001057600080fd5b50336000806101000a81548173ffffffffffffffffffffffffffffffffffffffff021916908373ffffffffffffffffffffffffffffffffffffffff16021790555061465b806100606000396000f3fe608060405234801561001057600080fd5b50600436106101215760003560e01c8063931eae1b116100ad578063daaf618a11610071578063daaf618a1461035e578063dc642f301461037f578063de8fa431146103b2578063e97da63b146103d0578063eaaa9ff2146103ec57610121565b8063931eae1b1461029d5780639bccd6ad146102b9578063aeb4c15b146102e9578063bd17085b1461030a578063c19455d01461033d57610121565b80634d2bc142116100f45780634d2bc142146101c55780635733cfd7146101f85780638da5cb5b1461022b578063900a99dd14610249578063914e31441461027c57610121565b80630cb6aaf1146101265780632dd957c81461015657806348e641c2146101865780634c198676146101a4575b600080fd5b610140600480360381019061013b9190613cca565b61040d565b60405161014d9190614090565b60405180910390f35b610170600480360381019061016b9190613bb6565b6104b9565b60405161017d9190614075565b60405180910390f35b61018e6104fe565b60405161019b9190614185565b60405180910390f35b6101ac610548565b6040516101bc9493929190614014565b60405180910390f35b6101df60048036038101906101da9190613bb6565b610b31565b6040516101ef94939291906140b2565b60405180910390f35b610212600480360381019061020d9190613c0a565b610cb4565b60405161022294939291906140b2565b60405180910390f35b610233610fe7565b6040516102409190613ff9565b60405180910390f35b610263600480360381019061025e9190613bb6565b61100b565b60405161027394939291906140b2565b60405180910390f35b61028461118e565b6040516102949493929190614014565b60405180910390f35b6102b760048036038101906102b29190613bb6565b6118e0565b005b6102d360048036038101906102ce9190613c0a565b611ca1565b6040516102e09190614075565b60405180910390f35b6102f1611cd7565b6040516103019493929190614014565b60405180910390f35b610324600480360381019061031f9190613bb6565b612429565b60405161033494939291906140b2565b60405180910390f35b6103456125ac565b60405161035594939291906140b2565b60405180910390f35b610366612867565b60405161037694939291906140b2565b60405180910390f35b61039960048036038101906103949190613c0a565b612c90565b6040516103a994939291906140b2565b60405180910390f35b6103ba612e06565b6040516103c79190614185565b60405180910390f35b6103ea60048036038101906103e59190613c4b565b612e13565b005b6103f461332f565b6040516104049493929190614014565b60405180910390f35b6002818154811061041d57600080fd5b90600052602060002001600091509050805461043890614397565b80601f016020809104026020016040519081016040528092919081815260200182805461046490614397565b80156104b15780601f10610486576101008083540402835291602001916104b1565b820191906000526020600020905b81548152906001019060200180831161049457829003601f168201915b505050505081565b600a602052816000526040600020818051602081018201805184825260208301602085012081835280955050505050506000915091509054906101000a900460ff1681565b6000600660003373ffffffffffffffffffffffffffffffffffffffff1673ffffffffffffffffffffffffffffffffffffffff16815260200190815260200160002080549050905090565b6060806060806000600280549050905060008167ffffffffffffffff81111561059a577f4e487b7100000000000000000000000000000000000000000000000000000000600052604160045260246000fd5b6040519080825280602002602001820160405280156105cd57816020015b60608152602001906001900390816105b85790505b50905060008267ffffffffffffffff811115610612577f4e487b7100000000000000000000000000000000000000000000000000000000600052604160045260246000fd5b60405190808252806020026020018201604052801561064557816020015b60608152602001906001900390816106305790505b50905060008367ffffffffffffffff81111561068a577f4e487b7100000000000000000000000000000000000000000000000000000000600052604160045260246000fd5b6040519080825280602002602001820160405280156106b85781602001602082028036833780820191505090505b50905060008467ffffffffffffffff8111156106fd577f4e487b7100000000000000000000000000000000000000000000000000000000600052604160045260246000fd5b60405190808252806020026020018201604052801561072b5781602001602082028036833780820191505090505b50905060005b600280549050811015610b195760006002828154811061077a577f4e487b7100000000000000000000000000000000000000000000000000000000600052603260045260246000fd5b90600052602060002001805461078f90614397565b80601f01602080910402602001604051908101604052809291908181526020018280546107bb90614397565b80156108085780601f106107dd57610100808354040283529160200191610808565b820191906000526020600020905b8154815290600101906020018083116107eb57829003601f168201915b5050505050905060018160405161081f9190613fe2565b9081526020016040518091039020600001805461083b90614397565b80601f016020809104026020016040519081016040528092919081815260200182805461086790614397565b80156108b45780601f10610889576101008083540402835291602001916108b4565b820191906000526020600020905b81548152906001019060200180831161089757829003601f168201915b50505050508683815181106108f2577f4e487b7100000000000000000000000000000000000000000000000000000000600052603260045260246000fd5b602002602001018190525060018160405161090d9190613fe2565b9081526020016040518091039020600101805461092990614397565b80601f016020809104026020016040519081016040528092919081815260200182805461095590614397565b80156109a25780601f10610977576101008083540402835291602001916109a2565b820191906000526020600020905b81548152906001019060200180831161098557829003601f168201915b50505050508583815181106109e0577f4e487b7100000000000000000000000000000000000000000000000000000000600052603260045260246000fd5b60200260200101819052506001816040516109fb9190613fe2565b908152602001604051809103902060020154848381518110610a46577f4e487b7100000000000000000000000000000000000000000000000000000000600052603260045260246000fd5b602002602001018181525050600181604051610a629190613fe2565b908152602001604051809103902060030160009054906101000a900473ffffffffffffffffffffffffffffffffffffffff16838381518110610acd577f4e487b7100000000000000000000000000000000000000000000000000000000600052603260045260246000fd5b602002602001019073ffffffffffffffffffffffffffffffffffffffff16908173ffffffffffffffffffffffffffffffffffffffff16815250505080610b12906143fa565b9050610731565b50838383839850985098509850505050505090919293565b60056020528160005260406000208180516020810182018051848252602083016020850120818352809550505050505060009150915050806000018054610b7790614397565b80601f0160208091040260200160405190810160405280929190818152602001828054610ba390614397565b8015610bf05780601f10610bc557610100808354040283529160200191610bf0565b820191906000526020600020905b815481529060010190602001808311610bd357829003601f168201915b505050505090806001018054610c0590614397565b80601f0160208091040260200160405190810160405280929190818152602001828054610c3190614397565b8015610c7e5780601f10610c5357610100808354040283529160200191610c7e565b820191906000526020600020905b815481529060010190602001808311610c6157829003601f168201915b5050505050908060020154908060030160009054906101000a900473ffffffffffffffffffffffffffffffffffffffff16905084565b60608060008060011515600986604051610cce9190613fe2565b908152602001604051809103902060009054906101000a900460ff16151514610d2c576040517f08c379a0000000000000000000000000000000000000000000000000000000008152600401610d2390614125565b60405180910390fd5b600560003373ffffffffffffffffffffffffffffffffffffffff1673ffffffffffffffffffffffffffffffffffffffff16815260200190815260200160002085604051610d799190613fe2565b90815260200160405180910390206000018054610d9590614397565b80601f0160208091040260200160405190810160405280929190818152602001828054610dc190614397565b8015610e0e5780601f10610de357610100808354040283529160200191610e0e565b820191906000526020600020905b815481529060010190602001808311610df157829003601f168201915b50505050509350600560003373ffffffffffffffffffffffffffffffffffffffff1673ffffffffffffffffffffffffffffffffffffffff16815260200190815260200160002085604051610e629190613fe2565b90815260200160405180910390206001018054610e7e90614397565b80601f0160208091040260200160405190810160405280929190818152602001828054610eaa90614397565b8015610ef75780601f10610ecc57610100808354040283529160200191610ef7565b820191906000526020600020905b815481529060010190602001808311610eda57829003601f168201915b50505050509250600560003373ffffffffffffffffffffffffffffffffffffffff1673ffffffffffffffffffffffffffffffffffffffff16815260200190815260200160002085604051610f4b9190613fe2565b9081526020016040518091039020600201549150600560003373ffffffffffffffffffffffffffffffffffffffff1673ffffffffffffffffffffffffffffffffffffffff16815260200190815260200160002085604051610fac9190613fe2565b908152602001604051809103902060030160009054906101000a900473ffffffffffffffffffffffffffffffffffffffff1690509193509193565b60008054906101000a900473ffffffffffffffffffffffffffffffffffffffff1681565b6007602052816000526040600020818051602081018201805184825260208301602085012081835280955050505050506000915091505080600001805461105190614397565b80601f016020809104026020016040519081016040528092919081815260200182805461107d90614397565b80156110ca5780601f1061109f576101008083540402835291602001916110ca565b820191906000526020600020905b8154815290600101906020018083116110ad57829003601f168201915b5050505050908060010180546110df90614397565b80601f016020809104026020016040519081016040528092919081815260200182805461110b90614397565b80156111585780601f1061112d57610100808354040283529160200191611158565b820191906000526020600020905b81548152906001019060200180831161113b57829003601f168201915b5050505050908060020154908060030160009054906101000a900473ffffffffffffffffffffffffffffffffffffffff16905084565b6060806060806000600860003373ffffffffffffffffffffffffffffffffffffffff1673ffffffffffffffffffffffffffffffffffffffff16815260200190815260200160002080549050905060008167ffffffffffffffff81111561121d577f4e487b7100000000000000000000000000000000000000000000000000000000600052604160045260246000fd5b60405190808252806020026020018201604052801561125057816020015b606081526020019060019003908161123b5790505b50905060008267ffffffffffffffff811115611295577f4e487b7100000000000000000000000000000000000000000000000000000000600052604160045260246000fd5b6040519080825280602002602001820160405280156112c857816020015b60608152602001906001900390816112b35790505b50905060008367ffffffffffffffff81111561130d577f4e487b7100000000000000000000000000000000000000000000000000000000600052604160045260246000fd5b60405190808252806020026020018201604052801561133b5781602001602082028036833780820191505090505b50905060008467ffffffffffffffff811115611380577f4e487b7100000000000000000000000000000000000000000000000000000000600052604160045260246000fd5b6040519080825280602002602001820160405280156113ae5781602001602082028036833780820191505090505b50905060005b858110156118c8576000600860003373ffffffffffffffffffffffffffffffffffffffff1673ffffffffffffffffffffffffffffffffffffffff1681526020019081526020016000208281548110611435577f4e487b7100000000000000000000000000000000000000000000000000000000600052603260045260246000fd5b90600052602060002001805461144a90614397565b80601f016020809104026020016040519081016040528092919081815260200182805461147690614397565b80156114c35780601f10611498576101008083540402835291602001916114c3565b820191906000526020600020905b8154815290600101906020018083116114a657829003601f168201915b50505050509050600760003373ffffffffffffffffffffffffffffffffffffffff1673ffffffffffffffffffffffffffffffffffffffff168152602001908152602001600020816040516115179190613fe2565b9081526020016040518091039020600001805461153390614397565b80601f016020809104026020016040519081016040528092919081815260200182805461155f90614397565b80156115ac5780601f10611581576101008083540402835291602001916115ac565b820191906000526020600020905b81548152906001019060200180831161158f57829003601f168201915b50505050508683815181106115ea577f4e487b7100000000000000000000000000000000000000000000000000000000600052603260045260246000fd5b6020026020010181905250600760003373ffffffffffffffffffffffffffffffffffffffff1673ffffffffffffffffffffffffffffffffffffffff168152602001908152602001600020816040516116429190613fe2565b9081526020016040518091039020600101805461165e90614397565b80601f016020809104026020016040519081016040528092919081815260200182805461168a90614397565b80156116d75780601f106116ac576101008083540402835291602001916116d7565b820191906000526020600020905b8154815290600101906020018083116116ba57829003601f168201915b5050505050858381518110611715577f4e487b7100000000000000000000000000000000000000000000000000000000600052603260045260246000fd5b6020026020010181905250600760003373ffffffffffffffffffffffffffffffffffffffff1673ffffffffffffffffffffffffffffffffffffffff1681526020019081526020016000208160405161176d9190613fe2565b9081526020016040518091039020600201548483815181106117b8577f4e487b7100000000000000000000000000000000000000000000000000000000600052603260045260246000fd5b602002602001018181525050600760003373ffffffffffffffffffffffffffffffffffffffff1673ffffffffffffffffffffffffffffffffffffffff168152602001908152602001600020816040516118119190613fe2565b908152602001604051809103902060030160009054906101000a900473ffffffffffffffffffffffffffffffffffffffff1683838151811061187c577f4e487b7100000000000000000000000000000000000000000000000000000000600052603260045260246000fd5b602002602001019073ffffffffffffffffffffffffffffffffffffffff16908173ffffffffffffffffffffffffffffffffffffffff168152505050806118c1906143fa565b90506113b4565b50838383839850985098509850505050505090919293565b600115156009826040516118f49190613fe2565b908152602001604051809103902060009054906101000a900460ff16151514611952576040517f08c379a000000000000000000000000000000000000000000000000000000000815260040161194990614125565b60405180910390fd5b60001515600a60008473ffffffffffffffffffffffffffffffffffffffff1673ffffffffffffffffffffffffffffffffffffffff168152602001908152602001600020826040516119a39190613fe2565b908152602001604051809103902060009054906101000a900460ff16151514611a01576040517f08c379a00000000000000000000000000000000000000000000000000000000081526004016119f890614105565b60405180910390fd5b600080600080611a1085610cb4565b93509350935093503373ffffffffffffffffffffffffffffffffffffffff168173ffffffffffffffffffffffffffffffffffffffff1614611a86576040517f08c379a0000000000000000000000000000000000000000000000000000000008152600401611a7d90614165565b60405180910390fd5b600060405180608001604052808681526020018581526020018481526020018373ffffffffffffffffffffffffffffffffffffffff16815250905080600760008973ffffffffffffffffffffffffffffffffffffffff1673ffffffffffffffffffffffffffffffffffffffff16815260200190815260200160002087604051611b0f9190613fe2565b90815260200160405180910390206000820151816000019080519060200190611b39929190613a81565b506020820151816001019080519060200190611b56929190613a81565b506040820151816002015560608201518160030160006101000a81548173ffffffffffffffffffffffffffffffffffffffff021916908373ffffffffffffffffffffffffffffffffffffffff160217905550905050600860008873ffffffffffffffffffffffffffffffffffffffff1673ffffffffffffffffffffffffffffffffffffffff16815260200190815260200160002086908060018154018082558091505060019003906000526020600020016000909190919091509080519060200190611c23929190613a81565b506001600a60008973ffffffffffffffffffffffffffffffffffffffff1673ffffffffffffffffffffffffffffffffffffffff16815260200190815260200160002087604051611c739190613fe2565b908152602001604051809103902060006101000a81548160ff02191690831515021790555050505050505050565b6009818051602081018201805184825260208301602085012081835280955050505050506000915054906101000a900460ff1681565b6060806060806000600460003373ffffffffffffffffffffffffffffffffffffffff1673ffffffffffffffffffffffffffffffffffffffff16815260200190815260200160002080549050905060008167ffffffffffffffff811115611d66577f4e487b7100000000000000000000000000000000000000000000000000000000600052604160045260246000fd5b604051908082528060200260200182016040528015611d9957816020015b6060815260200190600190039081611d845790505b50905060008267ffffffffffffffff811115611dde577f4e487b7100000000000000000000000000000000000000000000000000000000600052604160045260246000fd5b604051908082528060200260200182016040528015611e1157816020015b6060815260200190600190039081611dfc5790505b50905060008367ffffffffffffffff811115611e56577f4e487b7100000000000000000000000000000000000000000000000000000000600052604160045260246000fd5b604051908082528060200260200182016040528015611e845781602001602082028036833780820191505090505b50905060008467ffffffffffffffff811115611ec9577f4e487b7100000000000000000000000000000000000000000000000000000000600052604160045260246000fd5b604051908082528060200260200182016040528015611ef75781602001602082028036833780820191505090505b50905060005b85811015612411576000600460003373ffffffffffffffffffffffffffffffffffffffff1673ffffffffffffffffffffffffffffffffffffffff1681526020019081526020016000208281548110611f7e577f4e487b7100000000000000000000000000000000000000000000000000000000600052603260045260246000fd5b906000526020600020018054611f9390614397565b80601f0160208091040260200160405190810160405280929190818152602001828054611fbf90614397565b801561200c5780601f10611fe15761010080835404028352916020019161200c565b820191906000526020600020905b815481529060010190602001808311611fef57829003601f168201915b50505050509050600360003373ffffffffffffffffffffffffffffffffffffffff1673ffffffffffffffffffffffffffffffffffffffff168152602001908152602001600020816040516120609190613fe2565b9081526020016040518091039020600001805461207c90614397565b80601f01602080910402602001604051908101604052809291908181526020018280546120a890614397565b80156120f55780601f106120ca576101008083540402835291602001916120f5565b820191906000526020600020905b8154815290600101906020018083116120d857829003601f168201915b5050505050868381518110612133577f4e487b7100000000000000000000000000000000000000000000000000000000600052603260045260246000fd5b6020026020010181905250600360003373ffffffffffffffffffffffffffffffffffffffff1673ffffffffffffffffffffffffffffffffffffffff1681526020019081526020016000208160405161218b9190613fe2565b908152602001604051809103902060010180546121a790614397565b80601f01602080910402602001604051908101604052809291908181526020018280546121d390614397565b80156122205780601f106121f557610100808354040283529160200191612220565b820191906000526020600020905b81548152906001019060200180831161220357829003601f168201915b505050505085838151811061225e577f4e487b7100000000000000000000000000000000000000000000000000000000600052603260045260246000fd5b6020026020010181905250600360003373ffffffffffffffffffffffffffffffffffffffff1673ffffffffffffffffffffffffffffffffffffffff168152602001908152602001600020816040516122b69190613fe2565b908152602001604051809103902060020154848381518110612301577f4e487b7100000000000000000000000000000000000000000000000000000000600052603260045260246000fd5b602002602001018181525050600360003373ffffffffffffffffffffffffffffffffffffffff1673ffffffffffffffffffffffffffffffffffffffff1681526020019081526020016000208160405161235a9190613fe2565b908152602001604051809103902060030160009054906101000a900473ffffffffffffffffffffffffffffffffffffffff168383815181106123c5577f4e487b7100000000000000000000000000000000000000000000000000000000600052603260045260246000fd5b602002602001019073ffffffffffffffffffffffffffffffffffffffff16908173ffffffffffffffffffffffffffffffffffffffff1681525050508061240a906143fa565b9050611efd565b50838383839850985098509850505050505090919293565b6003602052816000526040600020818051602081018201805184825260208301602085012081835280955050505050506000915091505080600001805461246f90614397565b80601f016020809104026020016040519081016040528092919081815260200182805461249b90614397565b80156124e85780601f106124bd576101008083540402835291602001916124e8565b820191906000526020600020905b8154815290600101906020018083116124cb57829003601f168201915b5050505050908060010180546124fd90614397565b80601f016020809104026020016040519081016040528092919081815260200182805461252990614397565b80156125765780601f1061254b57610100808354040283529160200191612576565b820191906000526020600020905b81548152906001019060200180831161255957829003601f168201915b5050505050908060020154908060030160009054906101000a900473ffffffffffffffffffffffffffffffffffffffff16905084565b60608060008060006002805490509050600060026001836125cd91906142d9565b81548110612604577f4e487b7100000000000000000000000000000000000000000000000000000000600052603260045260246000fd5b90600052602060002001805461261990614397565b80601f016020809104026020016040519081016040528092919081815260200182805461264590614397565b80156126925780601f1061266757610100808354040283529160200191612692565b820191906000526020600020905b81548152906001019060200180831161267557829003601f168201915b505050505090506001816040516126a99190613fe2565b90815260200160405180910390206000016001826040516126ca9190613fe2565b90815260200160405180910390206001016001836040516126eb9190613fe2565b90815260200160405180910390206002015460018460405161270d9190613fe2565b908152602001604051809103902060030160009054906101000a900473ffffffffffffffffffffffffffffffffffffffff1683805461274b90614397565b80601f016020809104026020016040519081016040528092919081815260200182805461277790614397565b80156127c45780601f10612799576101008083540402835291602001916127c4565b820191906000526020600020905b8154815290600101906020018083116127a757829003601f168201915b505050505093508280546127d790614397565b80601f016020809104026020016040519081016040528092919081815260200182805461280390614397565b80156128505780601f1061282557610100808354040283529160200191612850565b820191906000526020600020905b81548152906001019060200180831161283357829003601f168201915b505050505092509550955095509550505090919293565b6060806000806000600660003373ffffffffffffffffffffffffffffffffffffffff1673ffffffffffffffffffffffffffffffffffffffff1681526020019081526020016000208054905090506000600660003373ffffffffffffffffffffffffffffffffffffffff1673ffffffffffffffffffffffffffffffffffffffff16815260200190815260200160002060018361290291906142d9565b81548110612939577f4e487b7100000000000000000000000000000000000000000000000000000000600052603260045260246000fd5b90600052602060002001805461294e90614397565b80601f016020809104026020016040519081016040528092919081815260200182805461297a90614397565b80156129c75780601f1061299c576101008083540402835291602001916129c7565b820191906000526020600020905b8154815290600101906020018083116129aa57829003601f168201915b50505050509050600560003373ffffffffffffffffffffffffffffffffffffffff1673ffffffffffffffffffffffffffffffffffffffff16815260200190815260200160002081604051612a1b9190613fe2565b9081526020016040518091039020600001600560003373ffffffffffffffffffffffffffffffffffffffff1673ffffffffffffffffffffffffffffffffffffffff16815260200190815260200160002082604051612a799190613fe2565b9081526020016040518091039020600101600560003373ffffffffffffffffffffffffffffffffffffffff1673ffffffffffffffffffffffffffffffffffffffff16815260200190815260200160002083604051612ad79190613fe2565b908152602001604051809103902060020154600560003373ffffffffffffffffffffffffffffffffffffffff1673ffffffffffffffffffffffffffffffffffffffff16815260200190815260200160002084604051612b369190613fe2565b908152602001604051809103902060030160009054906101000a900473ffffffffffffffffffffffffffffffffffffffff16838054612b7490614397565b80601f0160208091040260200160405190810160405280929190818152602001828054612ba090614397565b8015612bed5780601f10612bc257610100808354040283529160200191612bed565b820191906000526020600020905b815481529060010190602001808311612bd057829003601f168201915b50505050509350828054612c0090614397565b80601f0160208091040260200160405190810160405280929190818152602001828054612c2c90614397565b8015612c795780601f10612c4e57610100808354040283529160200191612c79565b820191906000526020600020905b815481529060010190602001808311612c5c57829003601f168201915b505050505092509550955095509550505090919293565b600181805160208101820180518482526020830160208501208183528095505050505050600091509050806000018054612cc990614397565b80601f0160208091040260200160405190810160405280929190818152602001828054612cf590614397565b8015612d425780601f10612d1757610100808354040283529160200191612d42565b820191906000526020600020905b815481529060010190602001808311612d2557829003601f168201915b505050505090806001018054612d5790614397565b80601f0160208091040260200160405190810160405280929190818152602001828054612d8390614397565b8015612dd05780601f10612da557610100808354040283529160200191612dd0565b820191906000526020600020905b815481529060010190602001808311612db357829003601f168201915b5050505050908060020154908060030160009054906101000a900473ffffffffffffffffffffffffffffffffffffffff16905084565b6000600280549050905090565b60001515600983604051612e279190613fe2565b908152602001604051809103902060009054906101000a900460ff16151514612e85576040517f08c379a0000000000000000000000000000000000000000000000000000000008152600401612e7c90614145565b60405180910390fd5b600060405180608001604052808581526020018481526020014281526020013373ffffffffffffffffffffffffffffffffffffffff16815250905060018214156130315780600560003373ffffffffffffffffffffffffffffffffffffffff1673ffffffffffffffffffffffffffffffffffffffff16815260200190815260200160002084604051612f179190613fe2565b90815260200160405180910390206000820151816000019080519060200190612f41929190613a81565b506020820151816001019080519060200190612f5e929190613a81565b506040820151816002015560608201518160030160006101000a81548173ffffffffffffffffffffffffffffffffffffffff021916908373ffffffffffffffffffffffffffffffffffffffff160217905550905050600660003373ffffffffffffffffffffffffffffffffffffffff1673ffffffffffffffffffffffffffffffffffffffff1681526020019081526020016000208390806001815401808255809150506001900390600052602060002001600090919091909150908051906020019061302b929190613a81565b5061327e565b806001856040516130429190613fe2565b9081526020016040518091039020600082015181600001908051906020019061306c929190613a81565b506020820151816001019080519060200190613089929190613a81565b506040820151816002015560608201518160030160006101000a81548173ffffffffffffffffffffffffffffffffffffffff021916908373ffffffffffffffffffffffffffffffffffffffff160217905550905050600284908060018154018082558091505060019003906000526020600020016000909190919091509080519060200190613119929190613a81565b5080600360003373ffffffffffffffffffffffffffffffffffffffff1673ffffffffffffffffffffffffffffffffffffffff168152602001908152602001600020846040516131689190613fe2565b90815260200160405180910390206000820151816000019080519060200190613192929190613a81565b5060208201518160010190805190602001906131af929190613a81565b506040820151816002015560608201518160030160006101000a81548173ffffffffffffffffffffffffffffffffffffffff021916908373ffffffffffffffffffffffffffffffffffffffff160217905550905050600460003373ffffffffffffffffffffffffffffffffffffffff1673ffffffffffffffffffffffffffffffffffffffff1681526020019081526020016000208390806001815401808255809150506001900390600052602060002001600090919091909150908051906020019061327c929190613a81565b505b60016009846040516132909190613fe2565b908152602001604051809103902060006101000a81548160ff02191690831515021790555060016009856040516132c79190613fe2565b908152602001604051809103902060006101000a81548160ff0219169083151502179055507f23328c870127949cf845a05506d0fc9028a78b1fe34f9c4300f672ca306238c38484423360405161332194939291906140b2565b60405180910390a150505050565b6060806060806000600660003373ffffffffffffffffffffffffffffffffffffffff1673ffffffffffffffffffffffffffffffffffffffff16815260200190815260200160002080549050905060008167ffffffffffffffff8111156133be577f4e487b7100000000000000000000000000000000000000000000000000000000600052604160045260246000fd5b6040519080825280602002602001820160405280156133f157816020015b60608152602001906001900390816133dc5790505b50905060008267ffffffffffffffff811115613436577f4e487b7100000000000000000000000000000000000000000000000000000000600052604160045260246000fd5b60405190808252806020026020018201604052801561346957816020015b60608152602001906001900390816134545790505b50905060008367ffffffffffffffff8111156134ae577f4e487b7100000000000000000000000000000000000000000000000000000000600052604160045260246000fd5b6040519080825280602002602001820160405280156134dc5781602001602082028036833780820191505090505b50905060008467ffffffffffffffff811115613521577f4e487b7100000000000000000000000000000000000000000000000000000000600052604160045260246000fd5b60405190808252806020026020018201604052801561354f5781602001602082028036833780820191505090505b50905060005b85811015613a69576000600660003373ffffffffffffffffffffffffffffffffffffffff1673ffffffffffffffffffffffffffffffffffffffff16815260200190815260200160002082815481106135d6577f4e487b7100000000000000000000000000000000000000000000000000000000600052603260045260246000fd5b9060005260206000200180546135eb90614397565b80601f016020809104026020016040519081016040528092919081815260200182805461361790614397565b80156136645780601f1061363957610100808354040283529160200191613664565b820191906000526020600020905b81548152906001019060200180831161364757829003601f168201915b50505050509050600560003373ffffffffffffffffffffffffffffffffffffffff1673ffffffffffffffffffffffffffffffffffffffff168152602001908152602001600020816040516136b89190613fe2565b908152602001604051809103902060000180546136d490614397565b80601f016020809104026020016040519081016040528092919081815260200182805461370090614397565b801561374d5780601f106137225761010080835404028352916020019161374d565b820191906000526020600020905b81548152906001019060200180831161373057829003601f168201915b505050505086838151811061378b577f4e487b7100000000000000000000000000000000000000000000000000000000600052603260045260246000fd5b6020026020010181905250600560003373ffffffffffffffffffffffffffffffffffffffff1673ffffffffffffffffffffffffffffffffffffffff168152602001908152602001600020816040516137e39190613fe2565b908152602001604051809103902060010180546137ff90614397565b80601f016020809104026020016040519081016040528092919081815260200182805461382b90614397565b80156138785780601f1061384d57610100808354040283529160200191613878565b820191906000526020600020905b81548152906001019060200180831161385b57829003601f168201915b50505050508583815181106138b6577f4e487b7100000000000000000000000000000000000000000000000000000000600052603260045260246000fd5b6020026020010181905250600560003373ffffffffffffffffffffffffffffffffffffffff1673ffffffffffffffffffffffffffffffffffffffff1681526020019081526020016000208160405161390e9190613fe2565b908152602001604051809103902060020154848381518110613959577f4e487b7100000000000000000000000000000000000000000000000000000000600052603260045260246000fd5b602002602001018181525050600560003373ffffffffffffffffffffffffffffffffffffffff1673ffffffffffffffffffffffffffffffffffffffff168152602001908152602001600020816040516139b29190613fe2565b908152602001604051809103902060030160009054906101000a900473ffffffffffffffffffffffffffffffffffffffff16838381518110613a1d577f4e487b7100000000000000000000000000000000000000000000000000000000600052603260045260246000fd5b602002602001019073ffffffffffffffffffffffffffffffffffffffff16908173ffffffffffffffffffffffffffffffffffffffff16815250505080613a62906143fa565b9050613555565b50838383839850985098509850505050505090919293565b828054613a8d90614397565b90600052602060002090601f016020900481019282613aaf5760008555613af6565b82601f10613ac857805160ff1916838001178555613af6565b82800160010185558215613af6579182015b82811115613af5578251825591602001919060010190613ada565b5b509050613b039190613b07565b5090565b5b80821115613b20576000816000905550600101613b08565b5090565b6000613b37613b32846141c5565b6141a0565b905082815260208101848484011115613b4f57600080fd5b613b5a848285614355565b509392505050565b600081359050613b71816145f7565b92915050565b600082601f830112613b8857600080fd5b8135613b98848260208601613b24565b91505092915050565b600081359050613bb08161460e565b92915050565b60008060408385031215613bc957600080fd5b6000613bd785828601613b62565b925050602083013567ffffffffffffffff811115613bf457600080fd5b613c0085828601613b77565b9150509250929050565b600060208284031215613c1c57600080fd5b600082013567ffffffffffffffff811115613c3657600080fd5b613c4284828501613b77565b91505092915050565b600080600060608486031215613c6057600080fd5b600084013567ffffffffffffffff811115613c7a57600080fd5b613c8686828701613b77565b935050602084013567ffffffffffffffff811115613ca357600080fd5b613caf86828701613b77565b9250506040613cc086828701613ba1565b9150509250925092565b600060208284031215613cdc57600080fd5b6000613cea84828501613ba1565b91505092915050565b6000613cff8383613d37565b60208301905092915050565b6000613d178383613e95565b905092915050565b6000613d2b8383613fc4565b60208301905092915050565b613d408161430d565b82525050565b613d4f8161430d565b82525050565b6000613d6082614226565b613d6a8185614279565b9350613d75836141f6565b8060005b83811015613da6578151613d8d8882613cf3565b9750613d9883614252565b925050600181019050613d79565b5085935050505092915050565b6000613dbe82614231565b613dc8818561428a565b935083602082028501613dda85614206565b8060005b85811015613e165784840389528151613df78582613d0b565b9450613e028361425f565b925060208a01995050600181019050613dde565b50829750879550505050505092915050565b6000613e338261423c565b613e3d818561429b565b9350613e4883614216565b8060005b83811015613e79578151613e608882613d1f565b9750613e6b8361426c565b925050600181019050613e4c565b5085935050505092915050565b613e8f8161431f565b82525050565b6000613ea082614247565b613eaa81856142ac565b9350613eba818560208601614364565b613ec3816144d0565b840191505092915050565b6000613ed982614247565b613ee381856142bd565b9350613ef3818560208601614364565b613efc816144d0565b840191505092915050565b6000613f1282614247565b613f1c81856142ce565b9350613f2c818560208601614364565b80840191505092915050565b6000613f45602c836142bd565b9150613f50826144e1565b604082019050919050565b6000613f686013836142bd565b9150613f7382614530565b602082019050919050565b6000613f8b602b836142bd565b9150613f9682614559565b604082019050919050565b6000613fae6024836142bd565b9150613fb9826145a8565b604082019050919050565b613fcd8161434b565b82525050565b613fdc8161434b565b82525050565b6000613fee8284613f07565b915081905092915050565b600060208201905061400e6000830184613d46565b92915050565b6000608082019050818103600083015261402e8187613db3565b905081810360208301526140428186613db3565b905081810360408301526140568185613e28565b9050818103606083015261406a8184613d55565b905095945050505050565b600060208201905061408a6000830184613e86565b92915050565b600060208201905081810360008301526140aa8184613ece565b905092915050565b600060808201905081810360008301526140cc8187613ece565b905081810360208301526140e08186613ece565b90506140ef6040830185613fd3565b6140fc6060830184613d46565b95945050505050565b6000602082019050818103600083015261411e81613f38565b9050919050565b6000602082019050818103600083015261413e81613f5b565b9050919050565b6000602082019050818103600083015261415e81613f7e565b9050919050565b6000602082019050818103600083015261417e81613fa1565b9050919050565b600060208201905061419a6000830184613fd3565b92915050565b60006141aa6141bb565b90506141b682826143c9565b919050565b6000604051905090565b600067ffffffffffffffff8211156141e0576141df6144a1565b5b6141e9826144d0565b9050602081019050919050565b6000819050602082019050919050565b6000819050602082019050919050565b6000819050602082019050919050565b600081519050919050565b600081519050919050565b600081519050919050565b600081519050919050565b6000602082019050919050565b6000602082019050919050565b6000602082019050919050565b600082825260208201905092915050565b600082825260208201905092915050565b600082825260208201905092915050565b600082825260208201905092915050565b600082825260208201905092915050565b600081905092915050565b60006142e48261434b565b91506142ef8361434b565b92508282101561430257614301614443565b5b828203905092915050565b60006143188261432b565b9050919050565b60008115159050919050565b600073ffffffffffffffffffffffffffffffffffffffff82169050919050565b6000819050919050565b82818337600083830152505050565b60005b83811015614382578082015181840152602081019050614367565b83811115614391576000848401525b50505050565b600060028204905060018216806143af57607f821691505b602082108114156143c3576143c2614472565b5b50919050565b6143d2826144d0565b810181811067ffffffffffffffff821117156143f1576143f06144a1565b5b80604052505050565b60006144058261434b565b91507fffffffffffffffffffffffffffffffffffffffffffffffffffffffffffffffff82141561443857614437614443565b5b600182019050919050565b7f4e487b7100000000000000000000000000000000000000000000000000000000600052601160045260246000fd5b7f4e487b7100000000000000000000000000000000000000000000000000000000600052602260045260246000fd5b7f4e487b7100000000000000000000000000000000000000000000000000000000600052604160045260246000fd5b6000601f19601f8301169050919050565b7f46696c652068617320616c7265616479206265656e2073686172656420746f2060008201527f7468697320616464726573730000000000000000000000000000000000000000602082015250565b7f46696c6520646f6573206e6f7420657869737400000000000000000000000000600082015250565b7f46696c6520776974682074686973204e616d6520616c7265616479206578697360008201527f74732c2052656e616d652e000000000000000000000000000000000000000000602082015250565b7f46696c65207368617265206e6f7420617574686f72697a65642e204e6f74204f60008201527f776e657200000000000000000000000000000000000000000000000000000000602082015250565b6146008161430d565b811461460b57600080fd5b50565b6146178161434b565b811461462257600080fd5b5056fea2646970667358221220422168b3fc975709b7bf4db51ae9a0f41728148527a3afa60c6704ef537c1c2d64736f6c63430008040033",
  "linkReferences": {},
  "deployedLinkReferences": {}
}