{
  "_format": "hh-sol-artifact-1",
  "contractName": "DecentralizedLibrary",
  "sourceName": "contracts/DecentralizedLibrary.sol",
  "abi": [
    {
      "inputs": [],
      "stateMutability": "nonpayable",
      "type": "constructor"
    },
    {
      "anonymous": false,
      "inputs": [
        {
          "indexed": false,
          "internalType": "string",
          "name": "ipfsCID",
          "type": "string"
        },
        {
          "indexed": false,
          "internalType": "string",
          "name": "fileName",
          "type": "string"
        },
        {
          "indexed": false,
          "internalType": "uint256",
          "name": "timeUploaded",
          "type": "uint256"
        },
        {
          "indexed": false,
          "internalType": "address",
          "name": "fileOwner",
          "type": "address"
        }
      ],
      "name": "FileUploaded",
      "type": "event"
    },
    {
      "inputs": [
        {
          "internalType": "string",
          "name": "",
          "type": "string"
        }
      ],
      "name": "collection",
      "outputs": [
        {
          "internalType": "string",
          "name": "ipfsCID",
          "type": "string"
        },
        {
          "internalType": "string",
          "name": "fileName",
          "type": "string"
        },
        {
          "internalType": "uint256",
          "name": "timeUploaded",
          "type": "uint256"
        },
        {
          "internalType": "address",
          "name": "fileOwner",
          "type": "address"
        }
      ],
      "stateMutability": "view",
      "type": "function"
    },
    {
      "inputs": [
        {
          "internalType": "string",
          "name": "",
          "type": "string"
        }
      ],
      "name": "fileExists",
      "outputs": [
        {
          "internalType": "bool",
          "name": "",
          "type": "bool"
        }
      ],
      "stateMutability": "view",
      "type": "function"
    },
    {
      "inputs": [
        {
          "internalType": "string",
          "name": "_ipfsCID",
          "type": "string"
        },
        {
          "internalType": "string",
          "name": "_fileName",
          "type": "string"
        },
        {
          "internalType": "uint256",
          "name": "_uploadType",
          "type": "uint256"
        }
      ],
      "name": "fileUpload",
      "outputs": [],
      "stateMutability": "nonpayable",
      "type": "function"
    },
    {
      "inputs": [],
      "name": "getAllPrivateUploads",
      "outputs": [
        {
          "internalType": "string[]",
          "name": "",
          "type": "string[]"
        },
        {
          "internalType": "string[]",
          "name": "",
          "type": "string[]"
        },
        {
          "internalType": "uint256[]",
          "name": "",
          "type": "uint256[]"
        },
        {
          "internalType": "address[]",
          "name": "",
          "type": "address[]"
        }
      ],
      "stateMutability": "view",
      "type": "function"
    },
    {
      "inputs": [],
      "name": "getAllPublicUploads",
      "outputs": [
        {
          "internalType": "string[]",
          "name": "",
          "type": "string[]"
        },
        {
          "internalType": "string[]",
          "name": "",
          "type": "string[]"
        },
        {
          "internalType": "uint256[]",
          "name": "",
          "type": "uint256[]"
        },
        {
          "internalType": "address[]",
          "name": "",
          "type": "address[]"
        }
      ],
      "stateMutability": "view",
      "type": "function"
    },
    {
      "inputs": [],
      "name": "getLatestPrivateUpload",
      "outputs": [
        {
          "internalType": "string",
          "name": "",
          "type": "string"
        },
        {
          "internalType": "string",
          "name": "",
          "type": "string"
        },
        {
          "internalType": "uint256",
          "name": "",
          "type": "uint256"
        },
        {
          "internalType": "address",
          "name": "",
          "type": "address"
        }
      ],
      "stateMutability": "view",
      "type": "function"
    },
    {
      "inputs": [],
      "name": "getLatestPublicUpload",
      "outputs": [
        {
          "internalType": "string",
          "name": "",
          "type": "string"
        },
        {
          "internalType": "string",
          "name": "",
          "type": "string"
        },
        {
          "internalType": "uint256",
          "name": "",
          "type": "uint256"
        },
        {
          "internalType": "address",
          "name": "",
          "type": "address"
        }
      ],
      "stateMutability": "view",
      "type": "function"
    },
    {
      "inputs": [
        {
          "internalType": "string",
          "name": "_fileName",
          "type": "string"
        }
      ],
      "name": "getOnePrivateFile",
      "outputs": [
        {
          "internalType": "string",
          "name": "_ipfsCID",
          "type": "string"
        },
        {
          "internalType": "string",
          "name": "_filename",
          "type": "string"
        },
        {
          "internalType": "uint256",
          "name": "_timeUploaded",
          "type": "uint256"
        },
        {
          "internalType": "address",
          "name": "_fileOwner",
          "type": "address"
        }
      ],
      "stateMutability": "view",
      "type": "function"
    },
    {
      "inputs": [],
      "name": "getSize",
      "outputs": [
        {
          "internalType": "uint256",
          "name": "",
          "type": "uint256"
        }
      ],
      "stateMutability": "view",
      "type": "function"
    },
    {
      "inputs": [],
      "name": "getSizeOfPrivateUploads",
      "outputs": [
        {
          "internalType": "uint256",
          "name": "",
          "type": "uint256"
        }
      ],
      "stateMutability": "view",
      "type": "function"
    },
    {
      "inputs": [
        {
          "internalType": "uint256",
          "name": "",
          "type": "uint256"
        }
      ],
      "name": "keys",
      "outputs": [
        {
          "internalType": "string",
          "name": "",
          "type": "string"
        }
      ],
      "stateMutability": "view",
      "type": "function"
    },
    {
      "inputs": [],
      "name": "owner",
      "outputs": [
        {
          "internalType": "address",
          "name": "",
          "type": "address"
        }
      ],
      "stateMutability": "view",
      "type": "function"
    },
    {
      "inputs": [
        {
          "internalType": "address",
          "name": "",
          "type": "address"
        },
        {
          "internalType": "string",
          "name": "",
          "type": "string"
        }
      ],
      "name": "privateCollection",
      "outputs": [
        {
          "internalType": "string",
          "name": "ipfsCID",
          "type": "string"
        },
        {
          "internalType": "string",
          "name": "fileName",
          "type": "string"
        },
        {
          "internalType": "uint256",
          "name": "timeUploaded",
          "type": "uint256"
        },
        {
          "internalType": "address",
          "name": "fileOwner",
          "type": "address"
        }
      ],
      "stateMutability": "view",
      "type": "function"
    },
    {
      "inputs": [
        {
          "internalType": "address",
          "name": "_to",
          "type": "address"
        },
        {
          "internalType": "string",
          "name": "_fileName",
          "type": "string"
        }
      ],
      "name": "sharePrivateFile",
      "outputs": [],
      "stateMutability": "nonpayable",
      "type": "function"
    }
  ],
  "bytecode": "0x608060405234801561001057600080fd5b50336000806101000a81548173ffffffffffffffffffffffffffffffffffffffff021916908373ffffffffffffffffffffffffffffffffffffffff160217905550613149806100606000396000f3fe608060405234801561001057600080fd5b50600436106100ea5760003560e01c80639bccd6ad1161008c578063dc642f3011610066578063dc642f3014610270578063de8fa431146102a3578063e97da63b146102c1578063eaaa9ff2146102dd576100ea565b80639bccd6ad146101fe578063c19455d01461022e578063daaf618a1461024f576100ea565b80634d2bc142116100c85780634d2bc1421461015e5780635733cfd7146101915780638da5cb5b146101c4578063931eae1b146101e2576100ea565b80630cb6aaf1146100ef57806348e641c21461011f5780634c1986761461013d575b600080fd5b610109600480360381019061010491906127b8565b6102fe565b6040516101169190612b7e565b60405180910390f35b6101276103aa565b6040516101349190612c73565b60405180910390f35b6101456103f4565b6040516101559493929190612b02565b60405180910390f35b610178600480360381019061017391906126a4565b6109dd565b6040516101889493929190612ba0565b60405180910390f35b6101ab60048036038101906101a691906126f8565b610b60565b6040516101bb9493929190612ba0565b60405180910390f35b6101cc610e93565b6040516101d99190612ae7565b60405180910390f35b6101fc60048036038101906101f791906126a4565b610eb7565b005b610218600480360381019061021391906126f8565b611155565b6040516102259190612b63565b60405180910390f35b61023661118b565b6040516102469493929190612ba0565b60405180910390f35b610257611446565b6040516102679493929190612ba0565b60405180910390f35b61028a600480360381019061028591906126f8565b61186f565b60405161029a9493929190612ba0565b60405180910390f35b6102ab6119e5565b6040516102b89190612c73565b60405180910390f35b6102db60048036038101906102d69190612739565b6119f2565b005b6102e5611e1d565b6040516102f59493929190612b02565b60405180910390f35b6002818154811061030e57600080fd5b90600052602060002001600091509050805461032990612e85565b80601f016020809104026020016040519081016040528092919081815260200182805461035590612e85565b80156103a25780601f10610377576101008083540402835291602001916103a2565b820191906000526020600020905b81548152906001019060200180831161038557829003601f168201915b505050505081565b6000600460003373ffffffffffffffffffffffffffffffffffffffff1673ffffffffffffffffffffffffffffffffffffffff16815260200190815260200160002080549050905090565b6060806060806000600280549050905060008167ffffffffffffffff811115610446577f4e487b7100000000000000000000000000000000000000000000000000000000600052604160045260246000fd5b60405190808252806020026020018201604052801561047957816020015b60608152602001906001900390816104645790505b50905060008267ffffffffffffffff8111156104be577f4e487b7100000000000000000000000000000000000000000000000000000000600052604160045260246000fd5b6040519080825280602002602001820160405280156104f157816020015b60608152602001906001900390816104dc5790505b50905060008367ffffffffffffffff811115610536577f4e487b7100000000000000000000000000000000000000000000000000000000600052604160045260246000fd5b6040519080825280602002602001820160405280156105645781602001602082028036833780820191505090505b50905060008467ffffffffffffffff8111156105a9577f4e487b7100000000000000000000000000000000000000000000000000000000600052604160045260246000fd5b6040519080825280602002602001820160405280156105d75781602001602082028036833780820191505090505b50905060005b6002805490508110156109c557600060028281548110610626577f4e487b7100000000000000000000000000000000000000000000000000000000600052603260045260246000fd5b90600052602060002001805461063b90612e85565b80601f016020809104026020016040519081016040528092919081815260200182805461066790612e85565b80156106b45780601f10610689576101008083540402835291602001916106b4565b820191906000526020600020905b81548152906001019060200180831161069757829003601f168201915b505050505090506001816040516106cb9190612ad0565b908152602001604051809103902060000180546106e790612e85565b80601f016020809104026020016040519081016040528092919081815260200182805461071390612e85565b80156107605780601f1061073557610100808354040283529160200191610760565b820191906000526020600020905b81548152906001019060200180831161074357829003601f168201915b505050505086838151811061079e577f4e487b7100000000000000000000000000000000000000000000000000000000600052603260045260246000fd5b60200260200101819052506001816040516107b99190612ad0565b908152602001604051809103902060010180546107d590612e85565b80601f016020809104026020016040519081016040528092919081815260200182805461080190612e85565b801561084e5780601f106108235761010080835404028352916020019161084e565b820191906000526020600020905b81548152906001019060200180831161083157829003601f168201915b505050505085838151811061088c577f4e487b7100000000000000000000000000000000000000000000000000000000600052603260045260246000fd5b60200260200101819052506001816040516108a79190612ad0565b9081526020016040518091039020600201548483815181106108f2577f4e487b7100000000000000000000000000000000000000000000000000000000600052603260045260246000fd5b60200260200101818152505060018160405161090e9190612ad0565b908152602001604051809103902060030160009054906101000a900473ffffffffffffffffffffffffffffffffffffffff16838381518110610979577f4e487b7100000000000000000000000000000000000000000000000000000000600052603260045260246000fd5b602002602001019073ffffffffffffffffffffffffffffffffffffffff16908173ffffffffffffffffffffffffffffffffffffffff168152505050806109be90612ee8565b90506105dd565b50838383839850985098509850505050505090919293565b60036020528160005260406000208180516020810182018051848252602083016020850120818352809550505050505060009150915050806000018054610a2390612e85565b80601f0160208091040260200160405190810160405280929190818152602001828054610a4f90612e85565b8015610a9c5780601f10610a7157610100808354040283529160200191610a9c565b820191906000526020600020905b815481529060010190602001808311610a7f57829003601f168201915b505050505090806001018054610ab190612e85565b80601f0160208091040260200160405190810160405280929190818152602001828054610add90612e85565b8015610b2a5780601f10610aff57610100808354040283529160200191610b2a565b820191906000526020600020905b815481529060010190602001808311610b0d57829003601f168201915b5050505050908060020154908060030160009054906101000a900473ffffffffffffffffffffffffffffffffffffffff16905084565b60608060008060011515600586604051610b7a9190612ad0565b908152602001604051809103902060009054906101000a900460ff16151514610bd8576040517f08c379a0000000000000000000000000000000000000000000000000000000008152600401610bcf90612c13565b60405180910390fd5b600360003373ffffffffffffffffffffffffffffffffffffffff1673ffffffffffffffffffffffffffffffffffffffff16815260200190815260200160002085604051610c259190612ad0565b90815260200160405180910390206000018054610c4190612e85565b80601f0160208091040260200160405190810160405280929190818152602001828054610c6d90612e85565b8015610cba5780601f10610c8f57610100808354040283529160200191610cba565b820191906000526020600020905b815481529060010190602001808311610c9d57829003601f168201915b50505050509350600360003373ffffffffffffffffffffffffffffffffffffffff1673ffffffffffffffffffffffffffffffffffffffff16815260200190815260200160002085604051610d0e9190612ad0565b90815260200160405180910390206001018054610d2a90612e85565b80601f0160208091040260200160405190810160405280929190818152602001828054610d5690612e85565b8015610da35780601f10610d7857610100808354040283529160200191610da3565b820191906000526020600020905b815481529060010190602001808311610d8657829003601f168201915b50505050509250600360003373ffffffffffffffffffffffffffffffffffffffff1673ffffffffffffffffffffffffffffffffffffffff16815260200190815260200160002085604051610df79190612ad0565b9081526020016040518091039020600201549150600360003373ffffffffffffffffffffffffffffffffffffffff1673ffffffffffffffffffffffffffffffffffffffff16815260200190815260200160002085604051610e589190612ad0565b908152602001604051809103902060030160009054906101000a900473ffffffffffffffffffffffffffffffffffffffff1690509193509193565b60008054906101000a900473ffffffffffffffffffffffffffffffffffffffff1681565b60011515600582604051610ecb9190612ad0565b908152602001604051809103902060009054906101000a900460ff16151514610f29576040517f08c379a0000000000000000000000000000000000000000000000000000000008152600401610f2090612c13565b60405180910390fd5b600080600080610f3885610b60565b93509350935093503373ffffffffffffffffffffffffffffffffffffffff168173ffffffffffffffffffffffffffffffffffffffff1614610fae576040517f08c379a0000000000000000000000000000000000000000000000000000000008152600401610fa590612c53565b60405180910390fd5b600060405180608001604052808681526020018581526020018481526020018373ffffffffffffffffffffffffffffffffffffffff16815250905080600360008973ffffffffffffffffffffffffffffffffffffffff1673ffffffffffffffffffffffffffffffffffffffff168152602001908152602001600020876040516110379190612ad0565b9081526020016040518091039020600082015181600001908051906020019061106192919061256f565b50602082015181600101908051906020019061107e92919061256f565b506040820151816002015560608201518160030160006101000a81548173ffffffffffffffffffffffffffffffffffffffff021916908373ffffffffffffffffffffffffffffffffffffffff160217905550905050600460008873ffffffffffffffffffffffffffffffffffffffff1673ffffffffffffffffffffffffffffffffffffffff1681526020019081526020016000208690806001815401808255809150506001900390600052602060002001600090919091909150908051906020019061114b92919061256f565b5050505050505050565b6005818051602081018201805184825260208301602085012081835280955050505050506000915054906101000a900460ff1681565b60608060008060006002805490509050600060026001836111ac9190612dc7565b815481106111e3577f4e487b7100000000000000000000000000000000000000000000000000000000600052603260045260246000fd5b9060005260206000200180546111f890612e85565b80601f016020809104026020016040519081016040528092919081815260200182805461122490612e85565b80156112715780601f1061124657610100808354040283529160200191611271565b820191906000526020600020905b81548152906001019060200180831161125457829003601f168201915b505050505090506001816040516112889190612ad0565b90815260200160405180910390206000016001826040516112a99190612ad0565b90815260200160405180910390206001016001836040516112ca9190612ad0565b9081526020016040518091039020600201546001846040516112ec9190612ad0565b908152602001604051809103902060030160009054906101000a900473ffffffffffffffffffffffffffffffffffffffff1683805461132a90612e85565b80601f016020809104026020016040519081016040528092919081815260200182805461135690612e85565b80156113a35780601f10611378576101008083540402835291602001916113a3565b820191906000526020600020905b81548152906001019060200180831161138657829003601f168201915b505050505093508280546113b690612e85565b80601f01602080910402602001604051908101604052809291908181526020018280546113e290612e85565b801561142f5780601f106114045761010080835404028352916020019161142f565b820191906000526020600020905b81548152906001019060200180831161141257829003601f168201915b505050505092509550955095509550505090919293565b6060806000806000600460003373ffffffffffffffffffffffffffffffffffffffff1673ffffffffffffffffffffffffffffffffffffffff1681526020019081526020016000208054905090506000600460003373ffffffffffffffffffffffffffffffffffffffff1673ffffffffffffffffffffffffffffffffffffffff1681526020019081526020016000206001836114e19190612dc7565b81548110611518577f4e487b7100000000000000000000000000000000000000000000000000000000600052603260045260246000fd5b90600052602060002001805461152d90612e85565b80601f016020809104026020016040519081016040528092919081815260200182805461155990612e85565b80156115a65780601f1061157b576101008083540402835291602001916115a6565b820191906000526020600020905b81548152906001019060200180831161158957829003601f168201915b50505050509050600360003373ffffffffffffffffffffffffffffffffffffffff1673ffffffffffffffffffffffffffffffffffffffff168152602001908152602001600020816040516115fa9190612ad0565b9081526020016040518091039020600001600360003373ffffffffffffffffffffffffffffffffffffffff1673ffffffffffffffffffffffffffffffffffffffff168152602001908152602001600020826040516116589190612ad0565b9081526020016040518091039020600101600360003373ffffffffffffffffffffffffffffffffffffffff1673ffffffffffffffffffffffffffffffffffffffff168152602001908152602001600020836040516116b69190612ad0565b908152602001604051809103902060020154600360003373ffffffffffffffffffffffffffffffffffffffff1673ffffffffffffffffffffffffffffffffffffffff168152602001908152602001600020846040516117159190612ad0565b908152602001604051809103902060030160009054906101000a900473ffffffffffffffffffffffffffffffffffffffff1683805461175390612e85565b80601f016020809104026020016040519081016040528092919081815260200182805461177f90612e85565b80156117cc5780601f106117a1576101008083540402835291602001916117cc565b820191906000526020600020905b8154815290600101906020018083116117af57829003601f168201915b505050505093508280546117df90612e85565b80601f016020809104026020016040519081016040528092919081815260200182805461180b90612e85565b80156118585780601f1061182d57610100808354040283529160200191611858565b820191906000526020600020905b81548152906001019060200180831161183b57829003601f168201915b505050505092509550955095509550505090919293565b6001818051602081018201805184825260208301602085012081835280955050505050506000915090508060000180546118a890612e85565b80601f01602080910402602001604051908101604052809291908181526020018280546118d490612e85565b80156119215780601f106118f657610100808354040283529160200191611921565b820191906000526020600020905b81548152906001019060200180831161190457829003601f168201915b50505050509080600101805461193690612e85565b80601f016020809104026020016040519081016040528092919081815260200182805461196290612e85565b80156119af5780601f10611984576101008083540402835291602001916119af565b820191906000526020600020905b81548152906001019060200180831161199257829003601f168201915b5050505050908060020154908060030160009054906101000a900473ffffffffffffffffffffffffffffffffffffffff16905084565b6000600280549050905090565b60001515600584604051611a069190612ad0565b908152602001604051809103902060009054906101000a900460ff16151514611a64576040517f08c379a0000000000000000000000000000000000000000000000000000000008152600401611a5b90612bf3565b60405180910390fd5b60001515600583604051611a789190612ad0565b908152602001604051809103902060009054906101000a900460ff16151514611ad6576040517f08c379a0000000000000000000000000000000000000000000000000000000008152600401611acd90612c33565b60405180910390fd5b600060405180608001604052808581526020018481526020014281526020013373ffffffffffffffffffffffffffffffffffffffff1681525090506001821415611c825780600360003373ffffffffffffffffffffffffffffffffffffffff1673ffffffffffffffffffffffffffffffffffffffff16815260200190815260200160002084604051611b689190612ad0565b90815260200160405180910390206000820151816000019080519060200190611b9292919061256f565b506020820151816001019080519060200190611baf92919061256f565b506040820151816002015560608201518160030160006101000a81548173ffffffffffffffffffffffffffffffffffffffff021916908373ffffffffffffffffffffffffffffffffffffffff160217905550905050600460003373ffffffffffffffffffffffffffffffffffffffff1673ffffffffffffffffffffffffffffffffffffffff16815260200190815260200160002083908060018154018082558091505060019003906000526020600020016000909190919091509080519060200190611c7c92919061256f565b50611d6c565b80600185604051611c939190612ad0565b90815260200160405180910390206000820151816000019080519060200190611cbd92919061256f565b506020820151816001019080519060200190611cda92919061256f565b506040820151816002015560608201518160030160006101000a81548173ffffffffffffffffffffffffffffffffffffffff021916908373ffffffffffffffffffffffffffffffffffffffff160217905550905050600284908060018154018082558091505060019003906000526020600020016000909190919091509080519060200190611d6a92919061256f565b505b6001600584604051611d7e9190612ad0565b908152602001604051809103902060006101000a81548160ff0219169083151502179055506001600585604051611db59190612ad0565b908152602001604051809103902060006101000a81548160ff0219169083151502179055507f23328c870127949cf845a05506d0fc9028a78b1fe34f9c4300f672ca306238c384844233604051611e0f9493929190612ba0565b60405180910390a150505050565b6060806060806000600460003373ffffffffffffffffffffffffffffffffffffffff1673ffffffffffffffffffffffffffffffffffffffff16815260200190815260200160002080549050905060008167ffffffffffffffff811115611eac577f4e487b7100000000000000000000000000000000000000000000000000000000600052604160045260246000fd5b604051908082528060200260200182016040528015611edf57816020015b6060815260200190600190039081611eca5790505b50905060008267ffffffffffffffff811115611f24577f4e487b7100000000000000000000000000000000000000000000000000000000600052604160045260246000fd5b604051908082528060200260200182016040528015611f5757816020015b6060815260200190600190039081611f425790505b50905060008367ffffffffffffffff811115611f9c577f4e487b7100000000000000000000000000000000000000000000000000000000600052604160045260246000fd5b604051908082528060200260200182016040528015611fca5781602001602082028036833780820191505090505b50905060008467ffffffffffffffff81111561200f577f4e487b7100000000000000000000000000000000000000000000000000000000600052604160045260246000fd5b60405190808252806020026020018201604052801561203d5781602001602082028036833780820191505090505b50905060005b85811015612557576000600460003373ffffffffffffffffffffffffffffffffffffffff1673ffffffffffffffffffffffffffffffffffffffff16815260200190815260200160002082815481106120c4577f4e487b7100000000000000000000000000000000000000000000000000000000600052603260045260246000fd5b9060005260206000200180546120d990612e85565b80601f016020809104026020016040519081016040528092919081815260200182805461210590612e85565b80156121525780601f1061212757610100808354040283529160200191612152565b820191906000526020600020905b81548152906001019060200180831161213557829003601f168201915b50505050509050600360003373ffffffffffffffffffffffffffffffffffffffff1673ffffffffffffffffffffffffffffffffffffffff168152602001908152602001600020816040516121a69190612ad0565b908152602001604051809103902060000180546121c290612e85565b80601f01602080910402602001604051908101604052809291908181526020018280546121ee90612e85565b801561223b5780601f106122105761010080835404028352916020019161223b565b820191906000526020600020905b81548152906001019060200180831161221e57829003601f168201915b5050505050868381518110612279577f4e487b7100000000000000000000000000000000000000000000000000000000600052603260045260246000fd5b6020026020010181905250600360003373ffffffffffffffffffffffffffffffffffffffff1673ffffffffffffffffffffffffffffffffffffffff168152602001908152602001600020816040516122d19190612ad0565b908152602001604051809103902060010180546122ed90612e85565b80601f016020809104026020016040519081016040528092919081815260200182805461231990612e85565b80156123665780601f1061233b57610100808354040283529160200191612366565b820191906000526020600020905b81548152906001019060200180831161234957829003601f168201915b50505050508583815181106123a4577f4e487b7100000000000000000000000000000000000000000000000000000000600052603260045260246000fd5b6020026020010181905250600360003373ffffffffffffffffffffffffffffffffffffffff1673ffffffffffffffffffffffffffffffffffffffff168152602001908152602001600020816040516123fc9190612ad0565b908152602001604051809103902060020154848381518110612447577f4e487b7100000000000000000000000000000000000000000000000000000000600052603260045260246000fd5b602002602001018181525050600360003373ffffffffffffffffffffffffffffffffffffffff1673ffffffffffffffffffffffffffffffffffffffff168152602001908152602001600020816040516124a09190612ad0565b908152602001604051809103902060030160009054906101000a900473ffffffffffffffffffffffffffffffffffffffff1683838151811061250b577f4e487b7100000000000000000000000000000000000000000000000000000000600052603260045260246000fd5b602002602001019073ffffffffffffffffffffffffffffffffffffffff16908173ffffffffffffffffffffffffffffffffffffffff1681525050508061255090612ee8565b9050612043565b50838383839850985098509850505050505090919293565b82805461257b90612e85565b90600052602060002090601f01602090048101928261259d57600085556125e4565b82601f106125b657805160ff19168380011785556125e4565b828001600101855582156125e4579182015b828111156125e35782518255916020019190600101906125c8565b5b5090506125f191906125f5565b5090565b5b8082111561260e5760008160009055506001016125f6565b5090565b600061262561262084612cb3565b612c8e565b90508281526020810184848401111561263d57600080fd5b612648848285612e43565b509392505050565b60008135905061265f816130e5565b92915050565b600082601f83011261267657600080fd5b8135612686848260208601612612565b91505092915050565b60008135905061269e816130fc565b92915050565b600080604083850312156126b757600080fd5b60006126c585828601612650565b925050602083013567ffffffffffffffff8111156126e257600080fd5b6126ee85828601612665565b9150509250929050565b60006020828403121561270a57600080fd5b600082013567ffffffffffffffff81111561272457600080fd5b61273084828501612665565b91505092915050565b60008060006060848603121561274e57600080fd5b600084013567ffffffffffffffff81111561276857600080fd5b61277486828701612665565b935050602084013567ffffffffffffffff81111561279157600080fd5b61279d86828701612665565b92505060406127ae8682870161268f565b9150509250925092565b6000602082840312156127ca57600080fd5b60006127d88482850161268f565b91505092915050565b60006127ed8383612825565b60208301905092915050565b60006128058383612983565b905092915050565b60006128198383612ab2565b60208301905092915050565b61282e81612dfb565b82525050565b61283d81612dfb565b82525050565b600061284e82612d14565b6128588185612d67565b935061286383612ce4565b8060005b8381101561289457815161287b88826127e1565b975061288683612d40565b925050600181019050612867565b5085935050505092915050565b60006128ac82612d1f565b6128b68185612d78565b9350836020820285016128c885612cf4565b8060005b8581101561290457848403895281516128e585826127f9565b94506128f083612d4d565b925060208a019950506001810190506128cc565b50829750879550505050505092915050565b600061292182612d2a565b61292b8185612d89565b935061293683612d04565b8060005b8381101561296757815161294e888261280d565b975061295983612d5a565b92505060018101905061293a565b5085935050505092915050565b61297d81612e0d565b82525050565b600061298e82612d35565b6129988185612d9a565b93506129a8818560208601612e52565b6129b181612fbe565b840191505092915050565b60006129c782612d35565b6129d18185612dab565b93506129e1818560208601612e52565b6129ea81612fbe565b840191505092915050565b6000612a0082612d35565b612a0a8185612dbc565b9350612a1a818560208601612e52565b80840191505092915050565b6000612a33602283612dab565b9150612a3e82612fcf565b604082019050919050565b6000612a56601383612dab565b9150612a618261301e565b602082019050919050565b6000612a79602b83612dab565b9150612a8482613047565b604082019050919050565b6000612a9c602483612dab565b9150612aa782613096565b604082019050919050565b612abb81612e39565b82525050565b612aca81612e39565b82525050565b6000612adc82846129f5565b915081905092915050565b6000602082019050612afc6000830184612834565b92915050565b60006080820190508181036000830152612b1c81876128a1565b90508181036020830152612b3081866128a1565b90508181036040830152612b448185612916565b90508181036060830152612b588184612843565b905095945050505050565b6000602082019050612b786000830184612974565b92915050565b60006020820190508181036000830152612b9881846129bc565b905092915050565b60006080820190508181036000830152612bba81876129bc565b90508181036020830152612bce81866129bc565b9050612bdd6040830185612ac1565b612bea6060830184612834565b95945050505050565b60006020820190508181036000830152612c0c81612a26565b9050919050565b60006020820190508181036000830152612c2c81612a49565b9050919050565b60006020820190508181036000830152612c4c81612a6c565b9050919050565b60006020820190508181036000830152612c6c81612a8f565b9050919050565b6000602082019050612c886000830184612ac1565b92915050565b6000612c98612ca9565b9050612ca48282612eb7565b919050565b6000604051905090565b600067ffffffffffffffff821115612cce57612ccd612f8f565b5b612cd782612fbe565b9050602081019050919050565b6000819050602082019050919050565b6000819050602082019050919050565b6000819050602082019050919050565b600081519050919050565b600081519050919050565b600081519050919050565b600081519050919050565b6000602082019050919050565b6000602082019050919050565b6000602082019050919050565b600082825260208201905092915050565b600082825260208201905092915050565b600082825260208201905092915050565b600082825260208201905092915050565b600082825260208201905092915050565b600081905092915050565b6000612dd282612e39565b9150612ddd83612e39565b925082821015612df057612def612f31565b5b828203905092915050565b6000612e0682612e19565b9050919050565b60008115159050919050565b600073ffffffffffffffffffffffffffffffffffffffff82169050919050565b6000819050919050565b82818337600083830152505050565b60005b83811015612e70578082015181840152602081019050612e55565b83811115612e7f576000848401525b50505050565b60006002820490506001821680612e9d57607f821691505b60208210811415612eb157612eb0612f60565b5b50919050565b612ec082612fbe565b810181811067ffffffffffffffff82111715612edf57612ede612f8f565b5b80604052505050565b6000612ef382612e39565b91507fffffffffffffffffffffffffffffffffffffffffffffffffffffffffffffffff821415612f2657612f25612f31565b5b600182019050919050565b7f4e487b7100000000000000000000000000000000000000000000000000000000600052601160045260246000fd5b7f4e487b7100000000000000000000000000000000000000000000000000000000600052602260045260246000fd5b7f4e487b7100000000000000000000000000000000000000000000000000000000600052604160045260246000fd5b6000601f19601f8301169050919050565b7f46696c65207769746820746869732043494420616c726561647920657869737460008201527f732e000000000000000000000000000000000000000000000000000000000000602082015250565b7f46696c6520646f6573206e6f7420657869737400000000000000000000000000600082015250565b7f46696c6520776974682074686973204e616d6520616c7265616479206578697360008201527f74732c2052656e616d652e000000000000000000000000000000000000000000602082015250565b7f46696c65207368617265206e6f7420617574686f72697a65642e204e6f74204f60008201527f776e657200000000000000000000000000000000000000000000000000000000602082015250565b6130ee81612dfb565b81146130f957600080fd5b50565b61310581612e39565b811461311057600080fd5b5056fea26469706673582212201a5dee94768ddc3844d3b9d78f24c2b2169c2f5f6ef09168970429c524b0ebe364736f6c63430008040033",
  "linkReferences": {},
  "deployedLinkReferences": {}
}