{
  "_format": "hh-sol-artifact-1",
  "contractName": "DecentralizedLibrary",
  "sourceName": "contracts/DecentralizedLibrary.sol",
  "abi": [
    {
      "inputs": [],
      "stateMutability": "nonpayable",
      "type": "constructor"
    },
    {
      "anonymous": false,
      "inputs": [
        {
          "indexed": false,
          "internalType": "string",
          "name": "ipfsCID",
          "type": "string"
        },
        {
          "indexed": false,
          "internalType": "string",
          "name": "fileName",
          "type": "string"
        },
        {
          "indexed": false,
          "internalType": "uint256",
          "name": "timeUploaded",
          "type": "uint256"
        },
        {
          "indexed": false,
          "internalType": "address",
          "name": "fileOwner",
          "type": "address"
        }
      ],
      "name": "FileUploaded",
      "type": "event"
    },
    {
      "inputs": [
        {
          "internalType": "string",
          "name": "",
          "type": "string"
        }
      ],
      "name": "collection",
      "outputs": [
        {
          "internalType": "string",
          "name": "ipfsCID",
          "type": "string"
        },
        {
          "internalType": "string",
          "name": "fileName",
          "type": "string"
        },
        {
          "internalType": "uint256",
          "name": "timeUploaded",
          "type": "uint256"
        },
        {
          "internalType": "address",
          "name": "fileOwner",
          "type": "address"
        }
      ],
      "stateMutability": "view",
      "type": "function"
    },
    {
      "inputs": [
        {
          "internalType": "string",
          "name": "",
          "type": "string"
        }
      ],
      "name": "fileExists",
      "outputs": [
        {
          "internalType": "bool",
          "name": "",
          "type": "bool"
        }
      ],
      "stateMutability": "view",
      "type": "function"
    },
    {
      "inputs": [
        {
          "internalType": "string",
          "name": "_ipfsCID",
          "type": "string"
        },
        {
          "internalType": "string",
          "name": "_fileName",
          "type": "string"
        },
        {
          "internalType": "uint256",
          "name": "_uploadType",
          "type": "uint256"
        }
      ],
      "name": "fileUpload",
      "outputs": [],
      "stateMutability": "nonpayable",
      "type": "function"
    },
    {
      "inputs": [],
      "name": "getAllPrivateUploads",
      "outputs": [
        {
          "internalType": "string[]",
          "name": "",
          "type": "string[]"
        },
        {
          "internalType": "string[]",
          "name": "",
          "type": "string[]"
        },
        {
          "internalType": "uint256[]",
          "name": "",
          "type": "uint256[]"
        },
        {
          "internalType": "address[]",
          "name": "",
          "type": "address[]"
        }
      ],
      "stateMutability": "view",
      "type": "function"
    },
    {
      "inputs": [],
      "name": "getAllPublicUploads",
      "outputs": [
        {
          "internalType": "string[]",
          "name": "",
          "type": "string[]"
        },
        {
          "internalType": "string[]",
          "name": "",
          "type": "string[]"
        },
        {
          "internalType": "uint256[]",
          "name": "",
          "type": "uint256[]"
        },
        {
          "internalType": "address[]",
          "name": "",
          "type": "address[]"
        }
      ],
      "stateMutability": "view",
      "type": "function"
    },
    {
      "inputs": [],
      "name": "getLatestPrivateUpload",
      "outputs": [
        {
          "internalType": "string",
          "name": "",
          "type": "string"
        },
        {
          "internalType": "string",
          "name": "",
          "type": "string"
        },
        {
          "internalType": "uint256",
          "name": "",
          "type": "uint256"
        },
        {
          "internalType": "address",
          "name": "",
          "type": "address"
        }
      ],
      "stateMutability": "view",
      "type": "function"
    },
    {
      "inputs": [],
      "name": "getLatestPublicUpload",
      "outputs": [
        {
          "internalType": "string",
          "name": "",
          "type": "string"
        },
        {
          "internalType": "string",
          "name": "",
          "type": "string"
        },
        {
          "internalType": "uint256",
          "name": "",
          "type": "uint256"
        },
        {
          "internalType": "address",
          "name": "",
          "type": "address"
        }
      ],
      "stateMutability": "view",
      "type": "function"
    },
    {
      "inputs": [
        {
          "internalType": "string",
          "name": "_fileName",
          "type": "string"
        }
      ],
      "name": "getOnePrivateFile",
      "outputs": [
        {
          "internalType": "string",
          "name": "_ipfsCID",
          "type": "string"
        },
        {
          "internalType": "string",
          "name": "_filename",
          "type": "string"
        },
        {
          "internalType": "uint256",
          "name": "_timeUploaded",
          "type": "uint256"
        },
        {
          "internalType": "address",
          "name": "_fileOwner",
          "type": "address"
        }
      ],
      "stateMutability": "view",
      "type": "function"
    },
    {
      "inputs": [],
      "name": "getSharedFiles",
      "outputs": [
        {
          "internalType": "string[]",
          "name": "",
          "type": "string[]"
        },
        {
          "internalType": "string[]",
          "name": "",
          "type": "string[]"
        },
        {
          "internalType": "uint256[]",
          "name": "",
          "type": "uint256[]"
        },
        {
          "internalType": "address[]",
          "name": "",
          "type": "address[]"
        }
      ],
      "stateMutability": "view",
      "type": "function"
    },
    {
      "inputs": [],
      "name": "getSize",
      "outputs": [
        {
          "internalType": "uint256",
          "name": "",
          "type": "uint256"
        }
      ],
      "stateMutability": "view",
      "type": "function"
    },
    {
      "inputs": [],
      "name": "getSizeOfPrivateUploads",
      "outputs": [
        {
          "internalType": "uint256",
          "name": "",
          "type": "uint256"
        }
      ],
      "stateMutability": "view",
      "type": "function"
    },
    {
      "inputs": [
        {
          "internalType": "uint256",
          "name": "",
          "type": "uint256"
        }
      ],
      "name": "keys",
      "outputs": [
        {
          "internalType": "string",
          "name": "",
          "type": "string"
        }
      ],
      "stateMutability": "view",
      "type": "function"
    },
    {
      "inputs": [],
      "name": "owner",
      "outputs": [
        {
          "internalType": "address",
          "name": "",
          "type": "address"
        }
      ],
      "stateMutability": "view",
      "type": "function"
    },
    {
      "inputs": [
        {
          "internalType": "address",
          "name": "",
          "type": "address"
        },
        {
          "internalType": "string",
          "name": "",
          "type": "string"
        }
      ],
      "name": "privateCollection",
      "outputs": [
        {
          "internalType": "string",
          "name": "ipfsCID",
          "type": "string"
        },
        {
          "internalType": "string",
          "name": "fileName",
          "type": "string"
        },
        {
          "internalType": "uint256",
          "name": "timeUploaded",
          "type": "uint256"
        },
        {
          "internalType": "address",
          "name": "fileOwner",
          "type": "address"
        }
      ],
      "stateMutability": "view",
      "type": "function"
    },
    {
      "inputs": [
        {
          "internalType": "address",
          "name": "_to",
          "type": "address"
        },
        {
          "internalType": "string",
          "name": "_fileName",
          "type": "string"
        }
      ],
      "name": "sharePrivateFile",
      "outputs": [],
      "stateMutability": "nonpayable",
      "type": "function"
    },
    {
      "inputs": [
        {
          "internalType": "uint256",
          "name": "",
          "type": "uint256"
        }
      ],
      "name": "sharedAccess",
      "outputs": [
        {
          "internalType": "address",
          "name": "",
          "type": "address"
        }
      ],
      "stateMutability": "view",
      "type": "function"
    },
    {
      "inputs": [
        {
          "internalType": "address",
          "name": "",
          "type": "address"
        },
        {
          "internalType": "string",
          "name": "",
          "type": "string"
        }
      ],
      "name": "sharedCollection",
      "outputs": [
        {
          "internalType": "string",
          "name": "ipfsCID",
          "type": "string"
        },
        {
          "internalType": "string",
          "name": "fileName",
          "type": "string"
        },
        {
          "internalType": "uint256",
          "name": "timeUploaded",
          "type": "uint256"
        },
        {
          "internalType": "address",
          "name": "fileOwner",
          "type": "address"
        }
      ],
      "stateMutability": "view",
      "type": "function"
    }
  ],
  "bytecode": "0x608060405234801561001057600080fd5b50336000806101000a81548173ffffffffffffffffffffffffffffffffffffffff021916908373ffffffffffffffffffffffffffffffffffffffff160217905550613a61806100606000396000f3fe608060405234801561001057600080fd5b506004361061010b5760003560e01c8063914e3144116100a2578063daaf618a11610071578063daaf618a146102f4578063dc642f3014610315578063de8fa43114610348578063e97da63b14610366578063eaaa9ff2146103825761010b565b8063914e314414610266578063931eae1b146102875780639bccd6ad146102a3578063c19455d0146102d35761010b565b80635733cfd7116100de5780635733cfd7146101b25780638c0aa1bf146101e55780638da5cb5b14610215578063900a99dd146102335761010b565b80630cb6aaf11461011057806348e641c2146101405780634c1986761461015e5780634d2bc1421461017f575b600080fd5b61012a60048036038101906101259190613162565b6103a3565b6040516101379190613505565b60405180910390f35b61014861044f565b60405161015591906135da565b60405180910390f35b610166610499565b6040516101769493929190613489565b60405180910390f35b6101996004803603810190610194919061304e565b610a82565b6040516101a99493929190613527565b60405180910390f35b6101cc60048036038101906101c791906130a2565b610c05565b6040516101dc9493929190613527565b60405180910390f35b6101ff60048036038101906101fa9190613162565b610f38565b60405161020c919061346e565b60405180910390f35b61021d610f77565b60405161022a919061346e565b60405180910390f35b61024d6004803603810190610248919061304e565b610f9b565b60405161025d9493929190613527565b60405180910390f35b61026e61111e565b60405161027e9493929190613489565b60405180910390f35b6102a1600480360381019061029c919061304e565b611870565b005b6102bd60048036038101906102b891906130a2565b611b71565b6040516102ca91906134ea565b60405180910390f35b6102db611ba7565b6040516102eb9493929190613527565b60405180910390f35b6102fc611e62565b60405161030c9493929190613527565b60405180910390f35b61032f600480360381019061032a91906130a2565b61228b565b60405161033f9493929190613527565b60405180910390f35b610350612401565b60405161035d91906135da565b60405180910390f35b610380600480360381019061037b91906130e3565b61240e565b005b61038a6127c7565b60405161039a9493929190613489565b60405180910390f35b600281815481106103b357600080fd5b9060005260206000200160009150905080546103ce906137ec565b80601f01602080910402602001604051908101604052809291908181526020018280546103fa906137ec565b80156104475780601f1061041c57610100808354040283529160200191610447565b820191906000526020600020905b81548152906001019060200180831161042a57829003601f168201915b505050505081565b6000600460003373ffffffffffffffffffffffffffffffffffffffff1673ffffffffffffffffffffffffffffffffffffffff16815260200190815260200160002080549050905090565b6060806060806000600280549050905060008167ffffffffffffffff8111156104eb577f4e487b7100000000000000000000000000000000000000000000000000000000600052604160045260246000fd5b60405190808252806020026020018201604052801561051e57816020015b60608152602001906001900390816105095790505b50905060008267ffffffffffffffff811115610563577f4e487b7100000000000000000000000000000000000000000000000000000000600052604160045260246000fd5b60405190808252806020026020018201604052801561059657816020015b60608152602001906001900390816105815790505b50905060008367ffffffffffffffff8111156105db577f4e487b7100000000000000000000000000000000000000000000000000000000600052604160045260246000fd5b6040519080825280602002602001820160405280156106095781602001602082028036833780820191505090505b50905060008467ffffffffffffffff81111561064e577f4e487b7100000000000000000000000000000000000000000000000000000000600052604160045260246000fd5b60405190808252806020026020018201604052801561067c5781602001602082028036833780820191505090505b50905060005b600280549050811015610a6a576000600282815481106106cb577f4e487b7100000000000000000000000000000000000000000000000000000000600052603260045260246000fd5b9060005260206000200180546106e0906137ec565b80601f016020809104026020016040519081016040528092919081815260200182805461070c906137ec565b80156107595780601f1061072e57610100808354040283529160200191610759565b820191906000526020600020905b81548152906001019060200180831161073c57829003601f168201915b505050505090506001816040516107709190613457565b9081526020016040518091039020600001805461078c906137ec565b80601f01602080910402602001604051908101604052809291908181526020018280546107b8906137ec565b80156108055780601f106107da57610100808354040283529160200191610805565b820191906000526020600020905b8154815290600101906020018083116107e857829003601f168201915b5050505050868381518110610843577f4e487b7100000000000000000000000000000000000000000000000000000000600052603260045260246000fd5b602002602001018190525060018160405161085e9190613457565b9081526020016040518091039020600101805461087a906137ec565b80601f01602080910402602001604051908101604052809291908181526020018280546108a6906137ec565b80156108f35780601f106108c8576101008083540402835291602001916108f3565b820191906000526020600020905b8154815290600101906020018083116108d657829003601f168201915b5050505050858381518110610931577f4e487b7100000000000000000000000000000000000000000000000000000000600052603260045260246000fd5b602002602001018190525060018160405161094c9190613457565b908152602001604051809103902060020154848381518110610997577f4e487b7100000000000000000000000000000000000000000000000000000000600052603260045260246000fd5b6020026020010181815250506001816040516109b39190613457565b908152602001604051809103902060030160009054906101000a900473ffffffffffffffffffffffffffffffffffffffff16838381518110610a1e577f4e487b7100000000000000000000000000000000000000000000000000000000600052603260045260246000fd5b602002602001019073ffffffffffffffffffffffffffffffffffffffff16908173ffffffffffffffffffffffffffffffffffffffff16815250505080610a639061384f565b9050610682565b50838383839850985098509850505050505090919293565b60036020528160005260406000208180516020810182018051848252602083016020850120818352809550505050505060009150915050806000018054610ac8906137ec565b80601f0160208091040260200160405190810160405280929190818152602001828054610af4906137ec565b8015610b415780601f10610b1657610100808354040283529160200191610b41565b820191906000526020600020905b815481529060010190602001808311610b2457829003601f168201915b505050505090806001018054610b56906137ec565b80601f0160208091040260200160405190810160405280929190818152602001828054610b82906137ec565b8015610bcf5780601f10610ba457610100808354040283529160200191610bcf565b820191906000526020600020905b815481529060010190602001808311610bb257829003601f168201915b5050505050908060020154908060030160009054906101000a900473ffffffffffffffffffffffffffffffffffffffff16905084565b60608060008060011515600886604051610c1f9190613457565b908152602001604051809103902060009054906101000a900460ff16151514610c7d576040517f08c379a0000000000000000000000000000000000000000000000000000000008152600401610c749061357a565b60405180910390fd5b600360003373ffffffffffffffffffffffffffffffffffffffff1673ffffffffffffffffffffffffffffffffffffffff16815260200190815260200160002085604051610cca9190613457565b90815260200160405180910390206000018054610ce6906137ec565b80601f0160208091040260200160405190810160405280929190818152602001828054610d12906137ec565b8015610d5f5780601f10610d3457610100808354040283529160200191610d5f565b820191906000526020600020905b815481529060010190602001808311610d4257829003601f168201915b50505050509350600360003373ffffffffffffffffffffffffffffffffffffffff1673ffffffffffffffffffffffffffffffffffffffff16815260200190815260200160002085604051610db39190613457565b90815260200160405180910390206001018054610dcf906137ec565b80601f0160208091040260200160405190810160405280929190818152602001828054610dfb906137ec565b8015610e485780601f10610e1d57610100808354040283529160200191610e48565b820191906000526020600020905b815481529060010190602001808311610e2b57829003601f168201915b50505050509250600360003373ffffffffffffffffffffffffffffffffffffffff1673ffffffffffffffffffffffffffffffffffffffff16815260200190815260200160002085604051610e9c9190613457565b9081526020016040518091039020600201549150600360003373ffffffffffffffffffffffffffffffffffffffff1673ffffffffffffffffffffffffffffffffffffffff16815260200190815260200160002085604051610efd9190613457565b908152602001604051809103902060030160009054906101000a900473ffffffffffffffffffffffffffffffffffffffff1690509193509193565b60078181548110610f4857600080fd5b906000526020600020016000915054906101000a900473ffffffffffffffffffffffffffffffffffffffff1681565b60008054906101000a900473ffffffffffffffffffffffffffffffffffffffff1681565b60056020528160005260406000208180516020810182018051848252602083016020850120818352809550505050505060009150915050806000018054610fe1906137ec565b80601f016020809104026020016040519081016040528092919081815260200182805461100d906137ec565b801561105a5780601f1061102f5761010080835404028352916020019161105a565b820191906000526020600020905b81548152906001019060200180831161103d57829003601f168201915b50505050509080600101805461106f906137ec565b80601f016020809104026020016040519081016040528092919081815260200182805461109b906137ec565b80156110e85780601f106110bd576101008083540402835291602001916110e8565b820191906000526020600020905b8154815290600101906020018083116110cb57829003601f168201915b5050505050908060020154908060030160009054906101000a900473ffffffffffffffffffffffffffffffffffffffff16905084565b6060806060806000600660003373ffffffffffffffffffffffffffffffffffffffff1673ffffffffffffffffffffffffffffffffffffffff16815260200190815260200160002080549050905060008167ffffffffffffffff8111156111ad577f4e487b7100000000000000000000000000000000000000000000000000000000600052604160045260246000fd5b6040519080825280602002602001820160405280156111e057816020015b60608152602001906001900390816111cb5790505b50905060008267ffffffffffffffff811115611225577f4e487b7100000000000000000000000000000000000000000000000000000000600052604160045260246000fd5b60405190808252806020026020018201604052801561125857816020015b60608152602001906001900390816112435790505b50905060008367ffffffffffffffff81111561129d577f4e487b7100000000000000000000000000000000000000000000000000000000600052604160045260246000fd5b6040519080825280602002602001820160405280156112cb5781602001602082028036833780820191505090505b50905060008467ffffffffffffffff811115611310577f4e487b7100000000000000000000000000000000000000000000000000000000600052604160045260246000fd5b60405190808252806020026020018201604052801561133e5781602001602082028036833780820191505090505b50905060005b85811015611858576000600660003373ffffffffffffffffffffffffffffffffffffffff1673ffffffffffffffffffffffffffffffffffffffff16815260200190815260200160002082815481106113c5577f4e487b7100000000000000000000000000000000000000000000000000000000600052603260045260246000fd5b9060005260206000200180546113da906137ec565b80601f0160208091040260200160405190810160405280929190818152602001828054611406906137ec565b80156114535780601f1061142857610100808354040283529160200191611453565b820191906000526020600020905b81548152906001019060200180831161143657829003601f168201915b50505050509050600560003373ffffffffffffffffffffffffffffffffffffffff1673ffffffffffffffffffffffffffffffffffffffff168152602001908152602001600020816040516114a79190613457565b908152602001604051809103902060000180546114c3906137ec565b80601f01602080910402602001604051908101604052809291908181526020018280546114ef906137ec565b801561153c5780601f106115115761010080835404028352916020019161153c565b820191906000526020600020905b81548152906001019060200180831161151f57829003601f168201915b505050505086838151811061157a577f4e487b7100000000000000000000000000000000000000000000000000000000600052603260045260246000fd5b6020026020010181905250600560003373ffffffffffffffffffffffffffffffffffffffff1673ffffffffffffffffffffffffffffffffffffffff168152602001908152602001600020816040516115d29190613457565b908152602001604051809103902060010180546115ee906137ec565b80601f016020809104026020016040519081016040528092919081815260200182805461161a906137ec565b80156116675780601f1061163c57610100808354040283529160200191611667565b820191906000526020600020905b81548152906001019060200180831161164a57829003601f168201915b50505050508583815181106116a5577f4e487b7100000000000000000000000000000000000000000000000000000000600052603260045260246000fd5b6020026020010181905250600560003373ffffffffffffffffffffffffffffffffffffffff1673ffffffffffffffffffffffffffffffffffffffff168152602001908152602001600020816040516116fd9190613457565b908152602001604051809103902060020154848381518110611748577f4e487b7100000000000000000000000000000000000000000000000000000000600052603260045260246000fd5b602002602001018181525050600560003373ffffffffffffffffffffffffffffffffffffffff1673ffffffffffffffffffffffffffffffffffffffff168152602001908152602001600020816040516117a19190613457565b908152602001604051809103902060030160009054906101000a900473ffffffffffffffffffffffffffffffffffffffff1683838151811061180c577f4e487b7100000000000000000000000000000000000000000000000000000000600052603260045260246000fd5b602002602001019073ffffffffffffffffffffffffffffffffffffffff16908173ffffffffffffffffffffffffffffffffffffffff168152505050806118519061384f565b9050611344565b50838383839850985098509850505050505090919293565b600115156008826040516118849190613457565b908152602001604051809103902060009054906101000a900460ff161515146118e2576040517f08c379a00000000000000000000000000000000000000000000000000000000081526004016118d99061357a565b60405180910390fd5b6000806000806118f185610c05565b93509350935093503373ffffffffffffffffffffffffffffffffffffffff168173ffffffffffffffffffffffffffffffffffffffff1614611967576040517f08c379a000000000000000000000000000000000000000000000000000000000815260040161195e906135ba565b60405180910390fd5b600060405180608001604052808681526020018581526020018481526020018373ffffffffffffffffffffffffffffffffffffffff16815250905080600560008973ffffffffffffffffffffffffffffffffffffffff1673ffffffffffffffffffffffffffffffffffffffff168152602001908152602001600020876040516119f09190613457565b90815260200160405180910390206000820151816000019080519060200190611a1a929190612f19565b506020820151816001019080519060200190611a37929190612f19565b506040820151816002015560608201518160030160006101000a81548173ffffffffffffffffffffffffffffffffffffffff021916908373ffffffffffffffffffffffffffffffffffffffff160217905550905050600660008873ffffffffffffffffffffffffffffffffffffffff1673ffffffffffffffffffffffffffffffffffffffff16815260200190815260200160002086908060018154018082558091505060019003906000526020600020016000909190919091509080519060200190611b04929190612f19565b506007879080600181540180825580915050600190039060005260206000200160009091909190916101000a81548173ffffffffffffffffffffffffffffffffffffffff021916908373ffffffffffffffffffffffffffffffffffffffff16021790555050505050505050565b6008818051602081018201805184825260208301602085012081835280955050505050506000915054906101000a900460ff1681565b6060806000806000600280549050905060006002600183611bc8919061372e565b81548110611bff577f4e487b7100000000000000000000000000000000000000000000000000000000600052603260045260246000fd5b906000526020600020018054611c14906137ec565b80601f0160208091040260200160405190810160405280929190818152602001828054611c40906137ec565b8015611c8d5780601f10611c6257610100808354040283529160200191611c8d565b820191906000526020600020905b815481529060010190602001808311611c7057829003601f168201915b50505050509050600181604051611ca49190613457565b9081526020016040518091039020600001600182604051611cc59190613457565b9081526020016040518091039020600101600183604051611ce69190613457565b908152602001604051809103902060020154600184604051611d089190613457565b908152602001604051809103902060030160009054906101000a900473ffffffffffffffffffffffffffffffffffffffff16838054611d46906137ec565b80601f0160208091040260200160405190810160405280929190818152602001828054611d72906137ec565b8015611dbf5780601f10611d9457610100808354040283529160200191611dbf565b820191906000526020600020905b815481529060010190602001808311611da257829003601f168201915b50505050509350828054611dd2906137ec565b80601f0160208091040260200160405190810160405280929190818152602001828054611dfe906137ec565b8015611e4b5780601f10611e2057610100808354040283529160200191611e4b565b820191906000526020600020905b815481529060010190602001808311611e2e57829003601f168201915b505050505092509550955095509550505090919293565b6060806000806000600460003373ffffffffffffffffffffffffffffffffffffffff1673ffffffffffffffffffffffffffffffffffffffff1681526020019081526020016000208054905090506000600460003373ffffffffffffffffffffffffffffffffffffffff1673ffffffffffffffffffffffffffffffffffffffff168152602001908152602001600020600183611efd919061372e565b81548110611f34577f4e487b7100000000000000000000000000000000000000000000000000000000600052603260045260246000fd5b906000526020600020018054611f49906137ec565b80601f0160208091040260200160405190810160405280929190818152602001828054611f75906137ec565b8015611fc25780601f10611f9757610100808354040283529160200191611fc2565b820191906000526020600020905b815481529060010190602001808311611fa557829003601f168201915b50505050509050600360003373ffffffffffffffffffffffffffffffffffffffff1673ffffffffffffffffffffffffffffffffffffffff168152602001908152602001600020816040516120169190613457565b9081526020016040518091039020600001600360003373ffffffffffffffffffffffffffffffffffffffff1673ffffffffffffffffffffffffffffffffffffffff168152602001908152602001600020826040516120749190613457565b9081526020016040518091039020600101600360003373ffffffffffffffffffffffffffffffffffffffff1673ffffffffffffffffffffffffffffffffffffffff168152602001908152602001600020836040516120d29190613457565b908152602001604051809103902060020154600360003373ffffffffffffffffffffffffffffffffffffffff1673ffffffffffffffffffffffffffffffffffffffff168152602001908152602001600020846040516121319190613457565b908152602001604051809103902060030160009054906101000a900473ffffffffffffffffffffffffffffffffffffffff1683805461216f906137ec565b80601f016020809104026020016040519081016040528092919081815260200182805461219b906137ec565b80156121e85780601f106121bd576101008083540402835291602001916121e8565b820191906000526020600020905b8154815290600101906020018083116121cb57829003601f168201915b505050505093508280546121fb906137ec565b80601f0160208091040260200160405190810160405280929190818152602001828054612227906137ec565b80156122745780601f1061224957610100808354040283529160200191612274565b820191906000526020600020905b81548152906001019060200180831161225757829003601f168201915b505050505092509550955095509550505090919293565b6001818051602081018201805184825260208301602085012081835280955050505050506000915090508060000180546122c4906137ec565b80601f01602080910402602001604051908101604052809291908181526020018280546122f0906137ec565b801561233d5780601f106123125761010080835404028352916020019161233d565b820191906000526020600020905b81548152906001019060200180831161232057829003601f168201915b505050505090806001018054612352906137ec565b80601f016020809104026020016040519081016040528092919081815260200182805461237e906137ec565b80156123cb5780601f106123a0576101008083540402835291602001916123cb565b820191906000526020600020905b8154815290600101906020018083116123ae57829003601f168201915b5050505050908060020154908060030160009054906101000a900473ffffffffffffffffffffffffffffffffffffffff16905084565b6000600280549050905090565b600015156008836040516124229190613457565b908152602001604051809103902060009054906101000a900460ff16151514612480576040517f08c379a00000000000000000000000000000000000000000000000000000000081526004016124779061359a565b60405180910390fd5b600060405180608001604052808581526020018481526020014281526020013373ffffffffffffffffffffffffffffffffffffffff168152509050600182141561262c5780600360003373ffffffffffffffffffffffffffffffffffffffff1673ffffffffffffffffffffffffffffffffffffffff168152602001908152602001600020846040516125129190613457565b9081526020016040518091039020600082015181600001908051906020019061253c929190612f19565b506020820151816001019080519060200190612559929190612f19565b506040820151816002015560608201518160030160006101000a81548173ffffffffffffffffffffffffffffffffffffffff021916908373ffffffffffffffffffffffffffffffffffffffff160217905550905050600460003373ffffffffffffffffffffffffffffffffffffffff1673ffffffffffffffffffffffffffffffffffffffff16815260200190815260200160002083908060018154018082558091505060019003906000526020600020016000909190919091509080519060200190612626929190612f19565b50612716565b8060018560405161263d9190613457565b90815260200160405180910390206000820151816000019080519060200190612667929190612f19565b506020820151816001019080519060200190612684929190612f19565b506040820151816002015560608201518160030160006101000a81548173ffffffffffffffffffffffffffffffffffffffff021916908373ffffffffffffffffffffffffffffffffffffffff160217905550905050600284908060018154018082558091505060019003906000526020600020016000909190919091509080519060200190612714929190612f19565b505b60016008846040516127289190613457565b908152602001604051809103902060006101000a81548160ff021916908315150217905550600160088560405161275f9190613457565b908152602001604051809103902060006101000a81548160ff0219169083151502179055507f23328c870127949cf845a05506d0fc9028a78b1fe34f9c4300f672ca306238c3848442336040516127b99493929190613527565b60405180910390a150505050565b6060806060806000600460003373ffffffffffffffffffffffffffffffffffffffff1673ffffffffffffffffffffffffffffffffffffffff16815260200190815260200160002080549050905060008167ffffffffffffffff811115612856577f4e487b7100000000000000000000000000000000000000000000000000000000600052604160045260246000fd5b60405190808252806020026020018201604052801561288957816020015b60608152602001906001900390816128745790505b50905060008267ffffffffffffffff8111156128ce577f4e487b7100000000000000000000000000000000000000000000000000000000600052604160045260246000fd5b60405190808252806020026020018201604052801561290157816020015b60608152602001906001900390816128ec5790505b50905060008367ffffffffffffffff811115612946577f4e487b7100000000000000000000000000000000000000000000000000000000600052604160045260246000fd5b6040519080825280602002602001820160405280156129745781602001602082028036833780820191505090505b50905060008467ffffffffffffffff8111156129b9577f4e487b7100000000000000000000000000000000000000000000000000000000600052604160045260246000fd5b6040519080825280602002602001820160405280156129e75781602001602082028036833780820191505090505b50905060005b85811015612f01576000600460003373ffffffffffffffffffffffffffffffffffffffff1673ffffffffffffffffffffffffffffffffffffffff1681526020019081526020016000208281548110612a6e577f4e487b7100000000000000000000000000000000000000000000000000000000600052603260045260246000fd5b906000526020600020018054612a83906137ec565b80601f0160208091040260200160405190810160405280929190818152602001828054612aaf906137ec565b8015612afc5780601f10612ad157610100808354040283529160200191612afc565b820191906000526020600020905b815481529060010190602001808311612adf57829003601f168201915b50505050509050600360003373ffffffffffffffffffffffffffffffffffffffff1673ffffffffffffffffffffffffffffffffffffffff16815260200190815260200160002081604051612b509190613457565b90815260200160405180910390206000018054612b6c906137ec565b80601f0160208091040260200160405190810160405280929190818152602001828054612b98906137ec565b8015612be55780601f10612bba57610100808354040283529160200191612be5565b820191906000526020600020905b815481529060010190602001808311612bc857829003601f168201915b5050505050868381518110612c23577f4e487b7100000000000000000000000000000000000000000000000000000000600052603260045260246000fd5b6020026020010181905250600360003373ffffffffffffffffffffffffffffffffffffffff1673ffffffffffffffffffffffffffffffffffffffff16815260200190815260200160002081604051612c7b9190613457565b90815260200160405180910390206001018054612c97906137ec565b80601f0160208091040260200160405190810160405280929190818152602001828054612cc3906137ec565b8015612d105780601f10612ce557610100808354040283529160200191612d10565b820191906000526020600020905b815481529060010190602001808311612cf357829003601f168201915b5050505050858381518110612d4e577f4e487b7100000000000000000000000000000000000000000000000000000000600052603260045260246000fd5b6020026020010181905250600360003373ffffffffffffffffffffffffffffffffffffffff1673ffffffffffffffffffffffffffffffffffffffff16815260200190815260200160002081604051612da69190613457565b908152602001604051809103902060020154848381518110612df1577f4e487b7100000000000000000000000000000000000000000000000000000000600052603260045260246000fd5b602002602001018181525050600360003373ffffffffffffffffffffffffffffffffffffffff1673ffffffffffffffffffffffffffffffffffffffff16815260200190815260200160002081604051612e4a9190613457565b908152602001604051809103902060030160009054906101000a900473ffffffffffffffffffffffffffffffffffffffff16838381518110612eb5577f4e487b7100000000000000000000000000000000000000000000000000000000600052603260045260246000fd5b602002602001019073ffffffffffffffffffffffffffffffffffffffff16908173ffffffffffffffffffffffffffffffffffffffff16815250505080612efa9061384f565b90506129ed565b50838383839850985098509850505050505090919293565b828054612f25906137ec565b90600052602060002090601f016020900481019282612f475760008555612f8e565b82601f10612f6057805160ff1916838001178555612f8e565b82800160010185558215612f8e579182015b82811115612f8d578251825591602001919060010190612f72565b5b509050612f9b9190612f9f565b5090565b5b80821115612fb8576000816000905550600101612fa0565b5090565b6000612fcf612fca8461361a565b6135f5565b905082815260208101848484011115612fe757600080fd5b612ff28482856137aa565b509392505050565b600081359050613009816139fd565b92915050565b600082601f83011261302057600080fd5b8135613030848260208601612fbc565b91505092915050565b60008135905061304881613a14565b92915050565b6000806040838503121561306157600080fd5b600061306f85828601612ffa565b925050602083013567ffffffffffffffff81111561308c57600080fd5b6130988582860161300f565b9150509250929050565b6000602082840312156130b457600080fd5b600082013567ffffffffffffffff8111156130ce57600080fd5b6130da8482850161300f565b91505092915050565b6000806000606084860312156130f857600080fd5b600084013567ffffffffffffffff81111561311257600080fd5b61311e8682870161300f565b935050602084013567ffffffffffffffff81111561313b57600080fd5b6131478682870161300f565b925050604061315886828701613039565b9150509250925092565b60006020828403121561317457600080fd5b600061318284828501613039565b91505092915050565b600061319783836131cf565b60208301905092915050565b60006131af838361332d565b905092915050565b60006131c38383613439565b60208301905092915050565b6131d881613762565b82525050565b6131e781613762565b82525050565b60006131f88261367b565b61320281856136ce565b935061320d8361364b565b8060005b8381101561323e578151613225888261318b565b9750613230836136a7565b925050600181019050613211565b5085935050505092915050565b600061325682613686565b61326081856136df565b9350836020820285016132728561365b565b8060005b858110156132ae578484038952815161328f85826131a3565b945061329a836136b4565b925060208a01995050600181019050613276565b50829750879550505050505092915050565b60006132cb82613691565b6132d581856136f0565b93506132e08361366b565b8060005b838110156133115781516132f888826131b7565b9750613303836136c1565b9250506001810190506132e4565b5085935050505092915050565b61332781613774565b82525050565b60006133388261369c565b6133428185613701565b93506133528185602086016137b9565b61335b81613925565b840191505092915050565b60006133718261369c565b61337b8185613712565b935061338b8185602086016137b9565b61339481613925565b840191505092915050565b60006133aa8261369c565b6133b48185613723565b93506133c48185602086016137b9565b80840191505092915050565b60006133dd601383613712565b91506133e882613936565b602082019050919050565b6000613400602b83613712565b915061340b8261395f565b604082019050919050565b6000613423602483613712565b915061342e826139ae565b604082019050919050565b613442816137a0565b82525050565b613451816137a0565b82525050565b6000613463828461339f565b915081905092915050565b600060208201905061348360008301846131de565b92915050565b600060808201905081810360008301526134a3818761324b565b905081810360208301526134b7818661324b565b905081810360408301526134cb81856132c0565b905081810360608301526134df81846131ed565b905095945050505050565b60006020820190506134ff600083018461331e565b92915050565b6000602082019050818103600083015261351f8184613366565b905092915050565b600060808201905081810360008301526135418187613366565b905081810360208301526135558186613366565b90506135646040830185613448565b61357160608301846131de565b95945050505050565b60006020820190508181036000830152613593816133d0565b9050919050565b600060208201905081810360008301526135b3816133f3565b9050919050565b600060208201905081810360008301526135d381613416565b9050919050565b60006020820190506135ef6000830184613448565b92915050565b60006135ff613610565b905061360b828261381e565b919050565b6000604051905090565b600067ffffffffffffffff821115613635576136346138f6565b5b61363e82613925565b9050602081019050919050565b6000819050602082019050919050565b6000819050602082019050919050565b6000819050602082019050919050565b600081519050919050565b600081519050919050565b600081519050919050565b600081519050919050565b6000602082019050919050565b6000602082019050919050565b6000602082019050919050565b600082825260208201905092915050565b600082825260208201905092915050565b600082825260208201905092915050565b600082825260208201905092915050565b600082825260208201905092915050565b600081905092915050565b6000613739826137a0565b9150613744836137a0565b92508282101561375757613756613898565b5b828203905092915050565b600061376d82613780565b9050919050565b60008115159050919050565b600073ffffffffffffffffffffffffffffffffffffffff82169050919050565b6000819050919050565b82818337600083830152505050565b60005b838110156137d75780820151818401526020810190506137bc565b838111156137e6576000848401525b50505050565b6000600282049050600182168061380457607f821691505b60208210811415613818576138176138c7565b5b50919050565b61382782613925565b810181811067ffffffffffffffff82111715613846576138456138f6565b5b80604052505050565b600061385a826137a0565b91507fffffffffffffffffffffffffffffffffffffffffffffffffffffffffffffffff82141561388d5761388c613898565b5b600182019050919050565b7f4e487b7100000000000000000000000000000000000000000000000000000000600052601160045260246000fd5b7f4e487b7100000000000000000000000000000000000000000000000000000000600052602260045260246000fd5b7f4e487b7100000000000000000000000000000000000000000000000000000000600052604160045260246000fd5b6000601f19601f8301169050919050565b7f46696c6520646f6573206e6f7420657869737400000000000000000000000000600082015250565b7f46696c6520776974682074686973204e616d6520616c7265616479206578697360008201527f74732c2052656e616d652e000000000000000000000000000000000000000000602082015250565b7f46696c65207368617265206e6f7420617574686f72697a65642e204e6f74204f60008201527f776e657200000000000000000000000000000000000000000000000000000000602082015250565b613a0681613762565b8114613a1157600080fd5b50565b613a1d816137a0565b8114613a2857600080fd5b5056fea26469706673582212206d5306ae830ca6d62afb6eb7750f14a41c758888adaada12bdc17159ea7e3f3764736f6c63430008040033",
  "linkReferences": {},
  "deployedLinkReferences": {}
}