{
  "_format": "hh-sol-artifact-1",
  "contractName": "DecentralizedLibrary",
  "sourceName": "contracts/DecentralizedLibrary.sol",
  "abi": [
    {
      "inputs": [],
      "stateMutability": "nonpayable",
      "type": "constructor"
    },
    {
      "anonymous": false,
      "inputs": [
        {
          "indexed": false,
          "internalType": "string",
          "name": "ipfsCID",
          "type": "string"
        },
        {
          "indexed": false,
          "internalType": "string",
          "name": "fileName",
          "type": "string"
        },
        {
          "indexed": false,
          "internalType": "uint256",
          "name": "timeUploaded",
          "type": "uint256"
        },
        {
          "indexed": false,
          "internalType": "address",
          "name": "fileOwner",
          "type": "address"
        }
      ],
      "name": "FileUploaded",
      "type": "event"
    },
    {
      "inputs": [
        {
          "internalType": "string",
          "name": "",
          "type": "string"
        }
      ],
      "name": "collection",
      "outputs": [
        {
          "internalType": "string",
          "name": "ipfsCID",
          "type": "string"
        },
        {
          "internalType": "string",
          "name": "fileName",
          "type": "string"
        },
        {
          "internalType": "uint256",
          "name": "timeUploaded",
          "type": "uint256"
        },
        {
          "internalType": "address",
          "name": "fileOwner",
          "type": "address"
        }
      ],
      "stateMutability": "view",
      "type": "function"
    },
    {
      "inputs": [
        {
          "internalType": "uint256",
          "name": "",
          "type": "uint256"
        }
      ],
      "name": "fileDetailsArray",
      "outputs": [
        {
          "internalType": "string",
          "name": "ipfsCID",
          "type": "string"
        },
        {
          "internalType": "string",
          "name": "fileName",
          "type": "string"
        },
        {
          "internalType": "uint256",
          "name": "timeUploaded",
          "type": "uint256"
        },
        {
          "internalType": "address",
          "name": "fileOwner",
          "type": "address"
        }
      ],
      "stateMutability": "view",
      "type": "function"
    },
    {
      "inputs": [
        {
          "internalType": "string",
          "name": "",
          "type": "string"
        }
      ],
      "name": "fileExists",
      "outputs": [
        {
          "internalType": "bool",
          "name": "",
          "type": "bool"
        }
      ],
      "stateMutability": "view",
      "type": "function"
    },
    {
      "inputs": [],
      "name": "getAllPrivateUploads",
      "outputs": [
        {
          "internalType": "string[]",
          "name": "",
          "type": "string[]"
        },
        {
          "internalType": "string[]",
          "name": "",
          "type": "string[]"
        },
        {
          "internalType": "uint256[]",
          "name": "",
          "type": "uint256[]"
        },
        {
          "internalType": "address[]",
          "name": "",
          "type": "address[]"
        }
      ],
      "stateMutability": "view",
      "type": "function"
    },
    {
      "inputs": [],
      "name": "getAllPublicUploads",
      "outputs": [
        {
          "internalType": "string[]",
          "name": "",
          "type": "string[]"
        },
        {
          "internalType": "string[]",
          "name": "",
          "type": "string[]"
        },
        {
          "internalType": "uint256[]",
          "name": "",
          "type": "uint256[]"
        },
        {
          "internalType": "address[]",
          "name": "",
          "type": "address[]"
        }
      ],
      "stateMutability": "view",
      "type": "function"
    },
    {
      "inputs": [],
      "name": "getLatestPrivateUpload",
      "outputs": [
        {
          "internalType": "string",
          "name": "",
          "type": "string"
        },
        {
          "internalType": "string",
          "name": "",
          "type": "string"
        },
        {
          "internalType": "uint256",
          "name": "",
          "type": "uint256"
        },
        {
          "internalType": "address",
          "name": "",
          "type": "address"
        }
      ],
      "stateMutability": "view",
      "type": "function"
    },
    {
      "inputs": [],
      "name": "getLatestPublicUpload",
      "outputs": [
        {
          "internalType": "string",
          "name": "",
          "type": "string"
        },
        {
          "internalType": "string",
          "name": "",
          "type": "string"
        },
        {
          "internalType": "uint256",
          "name": "",
          "type": "uint256"
        },
        {
          "internalType": "address",
          "name": "",
          "type": "address"
        }
      ],
      "stateMutability": "view",
      "type": "function"
    },
    {
      "inputs": [],
      "name": "getSize",
      "outputs": [
        {
          "internalType": "uint256",
          "name": "",
          "type": "uint256"
        }
      ],
      "stateMutability": "view",
      "type": "function"
    },
    {
      "inputs": [],
      "name": "getSizeOfPrivateUploads",
      "outputs": [
        {
          "internalType": "uint256",
          "name": "",
          "type": "uint256"
        }
      ],
      "stateMutability": "view",
      "type": "function"
    },
    {
      "inputs": [
        {
          "internalType": "uint256",
          "name": "",
          "type": "uint256"
        }
      ],
      "name": "keys",
      "outputs": [
        {
          "internalType": "string",
          "name": "",
          "type": "string"
        }
      ],
      "stateMutability": "view",
      "type": "function"
    },
    {
      "inputs": [],
      "name": "owner",
      "outputs": [
        {
          "internalType": "address",
          "name": "",
          "type": "address"
        }
      ],
      "stateMutability": "view",
      "type": "function"
    },
    {
      "inputs": [
        {
          "internalType": "uint256",
          "name": "",
          "type": "uint256"
        }
      ],
      "name": "pKey",
      "outputs": [
        {
          "internalType": "string",
          "name": "",
          "type": "string"
        }
      ],
      "stateMutability": "view",
      "type": "function"
    },
    {
      "inputs": [
        {
          "internalType": "string",
          "name": "",
          "type": "string"
        }
      ],
      "name": "privateCollection",
      "outputs": [
        {
          "internalType": "string",
          "name": "ipfsCID",
          "type": "string"
        },
        {
          "internalType": "string",
          "name": "fileName",
          "type": "string"
        },
        {
          "internalType": "uint256",
          "name": "timeUploaded",
          "type": "uint256"
        },
        {
          "internalType": "address",
          "name": "fileOwner",
          "type": "address"
        }
      ],
      "stateMutability": "view",
      "type": "function"
    },
    {
      "inputs": [
        {
          "internalType": "string",
          "name": "_ipfsCID",
          "type": "string"
        },
        {
          "internalType": "string",
          "name": "_fileName",
          "type": "string"
        }
      ],
      "name": "privateUpload",
      "outputs": [],
      "stateMutability": "nonpayable",
      "type": "function"
    },
    {
      "inputs": [
        {
          "internalType": "string",
          "name": "_ipfsCID",
          "type": "string"
        },
        {
          "internalType": "string",
          "name": "_fileName",
          "type": "string"
        }
      ],
      "name": "publicUpload",
      "outputs": [],
      "stateMutability": "nonpayable",
      "type": "function"
    },
    {
      "inputs": [
        {
          "internalType": "string",
          "name": "",
          "type": "string"
        }
      ],
      "name": "uploaded",
      "outputs": [
        {
          "internalType": "bool",
          "name": "",
          "type": "bool"
        }
      ],
      "stateMutability": "view",
      "type": "function"
    }
  ],
  "bytecode": "0x6080604052336000806101000a81548173ffffffffffffffffffffffffffffffffffffffff021916908373ffffffffffffffffffffffffffffffffffffffff16021790555034801561005057600080fd5b50612e48806100606000396000f3fe608060405234801561001057600080fd5b50600436106101005760003560e01c80639bccd6ad11610097578063daaf618a11610066578063daaf618a146102e1578063dc642f3014610302578063de8fa43114610335578063eaaa9ff21461035357610100565b80639bccd6ad14610241578063b53e42c814610271578063c19455d01461028d578063c62c79ec146102ae57610100565b806387cb5323116100d357806387cb5323146101a45780638da5cb5b146101c057806395d7b409146101de578063962954241461021157610100565b80630cb6aaf11461010557806348e641c2146101355780634c19867614610153578063615d487414610174575b600080fd5b61011f600480360381019061011a9190612560565b610374565b60405161012c9190612903565b60405180910390f35b61013d610420565b60405161014a91906129d8565b60405180910390f35b61015b6104bc565b60405161016b9493929190612887565b60405180910390f35b61018e600480360381019061018991906124b3565b610aa5565b60405161019b91906128e8565b60405180910390f35b6101be60048036038101906101b991906124f4565b610adb565b005b6101c8610dfb565b6040516101d5919061286c565b60405180910390f35b6101f860048036038101906101f391906124b3565b610e1f565b6040516102089493929190612925565b60405180910390f35b61022b60048036038101906102269190612560565b610f95565b6040516102389190612903565b60405180910390f35b61025b600480360381019061025691906124b3565b611041565b60405161026891906128e8565b60405180910390f35b61028b600480360381019061028691906124f4565b611077565b005b610295611425565b6040516102a59493929190612925565b60405180910390f35b6102c860048036038101906102c39190612560565b6116e0565b6040516102d89493929190612925565b60405180910390f35b6102e9611850565b6040516102f99493929190612925565b60405180910390f35b61031c600480360381019061031791906124b3565b611b99565b60405161032c9493929190612925565b60405180910390f35b61033d611d0f565b60405161034a91906129d8565b60405180910390f35b61035b611d1c565b60405161036b9493929190612887565b60405180910390f35b6003818154811061038457600080fd5b90600052602060002001600091509050805461039f90612bea565b80601f01602080910402602001604051908101604052809291908181526020018280546103cb90612bea565b80156104185780601f106103ed57610100808354040283529160200191610418565b820191906000526020600020905b8154815290600101906020018083116103fb57829003601f168201915b505050505081565b60008060009054906101000a900473ffffffffffffffffffffffffffffffffffffffff1673ffffffffffffffffffffffffffffffffffffffff163373ffffffffffffffffffffffffffffffffffffffff16146104b1576040517f08c379a00000000000000000000000000000000000000000000000000000000081526004016104a890612998565b60405180910390fd5b600580549050905090565b6060806060806000600380549050905060008167ffffffffffffffff81111561050e577f4e487b7100000000000000000000000000000000000000000000000000000000600052604160045260246000fd5b60405190808252806020026020018201604052801561054157816020015b606081526020019060019003908161052c5790505b50905060008267ffffffffffffffff811115610586577f4e487b7100000000000000000000000000000000000000000000000000000000600052604160045260246000fd5b6040519080825280602002602001820160405280156105b957816020015b60608152602001906001900390816105a45790505b50905060008367ffffffffffffffff8111156105fe577f4e487b7100000000000000000000000000000000000000000000000000000000600052604160045260246000fd5b60405190808252806020026020018201604052801561062c5781602001602082028036833780820191505090505b50905060008467ffffffffffffffff811115610671577f4e487b7100000000000000000000000000000000000000000000000000000000600052604160045260246000fd5b60405190808252806020026020018201604052801561069f5781602001602082028036833780820191505090505b50905060005b600380549050811015610a8d576000600382815481106106ee577f4e487b7100000000000000000000000000000000000000000000000000000000600052603260045260246000fd5b90600052602060002001805461070390612bea565b80601f016020809104026020016040519081016040528092919081815260200182805461072f90612bea565b801561077c5780601f106107515761010080835404028352916020019161077c565b820191906000526020600020905b81548152906001019060200180831161075f57829003601f168201915b505050505090506001816040516107939190612855565b908152602001604051809103902060000180546107af90612bea565b80601f01602080910402602001604051908101604052809291908181526020018280546107db90612bea565b80156108285780601f106107fd57610100808354040283529160200191610828565b820191906000526020600020905b81548152906001019060200180831161080b57829003601f168201915b5050505050868381518110610866577f4e487b7100000000000000000000000000000000000000000000000000000000600052603260045260246000fd5b60200260200101819052506001816040516108819190612855565b9081526020016040518091039020600101805461089d90612bea565b80601f01602080910402602001604051908101604052809291908181526020018280546108c990612bea565b80156109165780601f106108eb57610100808354040283529160200191610916565b820191906000526020600020905b8154815290600101906020018083116108f957829003601f168201915b5050505050858381518110610954577f4e487b7100000000000000000000000000000000000000000000000000000000600052603260045260246000fd5b602002602001018190525060018160405161096f9190612855565b9081526020016040518091039020600201548483815181106109ba577f4e487b7100000000000000000000000000000000000000000000000000000000600052603260045260246000fd5b6020026020010181815250506001816040516109d69190612855565b908152602001604051809103902060030160009054906101000a900473ffffffffffffffffffffffffffffffffffffffff16838381518110610a41577f4e487b7100000000000000000000000000000000000000000000000000000000600052603260045260246000fd5b602002602001019073ffffffffffffffffffffffffffffffffffffffff16908173ffffffffffffffffffffffffffffffffffffffff16815250505080610a8690612c4d565b90506106a5565b50838383839850985098509850505050505090919293565b6002818051602081018201805184825260208301602085012081835280955050505050506000915054906101000a900460ff1681565b60001515600683604051610aef9190612855565b908152602001604051809103902060009054906101000a900460ff16151514610b4d576040517f08c379a0000000000000000000000000000000000000000000000000000000008152600401610b4490612978565b60405180910390fd5b60001515600682604051610b619190612855565b908152602001604051809103902060009054906101000a900460ff16151514610bbf576040517f08c379a0000000000000000000000000000000000000000000000000000000008152600401610bb6906129b8565b60405180910390fd5b600060405180608001604052808481526020018381526020014281526020013373ffffffffffffffffffffffffffffffffffffffff16815250905080600184604051610c0b9190612855565b90815260200160405180910390206000820151816000019080519060200190610c35929190612393565b506020820151816001019080519060200190610c52929190612393565b506040820151816002015560608201518160030160006101000a81548173ffffffffffffffffffffffffffffffffffffffff021916908373ffffffffffffffffffffffffffffffffffffffff1602179055509050506001600684604051610cb99190612855565b908152602001604051809103902060006101000a81548160ff0219169083151502179055506001600683604051610cf09190612855565b908152602001604051809103902060006101000a81548160ff021916908315150217905550600283604051610d259190612855565b908152602001604051809103902060009054906101000a900460ff16610db9576001600284604051610d579190612855565b908152602001604051809103902060006101000a81548160ff021916908315150217905550600383908060018154018082558091505060019003906000526020600020016000909190919091509080519060200190610db7929190612393565b505b7f23328c870127949cf845a05506d0fc9028a78b1fe34f9c4300f672ca306238c383834233604051610dee9493929190612925565b60405180910390a1505050565b60008054906101000a900473ffffffffffffffffffffffffffffffffffffffff1681565b600481805160208101820180518482526020830160208501208183528095505050505050600091509050806000018054610e5890612bea565b80601f0160208091040260200160405190810160405280929190818152602001828054610e8490612bea565b8015610ed15780601f10610ea657610100808354040283529160200191610ed1565b820191906000526020600020905b815481529060010190602001808311610eb457829003601f168201915b505050505090806001018054610ee690612bea565b80601f0160208091040260200160405190810160405280929190818152602001828054610f1290612bea565b8015610f5f5780601f10610f3457610100808354040283529160200191610f5f565b820191906000526020600020905b815481529060010190602001808311610f4257829003601f168201915b5050505050908060020154908060030160009054906101000a900473ffffffffffffffffffffffffffffffffffffffff16905084565b60058181548110610fa557600080fd5b906000526020600020016000915090508054610fc090612bea565b80601f0160208091040260200160405190810160405280929190818152602001828054610fec90612bea565b80156110395780601f1061100e57610100808354040283529160200191611039565b820191906000526020600020905b81548152906001019060200180831161101c57829003601f168201915b505050505081565b6006818051602081018201805184825260208301602085012081835280955050505050506000915054906101000a900460ff1681565b60008054906101000a900473ffffffffffffffffffffffffffffffffffffffff1673ffffffffffffffffffffffffffffffffffffffff163373ffffffffffffffffffffffffffffffffffffffff1614611105576040517f08c379a00000000000000000000000000000000000000000000000000000000081526004016110fc90612998565b60405180910390fd5b600015156006836040516111199190612855565b908152602001604051809103902060009054906101000a900460ff16151514611177576040517f08c379a000000000000000000000000000000000000000000000000000000000815260040161116e90612978565b60405180910390fd5b6000151560068260405161118b9190612855565b908152602001604051809103902060009054906101000a900460ff161515146111e9576040517f08c379a00000000000000000000000000000000000000000000000000000000081526004016111e0906129b8565b60405180910390fd5b600060405180608001604052808481526020018381526020014281526020013373ffffffffffffffffffffffffffffffffffffffff168152509050806004846040516112359190612855565b9081526020016040518091039020600082015181600001908051906020019061125f929190612393565b50602082015181600101908051906020019061127c929190612393565b506040820151816002015560608201518160030160006101000a81548173ffffffffffffffffffffffffffffffffffffffff021916908373ffffffffffffffffffffffffffffffffffffffff16021790555090505060016006846040516112e39190612855565b908152602001604051809103902060006101000a81548160ff021916908315150217905550600160068360405161131a9190612855565b908152602001604051809103902060006101000a81548160ff02191690831515021790555060028360405161134f9190612855565b908152602001604051809103902060009054906101000a900460ff166113e35760016002846040516113819190612855565b908152602001604051809103902060006101000a81548160ff0219169083151502179055506005839080600181540180825580915050600190039060005260206000200160009091909190915090805190602001906113e1929190612393565b505b7f23328c870127949cf845a05506d0fc9028a78b1fe34f9c4300f672ca306238c3838342336040516114189493929190612925565b60405180910390a1505050565b60608060008060006003805490509050600060036001836114469190612b2c565b8154811061147d577f4e487b7100000000000000000000000000000000000000000000000000000000600052603260045260246000fd5b90600052602060002001805461149290612bea565b80601f01602080910402602001604051908101604052809291908181526020018280546114be90612bea565b801561150b5780601f106114e05761010080835404028352916020019161150b565b820191906000526020600020905b8154815290600101906020018083116114ee57829003601f168201915b505050505090506001816040516115229190612855565b90815260200160405180910390206000016001826040516115439190612855565b90815260200160405180910390206001016001836040516115649190612855565b9081526020016040518091039020600201546001846040516115869190612855565b908152602001604051809103902060030160009054906101000a900473ffffffffffffffffffffffffffffffffffffffff168380546115c490612bea565b80601f01602080910402602001604051908101604052809291908181526020018280546115f090612bea565b801561163d5780601f106116125761010080835404028352916020019161163d565b820191906000526020600020905b81548152906001019060200180831161162057829003601f168201915b5050505050935082805461165090612bea565b80601f016020809104026020016040519081016040528092919081815260200182805461167c90612bea565b80156116c95780601f1061169e576101008083540402835291602001916116c9565b820191906000526020600020905b8154815290600101906020018083116116ac57829003601f168201915b505050505092509550955095509550505090919293565b600781815481106116f057600080fd5b906000526020600020906004020160009150905080600001805461171390612bea565b80601f016020809104026020016040519081016040528092919081815260200182805461173f90612bea565b801561178c5780601f106117615761010080835404028352916020019161178c565b820191906000526020600020905b81548152906001019060200180831161176f57829003601f168201915b5050505050908060010180546117a190612bea565b80601f01602080910402602001604051908101604052809291908181526020018280546117cd90612bea565b801561181a5780601f106117ef5761010080835404028352916020019161181a565b820191906000526020600020905b8154815290600101906020018083116117fd57829003601f168201915b5050505050908060020154908060030160009054906101000a900473ffffffffffffffffffffffffffffffffffffffff16905084565b60608060008060008054906101000a900473ffffffffffffffffffffffffffffffffffffffff1673ffffffffffffffffffffffffffffffffffffffff163373ffffffffffffffffffffffffffffffffffffffff16146118e4576040517f08c379a00000000000000000000000000000000000000000000000000000000081526004016118db90612998565b60405180910390fd5b60006005805490509050600060056001836118ff9190612b2c565b81548110611936577f4e487b7100000000000000000000000000000000000000000000000000000000600052603260045260246000fd5b90600052602060002001805461194b90612bea565b80601f016020809104026020016040519081016040528092919081815260200182805461197790612bea565b80156119c45780601f10611999576101008083540402835291602001916119c4565b820191906000526020600020905b8154815290600101906020018083116119a757829003601f168201915b505050505090506004816040516119db9190612855565b90815260200160405180910390206000016004826040516119fc9190612855565b9081526020016040518091039020600101600483604051611a1d9190612855565b908152602001604051809103902060020154600484604051611a3f9190612855565b908152602001604051809103902060030160009054906101000a900473ffffffffffffffffffffffffffffffffffffffff16838054611a7d90612bea565b80601f0160208091040260200160405190810160405280929190818152602001828054611aa990612bea565b8015611af65780601f10611acb57610100808354040283529160200191611af6565b820191906000526020600020905b815481529060010190602001808311611ad957829003601f168201915b50505050509350828054611b0990612bea565b80601f0160208091040260200160405190810160405280929190818152602001828054611b3590612bea565b8015611b825780601f10611b5757610100808354040283529160200191611b82565b820191906000526020600020905b815481529060010190602001808311611b6557829003601f168201915b505050505092509550955095509550505090919293565b600181805160208101820180518482526020830160208501208183528095505050505050600091509050806000018054611bd290612bea565b80601f0160208091040260200160405190810160405280929190818152602001828054611bfe90612bea565b8015611c4b5780601f10611c2057610100808354040283529160200191611c4b565b820191906000526020600020905b815481529060010190602001808311611c2e57829003601f168201915b505050505090806001018054611c6090612bea565b80601f0160208091040260200160405190810160405280929190818152602001828054611c8c90612bea565b8015611cd95780601f10611cae57610100808354040283529160200191611cd9565b820191906000526020600020905b815481529060010190602001808311611cbc57829003601f168201915b5050505050908060020154908060030160009054906101000a900473ffffffffffffffffffffffffffffffffffffffff16905084565b6000600380549050905090565b60608060608060008054906101000a900473ffffffffffffffffffffffffffffffffffffffff1673ffffffffffffffffffffffffffffffffffffffff163373ffffffffffffffffffffffffffffffffffffffff1614611db0576040517f08c379a0000000000000000000000000000000000000000000000000000000008152600401611da790612998565b60405180910390fd5b6000600580549050905060008167ffffffffffffffff811115611dfc577f4e487b7100000000000000000000000000000000000000000000000000000000600052604160045260246000fd5b604051908082528060200260200182016040528015611e2f57816020015b6060815260200190600190039081611e1a5790505b50905060008267ffffffffffffffff811115611e74577f4e487b7100000000000000000000000000000000000000000000000000000000600052604160045260246000fd5b604051908082528060200260200182016040528015611ea757816020015b6060815260200190600190039081611e925790505b50905060008367ffffffffffffffff811115611eec577f4e487b7100000000000000000000000000000000000000000000000000000000600052604160045260246000fd5b604051908082528060200260200182016040528015611f1a5781602001602082028036833780820191505090505b50905060008467ffffffffffffffff811115611f5f577f4e487b7100000000000000000000000000000000000000000000000000000000600052604160045260246000fd5b604051908082528060200260200182016040528015611f8d5781602001602082028036833780820191505090505b50905060005b60058054905081101561237b57600060058281548110611fdc577f4e487b7100000000000000000000000000000000000000000000000000000000600052603260045260246000fd5b906000526020600020018054611ff190612bea565b80601f016020809104026020016040519081016040528092919081815260200182805461201d90612bea565b801561206a5780601f1061203f5761010080835404028352916020019161206a565b820191906000526020600020905b81548152906001019060200180831161204d57829003601f168201915b505050505090506004816040516120819190612855565b9081526020016040518091039020600001805461209d90612bea565b80601f01602080910402602001604051908101604052809291908181526020018280546120c990612bea565b80156121165780601f106120eb57610100808354040283529160200191612116565b820191906000526020600020905b8154815290600101906020018083116120f957829003601f168201915b5050505050868381518110612154577f4e487b7100000000000000000000000000000000000000000000000000000000600052603260045260246000fd5b602002602001018190525060048160405161216f9190612855565b9081526020016040518091039020600101805461218b90612bea565b80601f01602080910402602001604051908101604052809291908181526020018280546121b790612bea565b80156122045780601f106121d957610100808354040283529160200191612204565b820191906000526020600020905b8154815290600101906020018083116121e757829003601f168201915b5050505050858381518110612242577f4e487b7100000000000000000000000000000000000000000000000000000000600052603260045260246000fd5b602002602001018190525060048160405161225d9190612855565b9081526020016040518091039020600201548483815181106122a8577f4e487b7100000000000000000000000000000000000000000000000000000000600052603260045260246000fd5b6020026020010181815250506004816040516122c49190612855565b908152602001604051809103902060030160009054906101000a900473ffffffffffffffffffffffffffffffffffffffff1683838151811061232f577f4e487b7100000000000000000000000000000000000000000000000000000000600052603260045260246000fd5b602002602001019073ffffffffffffffffffffffffffffffffffffffff16908173ffffffffffffffffffffffffffffffffffffffff1681525050508061237490612c4d565b9050611f93565b50838383839850985098509850505050505090919293565b82805461239f90612bea565b90600052602060002090601f0160209004810192826123c15760008555612408565b82601f106123da57805160ff1916838001178555612408565b82800160010185558215612408579182015b828111156124075782518255916020019190600101906123ec565b5b5090506124159190612419565b5090565b5b8082111561243257600081600090555060010161241a565b5090565b600061244961244484612a18565b6129f3565b90508281526020810184848401111561246157600080fd5b61246c848285612ba8565b509392505050565b600082601f83011261248557600080fd5b8135612495848260208601612436565b91505092915050565b6000813590506124ad81612dfb565b92915050565b6000602082840312156124c557600080fd5b600082013567ffffffffffffffff8111156124df57600080fd5b6124eb84828501612474565b91505092915050565b6000806040838503121561250757600080fd5b600083013567ffffffffffffffff81111561252157600080fd5b61252d85828601612474565b925050602083013567ffffffffffffffff81111561254a57600080fd5b61255685828601612474565b9150509250929050565b60006020828403121561257257600080fd5b60006125808482850161249e565b91505092915050565b600061259583836125cd565b60208301905092915050565b60006125ad838361272b565b905092915050565b60006125c18383612837565b60208301905092915050565b6125d681612b60565b82525050565b6125e581612b60565b82525050565b60006125f682612a79565b6126008185612acc565b935061260b83612a49565b8060005b8381101561263c5781516126238882612589565b975061262e83612aa5565b92505060018101905061260f565b5085935050505092915050565b600061265482612a84565b61265e8185612add565b93508360208202850161267085612a59565b8060005b858110156126ac578484038952815161268d85826125a1565b945061269883612ab2565b925060208a01995050600181019050612674565b50829750879550505050505092915050565b60006126c982612a8f565b6126d38185612aee565b93506126de83612a69565b8060005b8381101561270f5781516126f688826125b5565b975061270183612abf565b9250506001810190506126e2565b5085935050505092915050565b61272581612b72565b82525050565b600061273682612a9a565b6127408185612aff565b9350612750818560208601612bb7565b61275981612d23565b840191505092915050565b600061276f82612a9a565b6127798185612b10565b9350612789818560208601612bb7565b61279281612d23565b840191505092915050565b60006127a882612a9a565b6127b28185612b21565b93506127c2818560208601612bb7565b80840191505092915050565b60006127db602283612b10565b91506127e682612d34565b604082019050919050565b60006127fe602083612b10565b915061280982612d83565b602082019050919050565b6000612821602b83612b10565b915061282c82612dac565b604082019050919050565b61284081612b9e565b82525050565b61284f81612b9e565b82525050565b6000612861828461279d565b915081905092915050565b600060208201905061288160008301846125dc565b92915050565b600060808201905081810360008301526128a18187612649565b905081810360208301526128b58186612649565b905081810360408301526128c981856126be565b905081810360608301526128dd81846125eb565b905095945050505050565b60006020820190506128fd600083018461271c565b92915050565b6000602082019050818103600083015261291d8184612764565b905092915050565b6000608082019050818103600083015261293f8187612764565b905081810360208301526129538186612764565b90506129626040830185612846565b61296f60608301846125dc565b95945050505050565b60006020820190508181036000830152612991816127ce565b9050919050565b600060208201905081810360008301526129b1816127f1565b9050919050565b600060208201905081810360008301526129d181612814565b9050919050565b60006020820190506129ed6000830184612846565b92915050565b60006129fd612a0e565b9050612a098282612c1c565b919050565b6000604051905090565b600067ffffffffffffffff821115612a3357612a32612cf4565b5b612a3c82612d23565b9050602081019050919050565b6000819050602082019050919050565b6000819050602082019050919050565b6000819050602082019050919050565b600081519050919050565b600081519050919050565b600081519050919050565b600081519050919050565b6000602082019050919050565b6000602082019050919050565b6000602082019050919050565b600082825260208201905092915050565b600082825260208201905092915050565b600082825260208201905092915050565b600082825260208201905092915050565b600082825260208201905092915050565b600081905092915050565b6000612b3782612b9e565b9150612b4283612b9e565b925082821015612b5557612b54612c96565b5b828203905092915050565b6000612b6b82612b7e565b9050919050565b60008115159050919050565b600073ffffffffffffffffffffffffffffffffffffffff82169050919050565b6000819050919050565b82818337600083830152505050565b60005b83811015612bd5578082015181840152602081019050612bba565b83811115612be4576000848401525b50505050565b60006002820490506001821680612c0257607f821691505b60208210811415612c1657612c15612cc5565b5b50919050565b612c2582612d23565b810181811067ffffffffffffffff82111715612c4457612c43612cf4565b5b80604052505050565b6000612c5882612b9e565b91507fffffffffffffffffffffffffffffffffffffffffffffffffffffffffffffffff821415612c8b57612c8a612c96565b5b600182019050919050565b7f4e487b7100000000000000000000000000000000000000000000000000000000600052601160045260246000fd5b7f4e487b7100000000000000000000000000000000000000000000000000000000600052602260045260246000fd5b7f4e487b7100000000000000000000000000000000000000000000000000000000600052604160045260246000fd5b6000601f19601f8301169050919050565b7f46696c65207769746820746869732043494420616c726561647920657869737460008201527f732e000000000000000000000000000000000000000000000000000000000000602082015250565b7f4f6e6c792063757272656e7420616464726573732063616e20646f2074686973600082015250565b7f46696c6520776974682074686973204e616d6520616c7265616479206578697360008201527f74732c2052656e616d652e000000000000000000000000000000000000000000602082015250565b612e0481612b9e565b8114612e0f57600080fd5b5056fea2646970667358221220c5b4150246c8bb963e87ea812cb87a87849a5be2eaf583b7e7c9874a87fa34d564736f6c63430008040033",
  "linkReferences": {},
  "deployedLinkReferences": {}
}