{
  "_format": "hh-sol-artifact-1",
  "contractName": "DecentralizedLibrary",
  "sourceName": "contracts/DecentralizedLibrary.sol",
  "abi": [
    {
      "inputs": [],
      "stateMutability": "nonpayable",
      "type": "constructor"
    },
    {
      "anonymous": false,
      "inputs": [
        {
          "indexed": false,
          "internalType": "string",
          "name": "ipfsCID",
          "type": "string"
        },
        {
          "indexed": false,
          "internalType": "string",
          "name": "fileName",
          "type": "string"
        },
        {
          "indexed": false,
          "internalType": "uint256",
          "name": "timeUploaded",
          "type": "uint256"
        },
        {
          "indexed": false,
          "internalType": "address",
          "name": "fileOwner",
          "type": "address"
        }
      ],
      "name": "FileUploaded",
      "type": "event"
    },
    {
      "inputs": [
        {
          "internalType": "string",
          "name": "",
          "type": "string"
        }
      ],
      "name": "collection",
      "outputs": [
        {
          "internalType": "string",
          "name": "ipfsCID",
          "type": "string"
        },
        {
          "internalType": "string",
          "name": "fileName",
          "type": "string"
        },
        {
          "internalType": "uint256",
          "name": "timeUploaded",
          "type": "uint256"
        },
        {
          "internalType": "address",
          "name": "fileOwner",
          "type": "address"
        }
      ],
      "stateMutability": "view",
      "type": "function"
    },
    {
      "inputs": [
        {
          "internalType": "string",
          "name": "",
          "type": "string"
        }
      ],
      "name": "fileExists",
      "outputs": [
        {
          "internalType": "bool",
          "name": "",
          "type": "bool"
        }
      ],
      "stateMutability": "view",
      "type": "function"
    },
    {
      "inputs": [
        {
          "internalType": "string",
          "name": "_ipfsCID",
          "type": "string"
        },
        {
          "internalType": "string",
          "name": "_fileName",
          "type": "string"
        },
        {
          "internalType": "uint256",
          "name": "_uploadType",
          "type": "uint256"
        }
      ],
      "name": "fileUpload",
      "outputs": [],
      "stateMutability": "nonpayable",
      "type": "function"
    },
    {
      "inputs": [],
      "name": "getAllPrivateUploads",
      "outputs": [
        {
          "internalType": "string[]",
          "name": "",
          "type": "string[]"
        },
        {
          "internalType": "string[]",
          "name": "",
          "type": "string[]"
        },
        {
          "internalType": "uint256[]",
          "name": "",
          "type": "uint256[]"
        },
        {
          "internalType": "address[]",
          "name": "",
          "type": "address[]"
        }
      ],
      "stateMutability": "view",
      "type": "function"
    },
    {
      "inputs": [],
      "name": "getAllPublicUploads",
      "outputs": [
        {
          "internalType": "string[]",
          "name": "",
          "type": "string[]"
        },
        {
          "internalType": "string[]",
          "name": "",
          "type": "string[]"
        },
        {
          "internalType": "uint256[]",
          "name": "",
          "type": "uint256[]"
        },
        {
          "internalType": "address[]",
          "name": "",
          "type": "address[]"
        }
      ],
      "stateMutability": "view",
      "type": "function"
    },
    {
      "inputs": [],
      "name": "getLatestPrivateUpload",
      "outputs": [
        {
          "internalType": "string",
          "name": "",
          "type": "string"
        },
        {
          "internalType": "string",
          "name": "",
          "type": "string"
        },
        {
          "internalType": "uint256",
          "name": "",
          "type": "uint256"
        },
        {
          "internalType": "address",
          "name": "",
          "type": "address"
        }
      ],
      "stateMutability": "view",
      "type": "function"
    },
    {
      "inputs": [],
      "name": "getLatestPublicUpload",
      "outputs": [
        {
          "internalType": "string",
          "name": "",
          "type": "string"
        },
        {
          "internalType": "string",
          "name": "",
          "type": "string"
        },
        {
          "internalType": "uint256",
          "name": "",
          "type": "uint256"
        },
        {
          "internalType": "address",
          "name": "",
          "type": "address"
        }
      ],
      "stateMutability": "view",
      "type": "function"
    },
    {
      "inputs": [
        {
          "internalType": "string",
          "name": "_fileName",
          "type": "string"
        }
      ],
      "name": "getOnePrivateFile",
      "outputs": [
        {
          "internalType": "string",
          "name": "_ipfsCID",
          "type": "string"
        },
        {
          "internalType": "string",
          "name": "_filename",
          "type": "string"
        },
        {
          "internalType": "uint256",
          "name": "_timeUploaded",
          "type": "uint256"
        },
        {
          "internalType": "address",
          "name": "_fileOwner",
          "type": "address"
        }
      ],
      "stateMutability": "view",
      "type": "function"
    },
    {
      "inputs": [],
      "name": "getSharedFiles",
      "outputs": [
        {
          "internalType": "string[]",
          "name": "",
          "type": "string[]"
        },
        {
          "internalType": "string[]",
          "name": "",
          "type": "string[]"
        },
        {
          "internalType": "uint256[]",
          "name": "",
          "type": "uint256[]"
        },
        {
          "internalType": "address[]",
          "name": "",
          "type": "address[]"
        }
      ],
      "stateMutability": "view",
      "type": "function"
    },
    {
      "inputs": [],
      "name": "getSize",
      "outputs": [
        {
          "internalType": "uint256",
          "name": "",
          "type": "uint256"
        }
      ],
      "stateMutability": "view",
      "type": "function"
    },
    {
      "inputs": [],
      "name": "getSizeOfPrivateUploads",
      "outputs": [
        {
          "internalType": "uint256",
          "name": "",
          "type": "uint256"
        }
      ],
      "stateMutability": "view",
      "type": "function"
    },
    {
      "inputs": [
        {
          "internalType": "uint256",
          "name": "",
          "type": "uint256"
        }
      ],
      "name": "keys",
      "outputs": [
        {
          "internalType": "string",
          "name": "",
          "type": "string"
        }
      ],
      "stateMutability": "view",
      "type": "function"
    },
    {
      "inputs": [],
      "name": "owner",
      "outputs": [
        {
          "internalType": "address",
          "name": "",
          "type": "address"
        }
      ],
      "stateMutability": "view",
      "type": "function"
    },
    {
      "inputs": [
        {
          "internalType": "address",
          "name": "",
          "type": "address"
        },
        {
          "internalType": "string",
          "name": "",
          "type": "string"
        }
      ],
      "name": "privateCollection",
      "outputs": [
        {
          "internalType": "string",
          "name": "ipfsCID",
          "type": "string"
        },
        {
          "internalType": "string",
          "name": "fileName",
          "type": "string"
        },
        {
          "internalType": "uint256",
          "name": "timeUploaded",
          "type": "uint256"
        },
        {
          "internalType": "address",
          "name": "fileOwner",
          "type": "address"
        }
      ],
      "stateMutability": "view",
      "type": "function"
    },
    {
      "inputs": [
        {
          "internalType": "address",
          "name": "_to",
          "type": "address"
        },
        {
          "internalType": "string",
          "name": "_fileName",
          "type": "string"
        }
      ],
      "name": "sharePrivateFile",
      "outputs": [],
      "stateMutability": "nonpayable",
      "type": "function"
    },
    {
      "inputs": [
        {
          "internalType": "address",
          "name": "",
          "type": "address"
        },
        {
          "internalType": "string",
          "name": "",
          "type": "string"
        }
      ],
      "name": "sharedCollection",
      "outputs": [
        {
          "internalType": "string",
          "name": "ipfsCID",
          "type": "string"
        },
        {
          "internalType": "string",
          "name": "fileName",
          "type": "string"
        },
        {
          "internalType": "uint256",
          "name": "timeUploaded",
          "type": "uint256"
        },
        {
          "internalType": "address",
          "name": "fileOwner",
          "type": "address"
        }
      ],
      "stateMutability": "view",
      "type": "function"
    }
  ],
  "bytecode": "0x608060405234801561001057600080fd5b50336000806101000a81548173ffffffffffffffffffffffffffffffffffffffff021916908373ffffffffffffffffffffffffffffffffffffffff160217905550613a88806100606000396000f3fe608060405234801561001057600080fd5b50600436106101005760003560e01c8063931eae1b11610097578063dc642f3011610066578063dc642f30146102da578063de8fa4311461030d578063e97da63b1461032b578063eaaa9ff21461034757610100565b8063931eae1b1461024c5780639bccd6ad14610268578063c19455d014610298578063daaf618a146102b957610100565b80635733cfd7116100d35780635733cfd7146101a75780638da5cb5b146101da578063900a99dd146101f8578063914e31441461022b57610100565b80630cb6aaf11461010557806348e641c2146101355780634c198676146101535780634d2bc14214610174575b600080fd5b61011f600480360381019061011a91906130f7565b610368565b60405161012c91906134bd565b60405180910390f35b61013d610414565b60405161014a91906135b2565b60405180910390f35b61015b61045e565b60405161016b9493929190613441565b60405180910390f35b61018e60048036038101906101899190612fe3565b610a47565b60405161019e94939291906134df565b60405180910390f35b6101c160048036038101906101bc9190613037565b610bca565b6040516101d194939291906134df565b60405180910390f35b6101e2610efd565b6040516101ef9190613426565b60405180910390f35b610212600480360381019061020d9190612fe3565b610f21565b60405161022294939291906134df565b60405180910390f35b6102336110a4565b6040516102439493929190613441565b60405180910390f35b61026660048036038101906102619190612fe3565b6117f6565b005b610282600480360381019061027d9190613037565b611a94565b60405161028f91906134a2565b60405180910390f35b6102a0611aca565b6040516102b094939291906134df565b60405180910390f35b6102c1611d85565b6040516102d194939291906134df565b60405180910390f35b6102f460048036038101906102ef9190613037565b6121ae565b60405161030494939291906134df565b60405180910390f35b610315612324565b60405161032291906135b2565b60405180910390f35b61034560048036038101906103409190613078565b612331565b005b61034f61275c565b60405161035f9493929190613441565b60405180910390f35b6002818154811061037857600080fd5b906000526020600020016000915090508054610393906137c4565b80601f01602080910402602001604051908101604052809291908181526020018280546103bf906137c4565b801561040c5780601f106103e15761010080835404028352916020019161040c565b820191906000526020600020905b8154815290600101906020018083116103ef57829003601f168201915b505050505081565b6000600460003373ffffffffffffffffffffffffffffffffffffffff1673ffffffffffffffffffffffffffffffffffffffff16815260200190815260200160002080549050905090565b6060806060806000600280549050905060008167ffffffffffffffff8111156104b0577f4e487b7100000000000000000000000000000000000000000000000000000000600052604160045260246000fd5b6040519080825280602002602001820160405280156104e357816020015b60608152602001906001900390816104ce5790505b50905060008267ffffffffffffffff811115610528577f4e487b7100000000000000000000000000000000000000000000000000000000600052604160045260246000fd5b60405190808252806020026020018201604052801561055b57816020015b60608152602001906001900390816105465790505b50905060008367ffffffffffffffff8111156105a0577f4e487b7100000000000000000000000000000000000000000000000000000000600052604160045260246000fd5b6040519080825280602002602001820160405280156105ce5781602001602082028036833780820191505090505b50905060008467ffffffffffffffff811115610613577f4e487b7100000000000000000000000000000000000000000000000000000000600052604160045260246000fd5b6040519080825280602002602001820160405280156106415781602001602082028036833780820191505090505b50905060005b600280549050811015610a2f57600060028281548110610690577f4e487b7100000000000000000000000000000000000000000000000000000000600052603260045260246000fd5b9060005260206000200180546106a5906137c4565b80601f01602080910402602001604051908101604052809291908181526020018280546106d1906137c4565b801561071e5780601f106106f35761010080835404028352916020019161071e565b820191906000526020600020905b81548152906001019060200180831161070157829003601f168201915b50505050509050600181604051610735919061340f565b90815260200160405180910390206000018054610751906137c4565b80601f016020809104026020016040519081016040528092919081815260200182805461077d906137c4565b80156107ca5780601f1061079f576101008083540402835291602001916107ca565b820191906000526020600020905b8154815290600101906020018083116107ad57829003601f168201915b5050505050868381518110610808577f4e487b7100000000000000000000000000000000000000000000000000000000600052603260045260246000fd5b6020026020010181905250600181604051610823919061340f565b9081526020016040518091039020600101805461083f906137c4565b80601f016020809104026020016040519081016040528092919081815260200182805461086b906137c4565b80156108b85780601f1061088d576101008083540402835291602001916108b8565b820191906000526020600020905b81548152906001019060200180831161089b57829003601f168201915b50505050508583815181106108f6577f4e487b7100000000000000000000000000000000000000000000000000000000600052603260045260246000fd5b6020026020010181905250600181604051610911919061340f565b90815260200160405180910390206002015484838151811061095c577f4e487b7100000000000000000000000000000000000000000000000000000000600052603260045260246000fd5b602002602001018181525050600181604051610978919061340f565b908152602001604051809103902060030160009054906101000a900473ffffffffffffffffffffffffffffffffffffffff168383815181106109e3577f4e487b7100000000000000000000000000000000000000000000000000000000600052603260045260246000fd5b602002602001019073ffffffffffffffffffffffffffffffffffffffff16908173ffffffffffffffffffffffffffffffffffffffff16815250505080610a2890613827565b9050610647565b50838383839850985098509850505050505090919293565b60036020528160005260406000208180516020810182018051848252602083016020850120818352809550505050505060009150915050806000018054610a8d906137c4565b80601f0160208091040260200160405190810160405280929190818152602001828054610ab9906137c4565b8015610b065780601f10610adb57610100808354040283529160200191610b06565b820191906000526020600020905b815481529060010190602001808311610ae957829003601f168201915b505050505090806001018054610b1b906137c4565b80601f0160208091040260200160405190810160405280929190818152602001828054610b47906137c4565b8015610b945780601f10610b6957610100808354040283529160200191610b94565b820191906000526020600020905b815481529060010190602001808311610b7757829003601f168201915b5050505050908060020154908060030160009054906101000a900473ffffffffffffffffffffffffffffffffffffffff16905084565b60608060008060011515600786604051610be4919061340f565b908152602001604051809103902060009054906101000a900460ff16151514610c42576040517f08c379a0000000000000000000000000000000000000000000000000000000008152600401610c3990613552565b60405180910390fd5b600360003373ffffffffffffffffffffffffffffffffffffffff1673ffffffffffffffffffffffffffffffffffffffff16815260200190815260200160002085604051610c8f919061340f565b90815260200160405180910390206000018054610cab906137c4565b80601f0160208091040260200160405190810160405280929190818152602001828054610cd7906137c4565b8015610d245780601f10610cf957610100808354040283529160200191610d24565b820191906000526020600020905b815481529060010190602001808311610d0757829003601f168201915b50505050509350600360003373ffffffffffffffffffffffffffffffffffffffff1673ffffffffffffffffffffffffffffffffffffffff16815260200190815260200160002085604051610d78919061340f565b90815260200160405180910390206001018054610d94906137c4565b80601f0160208091040260200160405190810160405280929190818152602001828054610dc0906137c4565b8015610e0d5780601f10610de257610100808354040283529160200191610e0d565b820191906000526020600020905b815481529060010190602001808311610df057829003601f168201915b50505050509250600360003373ffffffffffffffffffffffffffffffffffffffff1673ffffffffffffffffffffffffffffffffffffffff16815260200190815260200160002085604051610e61919061340f565b9081526020016040518091039020600201549150600360003373ffffffffffffffffffffffffffffffffffffffff1673ffffffffffffffffffffffffffffffffffffffff16815260200190815260200160002085604051610ec2919061340f565b908152602001604051809103902060030160009054906101000a900473ffffffffffffffffffffffffffffffffffffffff1690509193509193565b60008054906101000a900473ffffffffffffffffffffffffffffffffffffffff1681565b60056020528160005260406000208180516020810182018051848252602083016020850120818352809550505050505060009150915050806000018054610f67906137c4565b80601f0160208091040260200160405190810160405280929190818152602001828054610f93906137c4565b8015610fe05780601f10610fb557610100808354040283529160200191610fe0565b820191906000526020600020905b815481529060010190602001808311610fc357829003601f168201915b505050505090806001018054610ff5906137c4565b80601f0160208091040260200160405190810160405280929190818152602001828054611021906137c4565b801561106e5780601f106110435761010080835404028352916020019161106e565b820191906000526020600020905b81548152906001019060200180831161105157829003601f168201915b5050505050908060020154908060030160009054906101000a900473ffffffffffffffffffffffffffffffffffffffff16905084565b6060806060806000600660003373ffffffffffffffffffffffffffffffffffffffff1673ffffffffffffffffffffffffffffffffffffffff16815260200190815260200160002080549050905060008167ffffffffffffffff811115611133577f4e487b7100000000000000000000000000000000000000000000000000000000600052604160045260246000fd5b60405190808252806020026020018201604052801561116657816020015b60608152602001906001900390816111515790505b50905060008267ffffffffffffffff8111156111ab577f4e487b7100000000000000000000000000000000000000000000000000000000600052604160045260246000fd5b6040519080825280602002602001820160405280156111de57816020015b60608152602001906001900390816111c95790505b50905060008367ffffffffffffffff811115611223577f4e487b7100000000000000000000000000000000000000000000000000000000600052604160045260246000fd5b6040519080825280602002602001820160405280156112515781602001602082028036833780820191505090505b50905060008467ffffffffffffffff811115611296577f4e487b7100000000000000000000000000000000000000000000000000000000600052604160045260246000fd5b6040519080825280602002602001820160405280156112c45781602001602082028036833780820191505090505b50905060005b858110156117de576000600660003373ffffffffffffffffffffffffffffffffffffffff1673ffffffffffffffffffffffffffffffffffffffff168152602001908152602001600020828154811061134b577f4e487b7100000000000000000000000000000000000000000000000000000000600052603260045260246000fd5b906000526020600020018054611360906137c4565b80601f016020809104026020016040519081016040528092919081815260200182805461138c906137c4565b80156113d95780601f106113ae576101008083540402835291602001916113d9565b820191906000526020600020905b8154815290600101906020018083116113bc57829003601f168201915b50505050509050600560003373ffffffffffffffffffffffffffffffffffffffff1673ffffffffffffffffffffffffffffffffffffffff1681526020019081526020016000208160405161142d919061340f565b90815260200160405180910390206000018054611449906137c4565b80601f0160208091040260200160405190810160405280929190818152602001828054611475906137c4565b80156114c25780601f10611497576101008083540402835291602001916114c2565b820191906000526020600020905b8154815290600101906020018083116114a557829003601f168201915b5050505050868381518110611500577f4e487b7100000000000000000000000000000000000000000000000000000000600052603260045260246000fd5b6020026020010181905250600560003373ffffffffffffffffffffffffffffffffffffffff1673ffffffffffffffffffffffffffffffffffffffff16815260200190815260200160002081604051611558919061340f565b90815260200160405180910390206001018054611574906137c4565b80601f01602080910402602001604051908101604052809291908181526020018280546115a0906137c4565b80156115ed5780601f106115c2576101008083540402835291602001916115ed565b820191906000526020600020905b8154815290600101906020018083116115d057829003601f168201915b505050505085838151811061162b577f4e487b7100000000000000000000000000000000000000000000000000000000600052603260045260246000fd5b6020026020010181905250600560003373ffffffffffffffffffffffffffffffffffffffff1673ffffffffffffffffffffffffffffffffffffffff16815260200190815260200160002081604051611683919061340f565b9081526020016040518091039020600201548483815181106116ce577f4e487b7100000000000000000000000000000000000000000000000000000000600052603260045260246000fd5b602002602001018181525050600560003373ffffffffffffffffffffffffffffffffffffffff1673ffffffffffffffffffffffffffffffffffffffff16815260200190815260200160002081604051611727919061340f565b908152602001604051809103902060030160009054906101000a900473ffffffffffffffffffffffffffffffffffffffff16838381518110611792577f4e487b7100000000000000000000000000000000000000000000000000000000600052603260045260246000fd5b602002602001019073ffffffffffffffffffffffffffffffffffffffff16908173ffffffffffffffffffffffffffffffffffffffff168152505050806117d790613827565b90506112ca565b50838383839850985098509850505050505090919293565b6001151560078260405161180a919061340f565b908152602001604051809103902060009054906101000a900460ff16151514611868576040517f08c379a000000000000000000000000000000000000000000000000000000000815260040161185f90613552565b60405180910390fd5b60008060008061187785610bca565b93509350935093503373ffffffffffffffffffffffffffffffffffffffff168173ffffffffffffffffffffffffffffffffffffffff16146118ed576040517f08c379a00000000000000000000000000000000000000000000000000000000081526004016118e490613592565b60405180910390fd5b600060405180608001604052808681526020018581526020018481526020018373ffffffffffffffffffffffffffffffffffffffff16815250905080600560008973ffffffffffffffffffffffffffffffffffffffff1673ffffffffffffffffffffffffffffffffffffffff16815260200190815260200160002087604051611976919061340f565b908152602001604051809103902060008201518160000190805190602001906119a0929190612eae565b5060208201518160010190805190602001906119bd929190612eae565b506040820151816002015560608201518160030160006101000a81548173ffffffffffffffffffffffffffffffffffffffff021916908373ffffffffffffffffffffffffffffffffffffffff160217905550905050600660008873ffffffffffffffffffffffffffffffffffffffff1673ffffffffffffffffffffffffffffffffffffffff16815260200190815260200160002086908060018154018082558091505060019003906000526020600020016000909190919091509080519060200190611a8a929190612eae565b5050505050505050565b6007818051602081018201805184825260208301602085012081835280955050505050506000915054906101000a900460ff1681565b6060806000806000600280549050905060006002600183611aeb9190613706565b81548110611b22577f4e487b7100000000000000000000000000000000000000000000000000000000600052603260045260246000fd5b906000526020600020018054611b37906137c4565b80601f0160208091040260200160405190810160405280929190818152602001828054611b63906137c4565b8015611bb05780601f10611b8557610100808354040283529160200191611bb0565b820191906000526020600020905b815481529060010190602001808311611b9357829003601f168201915b50505050509050600181604051611bc7919061340f565b9081526020016040518091039020600001600182604051611be8919061340f565b9081526020016040518091039020600101600183604051611c09919061340f565b908152602001604051809103902060020154600184604051611c2b919061340f565b908152602001604051809103902060030160009054906101000a900473ffffffffffffffffffffffffffffffffffffffff16838054611c69906137c4565b80601f0160208091040260200160405190810160405280929190818152602001828054611c95906137c4565b8015611ce25780601f10611cb757610100808354040283529160200191611ce2565b820191906000526020600020905b815481529060010190602001808311611cc557829003601f168201915b50505050509350828054611cf5906137c4565b80601f0160208091040260200160405190810160405280929190818152602001828054611d21906137c4565b8015611d6e5780601f10611d4357610100808354040283529160200191611d6e565b820191906000526020600020905b815481529060010190602001808311611d5157829003601f168201915b505050505092509550955095509550505090919293565b6060806000806000600460003373ffffffffffffffffffffffffffffffffffffffff1673ffffffffffffffffffffffffffffffffffffffff1681526020019081526020016000208054905090506000600460003373ffffffffffffffffffffffffffffffffffffffff1673ffffffffffffffffffffffffffffffffffffffff168152602001908152602001600020600183611e209190613706565b81548110611e57577f4e487b7100000000000000000000000000000000000000000000000000000000600052603260045260246000fd5b906000526020600020018054611e6c906137c4565b80601f0160208091040260200160405190810160405280929190818152602001828054611e98906137c4565b8015611ee55780601f10611eba57610100808354040283529160200191611ee5565b820191906000526020600020905b815481529060010190602001808311611ec857829003601f168201915b50505050509050600360003373ffffffffffffffffffffffffffffffffffffffff1673ffffffffffffffffffffffffffffffffffffffff16815260200190815260200160002081604051611f39919061340f565b9081526020016040518091039020600001600360003373ffffffffffffffffffffffffffffffffffffffff1673ffffffffffffffffffffffffffffffffffffffff16815260200190815260200160002082604051611f97919061340f565b9081526020016040518091039020600101600360003373ffffffffffffffffffffffffffffffffffffffff1673ffffffffffffffffffffffffffffffffffffffff16815260200190815260200160002083604051611ff5919061340f565b908152602001604051809103902060020154600360003373ffffffffffffffffffffffffffffffffffffffff1673ffffffffffffffffffffffffffffffffffffffff16815260200190815260200160002084604051612054919061340f565b908152602001604051809103902060030160009054906101000a900473ffffffffffffffffffffffffffffffffffffffff16838054612092906137c4565b80601f01602080910402602001604051908101604052809291908181526020018280546120be906137c4565b801561210b5780601f106120e05761010080835404028352916020019161210b565b820191906000526020600020905b8154815290600101906020018083116120ee57829003601f168201915b5050505050935082805461211e906137c4565b80601f016020809104026020016040519081016040528092919081815260200182805461214a906137c4565b80156121975780601f1061216c57610100808354040283529160200191612197565b820191906000526020600020905b81548152906001019060200180831161217a57829003601f168201915b505050505092509550955095509550505090919293565b6001818051602081018201805184825260208301602085012081835280955050505050506000915090508060000180546121e7906137c4565b80601f0160208091040260200160405190810160405280929190818152602001828054612213906137c4565b80156122605780601f1061223557610100808354040283529160200191612260565b820191906000526020600020905b81548152906001019060200180831161224357829003601f168201915b505050505090806001018054612275906137c4565b80601f01602080910402602001604051908101604052809291908181526020018280546122a1906137c4565b80156122ee5780601f106122c3576101008083540402835291602001916122ee565b820191906000526020600020905b8154815290600101906020018083116122d157829003601f168201915b5050505050908060020154908060030160009054906101000a900473ffffffffffffffffffffffffffffffffffffffff16905084565b6000600280549050905090565b60001515600784604051612345919061340f565b908152602001604051809103902060009054906101000a900460ff161515146123a3576040517f08c379a000000000000000000000000000000000000000000000000000000000815260040161239a90613532565b60405180910390fd5b600015156007836040516123b7919061340f565b908152602001604051809103902060009054906101000a900460ff16151514612415576040517f08c379a000000000000000000000000000000000000000000000000000000000815260040161240c90613572565b60405180910390fd5b600060405180608001604052808581526020018481526020014281526020013373ffffffffffffffffffffffffffffffffffffffff16815250905060018214156125c15780600360003373ffffffffffffffffffffffffffffffffffffffff1673ffffffffffffffffffffffffffffffffffffffff168152602001908152602001600020846040516124a7919061340f565b908152602001604051809103902060008201518160000190805190602001906124d1929190612eae565b5060208201518160010190805190602001906124ee929190612eae565b506040820151816002015560608201518160030160006101000a81548173ffffffffffffffffffffffffffffffffffffffff021916908373ffffffffffffffffffffffffffffffffffffffff160217905550905050600460003373ffffffffffffffffffffffffffffffffffffffff1673ffffffffffffffffffffffffffffffffffffffff168152602001908152602001600020839080600181540180825580915050600190039060005260206000200160009091909190915090805190602001906125bb929190612eae565b506126ab565b806001856040516125d2919061340f565b908152602001604051809103902060008201518160000190805190602001906125fc929190612eae565b506020820151816001019080519060200190612619929190612eae565b506040820151816002015560608201518160030160006101000a81548173ffffffffffffffffffffffffffffffffffffffff021916908373ffffffffffffffffffffffffffffffffffffffff1602179055509050506002849080600181540180825580915050600190039060005260206000200160009091909190915090805190602001906126a9929190612eae565b505b60016007846040516126bd919061340f565b908152602001604051809103902060006101000a81548160ff02191690831515021790555060016007856040516126f4919061340f565b908152602001604051809103902060006101000a81548160ff0219169083151502179055507f23328c870127949cf845a05506d0fc9028a78b1fe34f9c4300f672ca306238c38484423360405161274e94939291906134df565b60405180910390a150505050565b6060806060806000600460003373ffffffffffffffffffffffffffffffffffffffff1673ffffffffffffffffffffffffffffffffffffffff16815260200190815260200160002080549050905060008167ffffffffffffffff8111156127eb577f4e487b7100000000000000000000000000000000000000000000000000000000600052604160045260246000fd5b60405190808252806020026020018201604052801561281e57816020015b60608152602001906001900390816128095790505b50905060008267ffffffffffffffff811115612863577f4e487b7100000000000000000000000000000000000000000000000000000000600052604160045260246000fd5b60405190808252806020026020018201604052801561289657816020015b60608152602001906001900390816128815790505b50905060008367ffffffffffffffff8111156128db577f4e487b7100000000000000000000000000000000000000000000000000000000600052604160045260246000fd5b6040519080825280602002602001820160405280156129095781602001602082028036833780820191505090505b50905060008467ffffffffffffffff81111561294e577f4e487b7100000000000000000000000000000000000000000000000000000000600052604160045260246000fd5b60405190808252806020026020018201604052801561297c5781602001602082028036833780820191505090505b50905060005b85811015612e96576000600460003373ffffffffffffffffffffffffffffffffffffffff1673ffffffffffffffffffffffffffffffffffffffff1681526020019081526020016000208281548110612a03577f4e487b7100000000000000000000000000000000000000000000000000000000600052603260045260246000fd5b906000526020600020018054612a18906137c4565b80601f0160208091040260200160405190810160405280929190818152602001828054612a44906137c4565b8015612a915780601f10612a6657610100808354040283529160200191612a91565b820191906000526020600020905b815481529060010190602001808311612a7457829003601f168201915b50505050509050600360003373ffffffffffffffffffffffffffffffffffffffff1673ffffffffffffffffffffffffffffffffffffffff16815260200190815260200160002081604051612ae5919061340f565b90815260200160405180910390206000018054612b01906137c4565b80601f0160208091040260200160405190810160405280929190818152602001828054612b2d906137c4565b8015612b7a5780601f10612b4f57610100808354040283529160200191612b7a565b820191906000526020600020905b815481529060010190602001808311612b5d57829003601f168201915b5050505050868381518110612bb8577f4e487b7100000000000000000000000000000000000000000000000000000000600052603260045260246000fd5b6020026020010181905250600360003373ffffffffffffffffffffffffffffffffffffffff1673ffffffffffffffffffffffffffffffffffffffff16815260200190815260200160002081604051612c10919061340f565b90815260200160405180910390206001018054612c2c906137c4565b80601f0160208091040260200160405190810160405280929190818152602001828054612c58906137c4565b8015612ca55780601f10612c7a57610100808354040283529160200191612ca5565b820191906000526020600020905b815481529060010190602001808311612c8857829003601f168201915b5050505050858381518110612ce3577f4e487b7100000000000000000000000000000000000000000000000000000000600052603260045260246000fd5b6020026020010181905250600360003373ffffffffffffffffffffffffffffffffffffffff1673ffffffffffffffffffffffffffffffffffffffff16815260200190815260200160002081604051612d3b919061340f565b908152602001604051809103902060020154848381518110612d86577f4e487b7100000000000000000000000000000000000000000000000000000000600052603260045260246000fd5b602002602001018181525050600360003373ffffffffffffffffffffffffffffffffffffffff1673ffffffffffffffffffffffffffffffffffffffff16815260200190815260200160002081604051612ddf919061340f565b908152602001604051809103902060030160009054906101000a900473ffffffffffffffffffffffffffffffffffffffff16838381518110612e4a577f4e487b7100000000000000000000000000000000000000000000000000000000600052603260045260246000fd5b602002602001019073ffffffffffffffffffffffffffffffffffffffff16908173ffffffffffffffffffffffffffffffffffffffff16815250505080612e8f90613827565b9050612982565b50838383839850985098509850505050505090919293565b828054612eba906137c4565b90600052602060002090601f016020900481019282612edc5760008555612f23565b82601f10612ef557805160ff1916838001178555612f23565b82800160010185558215612f23579182015b82811115612f22578251825591602001919060010190612f07565b5b509050612f309190612f34565b5090565b5b80821115612f4d576000816000905550600101612f35565b5090565b6000612f64612f5f846135f2565b6135cd565b905082815260208101848484011115612f7c57600080fd5b612f87848285613782565b509392505050565b600081359050612f9e81613a24565b92915050565b600082601f830112612fb557600080fd5b8135612fc5848260208601612f51565b91505092915050565b600081359050612fdd81613a3b565b92915050565b60008060408385031215612ff657600080fd5b600061300485828601612f8f565b925050602083013567ffffffffffffffff81111561302157600080fd5b61302d85828601612fa4565b9150509250929050565b60006020828403121561304957600080fd5b600082013567ffffffffffffffff81111561306357600080fd5b61306f84828501612fa4565b91505092915050565b60008060006060848603121561308d57600080fd5b600084013567ffffffffffffffff8111156130a757600080fd5b6130b386828701612fa4565b935050602084013567ffffffffffffffff8111156130d057600080fd5b6130dc86828701612fa4565b92505060406130ed86828701612fce565b9150509250925092565b60006020828403121561310957600080fd5b600061311784828501612fce565b91505092915050565b600061312c8383613164565b60208301905092915050565b600061314483836132c2565b905092915050565b600061315883836133f1565b60208301905092915050565b61316d8161373a565b82525050565b61317c8161373a565b82525050565b600061318d82613653565b61319781856136a6565b93506131a283613623565b8060005b838110156131d35781516131ba8882613120565b97506131c58361367f565b9250506001810190506131a6565b5085935050505092915050565b60006131eb8261365e565b6131f581856136b7565b93508360208202850161320785613633565b8060005b8581101561324357848403895281516132248582613138565b945061322f8361368c565b925060208a0199505060018101905061320b565b50829750879550505050505092915050565b600061326082613669565b61326a81856136c8565b935061327583613643565b8060005b838110156132a657815161328d888261314c565b975061329883613699565b925050600181019050613279565b5085935050505092915050565b6132bc8161374c565b82525050565b60006132cd82613674565b6132d781856136d9565b93506132e7818560208601613791565b6132f0816138fd565b840191505092915050565b600061330682613674565b61331081856136ea565b9350613320818560208601613791565b613329816138fd565b840191505092915050565b600061333f82613674565b61334981856136fb565b9350613359818560208601613791565b80840191505092915050565b60006133726022836136ea565b915061337d8261390e565b604082019050919050565b60006133956013836136ea565b91506133a08261395d565b602082019050919050565b60006133b8602b836136ea565b91506133c382613986565b604082019050919050565b60006133db6024836136ea565b91506133e6826139d5565b604082019050919050565b6133fa81613778565b82525050565b61340981613778565b82525050565b600061341b8284613334565b915081905092915050565b600060208201905061343b6000830184613173565b92915050565b6000608082019050818103600083015261345b81876131e0565b9050818103602083015261346f81866131e0565b905081810360408301526134838185613255565b905081810360608301526134978184613182565b905095945050505050565b60006020820190506134b760008301846132b3565b92915050565b600060208201905081810360008301526134d781846132fb565b905092915050565b600060808201905081810360008301526134f981876132fb565b9050818103602083015261350d81866132fb565b905061351c6040830185613400565b6135296060830184613173565b95945050505050565b6000602082019050818103600083015261354b81613365565b9050919050565b6000602082019050818103600083015261356b81613388565b9050919050565b6000602082019050818103600083015261358b816133ab565b9050919050565b600060208201905081810360008301526135ab816133ce565b9050919050565b60006020820190506135c76000830184613400565b92915050565b60006135d76135e8565b90506135e382826137f6565b919050565b6000604051905090565b600067ffffffffffffffff82111561360d5761360c6138ce565b5b613616826138fd565b9050602081019050919050565b6000819050602082019050919050565b6000819050602082019050919050565b6000819050602082019050919050565b600081519050919050565b600081519050919050565b600081519050919050565b600081519050919050565b6000602082019050919050565b6000602082019050919050565b6000602082019050919050565b600082825260208201905092915050565b600082825260208201905092915050565b600082825260208201905092915050565b600082825260208201905092915050565b600082825260208201905092915050565b600081905092915050565b600061371182613778565b915061371c83613778565b92508282101561372f5761372e613870565b5b828203905092915050565b600061374582613758565b9050919050565b60008115159050919050565b600073ffffffffffffffffffffffffffffffffffffffff82169050919050565b6000819050919050565b82818337600083830152505050565b60005b838110156137af578082015181840152602081019050613794565b838111156137be576000848401525b50505050565b600060028204905060018216806137dc57607f821691505b602082108114156137f0576137ef61389f565b5b50919050565b6137ff826138fd565b810181811067ffffffffffffffff8211171561381e5761381d6138ce565b5b80604052505050565b600061383282613778565b91507fffffffffffffffffffffffffffffffffffffffffffffffffffffffffffffffff82141561386557613864613870565b5b600182019050919050565b7f4e487b7100000000000000000000000000000000000000000000000000000000600052601160045260246000fd5b7f4e487b7100000000000000000000000000000000000000000000000000000000600052602260045260246000fd5b7f4e487b7100000000000000000000000000000000000000000000000000000000600052604160045260246000fd5b6000601f19601f8301169050919050565b7f46696c65207769746820746869732043494420616c726561647920657869737460008201527f732e000000000000000000000000000000000000000000000000000000000000602082015250565b7f46696c6520646f6573206e6f7420657869737400000000000000000000000000600082015250565b7f46696c6520776974682074686973204e616d6520616c7265616479206578697360008201527f74732c2052656e616d652e000000000000000000000000000000000000000000602082015250565b7f46696c65207368617265206e6f7420617574686f72697a65642e204e6f74204f60008201527f776e657200000000000000000000000000000000000000000000000000000000602082015250565b613a2d8161373a565b8114613a3857600080fd5b50565b613a4481613778565b8114613a4f57600080fd5b5056fea264697066735822122085bf8e4b5fcb820607becb35da5007ad65891a704a76d100df9adad698d28b5764736f6c63430008040033",
  "linkReferences": {},
  "deployedLinkReferences": {}
}