{
  "_format": "hh-sol-artifact-1",
  "contractName": "DecentralizedLibrary",
  "sourceName": "contracts/DecentralizedLibrary.sol",
  "abi": [
    {
      "inputs": [],
      "stateMutability": "nonpayable",
      "type": "constructor"
    },
    {
      "anonymous": false,
      "inputs": [
        {
          "indexed": false,
          "internalType": "string",
          "name": "ipfsCID",
          "type": "string"
        },
        {
          "indexed": false,
          "internalType": "string",
          "name": "fileName",
          "type": "string"
        },
        {
          "indexed": false,
          "internalType": "uint256",
          "name": "timeUploaded",
          "type": "uint256"
        },
        {
          "indexed": false,
          "internalType": "address",
          "name": "fileOwner",
          "type": "address"
        }
      ],
      "name": "FileUploaded",
      "type": "event"
    },
    {
      "inputs": [
        {
          "internalType": "string",
          "name": "",
          "type": "string"
        }
      ],
      "name": "collection",
      "outputs": [
        {
          "internalType": "string",
          "name": "ipfsCID",
          "type": "string"
        },
        {
          "internalType": "string",
          "name": "fileName",
          "type": "string"
        },
        {
          "internalType": "uint256",
          "name": "timeUploaded",
          "type": "uint256"
        },
        {
          "internalType": "address",
          "name": "fileOwner",
          "type": "address"
        }
      ],
      "stateMutability": "view",
      "type": "function"
    },
    {
      "inputs": [
        {
          "internalType": "string",
          "name": "",
          "type": "string"
        }
      ],
      "name": "fileExists",
      "outputs": [
        {
          "internalType": "bool",
          "name": "",
          "type": "bool"
        }
      ],
      "stateMutability": "view",
      "type": "function"
    },
    {
      "inputs": [
        {
          "internalType": "string",
          "name": "_ipfsCID",
          "type": "string"
        },
        {
          "internalType": "string",
          "name": "_fileName",
          "type": "string"
        },
        {
          "internalType": "uint256",
          "name": "_uploadType",
          "type": "uint256"
        }
      ],
      "name": "fileUpload",
      "outputs": [],
      "stateMutability": "nonpayable",
      "type": "function"
    },
    {
      "inputs": [],
      "name": "getAllPrivateUploads",
      "outputs": [
        {
          "internalType": "string[]",
          "name": "",
          "type": "string[]"
        },
        {
          "internalType": "string[]",
          "name": "",
          "type": "string[]"
        },
        {
          "internalType": "uint256[]",
          "name": "",
          "type": "uint256[]"
        },
        {
          "internalType": "address[]",
          "name": "",
          "type": "address[]"
        }
      ],
      "stateMutability": "view",
      "type": "function"
    },
    {
      "inputs": [],
      "name": "getAllPublicUploads",
      "outputs": [
        {
          "internalType": "string[]",
          "name": "",
          "type": "string[]"
        },
        {
          "internalType": "string[]",
          "name": "",
          "type": "string[]"
        },
        {
          "internalType": "uint256[]",
          "name": "",
          "type": "uint256[]"
        },
        {
          "internalType": "address[]",
          "name": "",
          "type": "address[]"
        }
      ],
      "stateMutability": "view",
      "type": "function"
    },
    {
      "inputs": [],
      "name": "getLatestPrivateUpload",
      "outputs": [
        {
          "internalType": "string",
          "name": "",
          "type": "string"
        },
        {
          "internalType": "string",
          "name": "",
          "type": "string"
        },
        {
          "internalType": "uint256",
          "name": "",
          "type": "uint256"
        },
        {
          "internalType": "address",
          "name": "",
          "type": "address"
        }
      ],
      "stateMutability": "view",
      "type": "function"
    },
    {
      "inputs": [],
      "name": "getLatestPublicUpload",
      "outputs": [
        {
          "internalType": "string",
          "name": "",
          "type": "string"
        },
        {
          "internalType": "string",
          "name": "",
          "type": "string"
        },
        {
          "internalType": "uint256",
          "name": "",
          "type": "uint256"
        },
        {
          "internalType": "address",
          "name": "",
          "type": "address"
        }
      ],
      "stateMutability": "view",
      "type": "function"
    },
    {
      "inputs": [
        {
          "internalType": "string",
          "name": "_fileName",
          "type": "string"
        }
      ],
      "name": "getOnePrivateFile",
      "outputs": [
        {
          "internalType": "string",
          "name": "_ipfsCID",
          "type": "string"
        },
        {
          "internalType": "string",
          "name": "_filename",
          "type": "string"
        },
        {
          "internalType": "uint256",
          "name": "_timeUploaded",
          "type": "uint256"
        },
        {
          "internalType": "address",
          "name": "_fileOwner",
          "type": "address"
        }
      ],
      "stateMutability": "view",
      "type": "function"
    },
    {
      "inputs": [],
      "name": "getSharedFiles",
      "outputs": [
        {
          "internalType": "string[]",
          "name": "",
          "type": "string[]"
        },
        {
          "internalType": "string[]",
          "name": "",
          "type": "string[]"
        },
        {
          "internalType": "uint256[]",
          "name": "",
          "type": "uint256[]"
        },
        {
          "internalType": "address[]",
          "name": "",
          "type": "address[]"
        }
      ],
      "stateMutability": "view",
      "type": "function"
    },
    {
      "inputs": [],
      "name": "getSize",
      "outputs": [
        {
          "internalType": "uint256",
          "name": "",
          "type": "uint256"
        }
      ],
      "stateMutability": "view",
      "type": "function"
    },
    {
      "inputs": [],
      "name": "getSizeOfPrivateUploads",
      "outputs": [
        {
          "internalType": "uint256",
          "name": "",
          "type": "uint256"
        }
      ],
      "stateMutability": "view",
      "type": "function"
    },
    {
      "inputs": [
        {
          "internalType": "uint256",
          "name": "",
          "type": "uint256"
        }
      ],
      "name": "keys",
      "outputs": [
        {
          "internalType": "string",
          "name": "",
          "type": "string"
        }
      ],
      "stateMutability": "view",
      "type": "function"
    },
    {
      "inputs": [],
      "name": "owner",
      "outputs": [
        {
          "internalType": "address",
          "name": "",
          "type": "address"
        }
      ],
      "stateMutability": "view",
      "type": "function"
    },
    {
      "inputs": [
        {
          "internalType": "address",
          "name": "",
          "type": "address"
        },
        {
          "internalType": "string",
          "name": "",
          "type": "string"
        }
      ],
      "name": "privateCollection",
      "outputs": [
        {
          "internalType": "string",
          "name": "ipfsCID",
          "type": "string"
        },
        {
          "internalType": "string",
          "name": "fileName",
          "type": "string"
        },
        {
          "internalType": "uint256",
          "name": "timeUploaded",
          "type": "uint256"
        },
        {
          "internalType": "address",
          "name": "fileOwner",
          "type": "address"
        }
      ],
      "stateMutability": "view",
      "type": "function"
    },
    {
      "inputs": [
        {
          "internalType": "address",
          "name": "_to",
          "type": "address"
        },
        {
          "internalType": "string",
          "name": "_fileName",
          "type": "string"
        }
      ],
      "name": "sharePrivateFile",
      "outputs": [],
      "stateMutability": "nonpayable",
      "type": "function"
    },
    {
      "inputs": [
        {
          "internalType": "address",
          "name": "",
          "type": "address"
        },
        {
          "internalType": "string",
          "name": "",
          "type": "string"
        }
      ],
      "name": "sharedCollection",
      "outputs": [
        {
          "internalType": "string",
          "name": "ipfsCID",
          "type": "string"
        },
        {
          "internalType": "string",
          "name": "fileName",
          "type": "string"
        },
        {
          "internalType": "uint256",
          "name": "timeUploaded",
          "type": "uint256"
        },
        {
          "internalType": "address",
          "name": "fileOwner",
          "type": "address"
        }
      ],
      "stateMutability": "view",
      "type": "function"
    }
  ],
  "bytecode": "0x608060405234801561001057600080fd5b50336000806101000a81548173ffffffffffffffffffffffffffffffffffffffff021916908373ffffffffffffffffffffffffffffffffffffffff160217905550613984806100606000396000f3fe608060405234801561001057600080fd5b50600436106101005760003560e01c8063931eae1b11610097578063dc642f3011610066578063dc642f30146102da578063de8fa4311461030d578063e97da63b1461032b578063eaaa9ff21461034757610100565b8063931eae1b1461024c5780639bccd6ad14610268578063c19455d014610298578063daaf618a146102b957610100565b80635733cfd7116100d35780635733cfd7146101a75780638da5cb5b146101da578063900a99dd146101f8578063914e31441461022b57610100565b80630cb6aaf11461010557806348e641c2146101355780634c198676146101535780634d2bc14214610174575b600080fd5b61011f600480360381019061011a9190613085565b610368565b60405161012c9190613428565b60405180910390f35b61013d610414565b60405161014a91906134fd565b60405180910390f35b61015b61045e565b60405161016b94939291906133ac565b60405180910390f35b61018e60048036038101906101899190612f71565b610a47565b60405161019e949392919061344a565b60405180910390f35b6101c160048036038101906101bc9190612fc5565b610bca565b6040516101d1949392919061344a565b60405180910390f35b6101e2610efd565b6040516101ef9190613391565b60405180910390f35b610212600480360381019061020d9190612f71565b610f21565b604051610222949392919061344a565b60405180910390f35b6102336110a4565b60405161024394939291906133ac565b60405180910390f35b61026660048036038101906102619190612f71565b6117f6565b005b610282600480360381019061027d9190612fc5565b611a94565b60405161028f919061340d565b60405180910390f35b6102a0611aca565b6040516102b0949392919061344a565b60405180910390f35b6102c1611d85565b6040516102d1949392919061344a565b60405180910390f35b6102f460048036038101906102ef9190612fc5565b6121ae565b604051610304949392919061344a565b60405180910390f35b610315612324565b60405161032291906134fd565b60405180910390f35b61034560048036038101906103409190613006565b612331565b005b61034f6126ea565b60405161035f94939291906133ac565b60405180910390f35b6002818154811061037857600080fd5b9060005260206000200160009150905080546103939061370f565b80601f01602080910402602001604051908101604052809291908181526020018280546103bf9061370f565b801561040c5780601f106103e15761010080835404028352916020019161040c565b820191906000526020600020905b8154815290600101906020018083116103ef57829003601f168201915b505050505081565b6000600460003373ffffffffffffffffffffffffffffffffffffffff1673ffffffffffffffffffffffffffffffffffffffff16815260200190815260200160002080549050905090565b6060806060806000600280549050905060008167ffffffffffffffff8111156104b0577f4e487b7100000000000000000000000000000000000000000000000000000000600052604160045260246000fd5b6040519080825280602002602001820160405280156104e357816020015b60608152602001906001900390816104ce5790505b50905060008267ffffffffffffffff811115610528577f4e487b7100000000000000000000000000000000000000000000000000000000600052604160045260246000fd5b60405190808252806020026020018201604052801561055b57816020015b60608152602001906001900390816105465790505b50905060008367ffffffffffffffff8111156105a0577f4e487b7100000000000000000000000000000000000000000000000000000000600052604160045260246000fd5b6040519080825280602002602001820160405280156105ce5781602001602082028036833780820191505090505b50905060008467ffffffffffffffff811115610613577f4e487b7100000000000000000000000000000000000000000000000000000000600052604160045260246000fd5b6040519080825280602002602001820160405280156106415781602001602082028036833780820191505090505b50905060005b600280549050811015610a2f57600060028281548110610690577f4e487b7100000000000000000000000000000000000000000000000000000000600052603260045260246000fd5b9060005260206000200180546106a59061370f565b80601f01602080910402602001604051908101604052809291908181526020018280546106d19061370f565b801561071e5780601f106106f35761010080835404028352916020019161071e565b820191906000526020600020905b81548152906001019060200180831161070157829003601f168201915b50505050509050600181604051610735919061337a565b908152602001604051809103902060000180546107519061370f565b80601f016020809104026020016040519081016040528092919081815260200182805461077d9061370f565b80156107ca5780601f1061079f576101008083540402835291602001916107ca565b820191906000526020600020905b8154815290600101906020018083116107ad57829003601f168201915b5050505050868381518110610808577f4e487b7100000000000000000000000000000000000000000000000000000000600052603260045260246000fd5b6020026020010181905250600181604051610823919061337a565b9081526020016040518091039020600101805461083f9061370f565b80601f016020809104026020016040519081016040528092919081815260200182805461086b9061370f565b80156108b85780601f1061088d576101008083540402835291602001916108b8565b820191906000526020600020905b81548152906001019060200180831161089b57829003601f168201915b50505050508583815181106108f6577f4e487b7100000000000000000000000000000000000000000000000000000000600052603260045260246000fd5b6020026020010181905250600181604051610911919061337a565b90815260200160405180910390206002015484838151811061095c577f4e487b7100000000000000000000000000000000000000000000000000000000600052603260045260246000fd5b602002602001018181525050600181604051610978919061337a565b908152602001604051809103902060030160009054906101000a900473ffffffffffffffffffffffffffffffffffffffff168383815181106109e3577f4e487b7100000000000000000000000000000000000000000000000000000000600052603260045260246000fd5b602002602001019073ffffffffffffffffffffffffffffffffffffffff16908173ffffffffffffffffffffffffffffffffffffffff16815250505080610a2890613772565b9050610647565b50838383839850985098509850505050505090919293565b60036020528160005260406000208180516020810182018051848252602083016020850120818352809550505050505060009150915050806000018054610a8d9061370f565b80601f0160208091040260200160405190810160405280929190818152602001828054610ab99061370f565b8015610b065780601f10610adb57610100808354040283529160200191610b06565b820191906000526020600020905b815481529060010190602001808311610ae957829003601f168201915b505050505090806001018054610b1b9061370f565b80601f0160208091040260200160405190810160405280929190818152602001828054610b479061370f565b8015610b945780601f10610b6957610100808354040283529160200191610b94565b820191906000526020600020905b815481529060010190602001808311610b7757829003601f168201915b5050505050908060020154908060030160009054906101000a900473ffffffffffffffffffffffffffffffffffffffff16905084565b60608060008060011515600786604051610be4919061337a565b908152602001604051809103902060009054906101000a900460ff16151514610c42576040517f08c379a0000000000000000000000000000000000000000000000000000000008152600401610c399061349d565b60405180910390fd5b600360003373ffffffffffffffffffffffffffffffffffffffff1673ffffffffffffffffffffffffffffffffffffffff16815260200190815260200160002085604051610c8f919061337a565b90815260200160405180910390206000018054610cab9061370f565b80601f0160208091040260200160405190810160405280929190818152602001828054610cd79061370f565b8015610d245780601f10610cf957610100808354040283529160200191610d24565b820191906000526020600020905b815481529060010190602001808311610d0757829003601f168201915b50505050509350600360003373ffffffffffffffffffffffffffffffffffffffff1673ffffffffffffffffffffffffffffffffffffffff16815260200190815260200160002085604051610d78919061337a565b90815260200160405180910390206001018054610d949061370f565b80601f0160208091040260200160405190810160405280929190818152602001828054610dc09061370f565b8015610e0d5780601f10610de257610100808354040283529160200191610e0d565b820191906000526020600020905b815481529060010190602001808311610df057829003601f168201915b50505050509250600360003373ffffffffffffffffffffffffffffffffffffffff1673ffffffffffffffffffffffffffffffffffffffff16815260200190815260200160002085604051610e61919061337a565b9081526020016040518091039020600201549150600360003373ffffffffffffffffffffffffffffffffffffffff1673ffffffffffffffffffffffffffffffffffffffff16815260200190815260200160002085604051610ec2919061337a565b908152602001604051809103902060030160009054906101000a900473ffffffffffffffffffffffffffffffffffffffff1690509193509193565b60008054906101000a900473ffffffffffffffffffffffffffffffffffffffff1681565b60056020528160005260406000208180516020810182018051848252602083016020850120818352809550505050505060009150915050806000018054610f679061370f565b80601f0160208091040260200160405190810160405280929190818152602001828054610f939061370f565b8015610fe05780601f10610fb557610100808354040283529160200191610fe0565b820191906000526020600020905b815481529060010190602001808311610fc357829003601f168201915b505050505090806001018054610ff59061370f565b80601f01602080910402602001604051908101604052809291908181526020018280546110219061370f565b801561106e5780601f106110435761010080835404028352916020019161106e565b820191906000526020600020905b81548152906001019060200180831161105157829003601f168201915b5050505050908060020154908060030160009054906101000a900473ffffffffffffffffffffffffffffffffffffffff16905084565b6060806060806000600660003373ffffffffffffffffffffffffffffffffffffffff1673ffffffffffffffffffffffffffffffffffffffff16815260200190815260200160002080549050905060008167ffffffffffffffff811115611133577f4e487b7100000000000000000000000000000000000000000000000000000000600052604160045260246000fd5b60405190808252806020026020018201604052801561116657816020015b60608152602001906001900390816111515790505b50905060008267ffffffffffffffff8111156111ab577f4e487b7100000000000000000000000000000000000000000000000000000000600052604160045260246000fd5b6040519080825280602002602001820160405280156111de57816020015b60608152602001906001900390816111c95790505b50905060008367ffffffffffffffff811115611223577f4e487b7100000000000000000000000000000000000000000000000000000000600052604160045260246000fd5b6040519080825280602002602001820160405280156112515781602001602082028036833780820191505090505b50905060008467ffffffffffffffff811115611296577f4e487b7100000000000000000000000000000000000000000000000000000000600052604160045260246000fd5b6040519080825280602002602001820160405280156112c45781602001602082028036833780820191505090505b50905060005b858110156117de576000600660003373ffffffffffffffffffffffffffffffffffffffff1673ffffffffffffffffffffffffffffffffffffffff168152602001908152602001600020828154811061134b577f4e487b7100000000000000000000000000000000000000000000000000000000600052603260045260246000fd5b9060005260206000200180546113609061370f565b80601f016020809104026020016040519081016040528092919081815260200182805461138c9061370f565b80156113d95780601f106113ae576101008083540402835291602001916113d9565b820191906000526020600020905b8154815290600101906020018083116113bc57829003601f168201915b50505050509050600560003373ffffffffffffffffffffffffffffffffffffffff1673ffffffffffffffffffffffffffffffffffffffff1681526020019081526020016000208160405161142d919061337a565b908152602001604051809103902060000180546114499061370f565b80601f01602080910402602001604051908101604052809291908181526020018280546114759061370f565b80156114c25780601f10611497576101008083540402835291602001916114c2565b820191906000526020600020905b8154815290600101906020018083116114a557829003601f168201915b5050505050868381518110611500577f4e487b7100000000000000000000000000000000000000000000000000000000600052603260045260246000fd5b6020026020010181905250600560003373ffffffffffffffffffffffffffffffffffffffff1673ffffffffffffffffffffffffffffffffffffffff16815260200190815260200160002081604051611558919061337a565b908152602001604051809103902060010180546115749061370f565b80601f01602080910402602001604051908101604052809291908181526020018280546115a09061370f565b80156115ed5780601f106115c2576101008083540402835291602001916115ed565b820191906000526020600020905b8154815290600101906020018083116115d057829003601f168201915b505050505085838151811061162b577f4e487b7100000000000000000000000000000000000000000000000000000000600052603260045260246000fd5b6020026020010181905250600560003373ffffffffffffffffffffffffffffffffffffffff1673ffffffffffffffffffffffffffffffffffffffff16815260200190815260200160002081604051611683919061337a565b9081526020016040518091039020600201548483815181106116ce577f4e487b7100000000000000000000000000000000000000000000000000000000600052603260045260246000fd5b602002602001018181525050600560003373ffffffffffffffffffffffffffffffffffffffff1673ffffffffffffffffffffffffffffffffffffffff16815260200190815260200160002081604051611727919061337a565b908152602001604051809103902060030160009054906101000a900473ffffffffffffffffffffffffffffffffffffffff16838381518110611792577f4e487b7100000000000000000000000000000000000000000000000000000000600052603260045260246000fd5b602002602001019073ffffffffffffffffffffffffffffffffffffffff16908173ffffffffffffffffffffffffffffffffffffffff168152505050806117d790613772565b90506112ca565b50838383839850985098509850505050505090919293565b6001151560078260405161180a919061337a565b908152602001604051809103902060009054906101000a900460ff16151514611868576040517f08c379a000000000000000000000000000000000000000000000000000000000815260040161185f9061349d565b60405180910390fd5b60008060008061187785610bca565b93509350935093503373ffffffffffffffffffffffffffffffffffffffff168173ffffffffffffffffffffffffffffffffffffffff16146118ed576040517f08c379a00000000000000000000000000000000000000000000000000000000081526004016118e4906134dd565b60405180910390fd5b600060405180608001604052808681526020018581526020018481526020018373ffffffffffffffffffffffffffffffffffffffff16815250905080600560008973ffffffffffffffffffffffffffffffffffffffff1673ffffffffffffffffffffffffffffffffffffffff16815260200190815260200160002087604051611976919061337a565b908152602001604051809103902060008201518160000190805190602001906119a0929190612e3c565b5060208201518160010190805190602001906119bd929190612e3c565b506040820151816002015560608201518160030160006101000a81548173ffffffffffffffffffffffffffffffffffffffff021916908373ffffffffffffffffffffffffffffffffffffffff160217905550905050600660008873ffffffffffffffffffffffffffffffffffffffff1673ffffffffffffffffffffffffffffffffffffffff16815260200190815260200160002086908060018154018082558091505060019003906000526020600020016000909190919091509080519060200190611a8a929190612e3c565b5050505050505050565b6007818051602081018201805184825260208301602085012081835280955050505050506000915054906101000a900460ff1681565b6060806000806000600280549050905060006002600183611aeb9190613651565b81548110611b22577f4e487b7100000000000000000000000000000000000000000000000000000000600052603260045260246000fd5b906000526020600020018054611b379061370f565b80601f0160208091040260200160405190810160405280929190818152602001828054611b639061370f565b8015611bb05780601f10611b8557610100808354040283529160200191611bb0565b820191906000526020600020905b815481529060010190602001808311611b9357829003601f168201915b50505050509050600181604051611bc7919061337a565b9081526020016040518091039020600001600182604051611be8919061337a565b9081526020016040518091039020600101600183604051611c09919061337a565b908152602001604051809103902060020154600184604051611c2b919061337a565b908152602001604051809103902060030160009054906101000a900473ffffffffffffffffffffffffffffffffffffffff16838054611c699061370f565b80601f0160208091040260200160405190810160405280929190818152602001828054611c959061370f565b8015611ce25780601f10611cb757610100808354040283529160200191611ce2565b820191906000526020600020905b815481529060010190602001808311611cc557829003601f168201915b50505050509350828054611cf59061370f565b80601f0160208091040260200160405190810160405280929190818152602001828054611d219061370f565b8015611d6e5780601f10611d4357610100808354040283529160200191611d6e565b820191906000526020600020905b815481529060010190602001808311611d5157829003601f168201915b505050505092509550955095509550505090919293565b6060806000806000600460003373ffffffffffffffffffffffffffffffffffffffff1673ffffffffffffffffffffffffffffffffffffffff1681526020019081526020016000208054905090506000600460003373ffffffffffffffffffffffffffffffffffffffff1673ffffffffffffffffffffffffffffffffffffffff168152602001908152602001600020600183611e209190613651565b81548110611e57577f4e487b7100000000000000000000000000000000000000000000000000000000600052603260045260246000fd5b906000526020600020018054611e6c9061370f565b80601f0160208091040260200160405190810160405280929190818152602001828054611e989061370f565b8015611ee55780601f10611eba57610100808354040283529160200191611ee5565b820191906000526020600020905b815481529060010190602001808311611ec857829003601f168201915b50505050509050600360003373ffffffffffffffffffffffffffffffffffffffff1673ffffffffffffffffffffffffffffffffffffffff16815260200190815260200160002081604051611f39919061337a565b9081526020016040518091039020600001600360003373ffffffffffffffffffffffffffffffffffffffff1673ffffffffffffffffffffffffffffffffffffffff16815260200190815260200160002082604051611f97919061337a565b9081526020016040518091039020600101600360003373ffffffffffffffffffffffffffffffffffffffff1673ffffffffffffffffffffffffffffffffffffffff16815260200190815260200160002083604051611ff5919061337a565b908152602001604051809103902060020154600360003373ffffffffffffffffffffffffffffffffffffffff1673ffffffffffffffffffffffffffffffffffffffff16815260200190815260200160002084604051612054919061337a565b908152602001604051809103902060030160009054906101000a900473ffffffffffffffffffffffffffffffffffffffff168380546120929061370f565b80601f01602080910402602001604051908101604052809291908181526020018280546120be9061370f565b801561210b5780601f106120e05761010080835404028352916020019161210b565b820191906000526020600020905b8154815290600101906020018083116120ee57829003601f168201915b5050505050935082805461211e9061370f565b80601f016020809104026020016040519081016040528092919081815260200182805461214a9061370f565b80156121975780601f1061216c57610100808354040283529160200191612197565b820191906000526020600020905b81548152906001019060200180831161217a57829003601f168201915b505050505092509550955095509550505090919293565b6001818051602081018201805184825260208301602085012081835280955050505050506000915090508060000180546121e79061370f565b80601f01602080910402602001604051908101604052809291908181526020018280546122139061370f565b80156122605780601f1061223557610100808354040283529160200191612260565b820191906000526020600020905b81548152906001019060200180831161224357829003601f168201915b5050505050908060010180546122759061370f565b80601f01602080910402602001604051908101604052809291908181526020018280546122a19061370f565b80156122ee5780601f106122c3576101008083540402835291602001916122ee565b820191906000526020600020905b8154815290600101906020018083116122d157829003601f168201915b5050505050908060020154908060030160009054906101000a900473ffffffffffffffffffffffffffffffffffffffff16905084565b6000600280549050905090565b60001515600783604051612345919061337a565b908152602001604051809103902060009054906101000a900460ff161515146123a3576040517f08c379a000000000000000000000000000000000000000000000000000000000815260040161239a906134bd565b60405180910390fd5b600060405180608001604052808581526020018481526020014281526020013373ffffffffffffffffffffffffffffffffffffffff168152509050600182141561254f5780600360003373ffffffffffffffffffffffffffffffffffffffff1673ffffffffffffffffffffffffffffffffffffffff16815260200190815260200160002084604051612435919061337a565b9081526020016040518091039020600082015181600001908051906020019061245f929190612e3c565b50602082015181600101908051906020019061247c929190612e3c565b506040820151816002015560608201518160030160006101000a81548173ffffffffffffffffffffffffffffffffffffffff021916908373ffffffffffffffffffffffffffffffffffffffff160217905550905050600460003373ffffffffffffffffffffffffffffffffffffffff1673ffffffffffffffffffffffffffffffffffffffff16815260200190815260200160002083908060018154018082558091505060019003906000526020600020016000909190919091509080519060200190612549929190612e3c565b50612639565b80600185604051612560919061337a565b9081526020016040518091039020600082015181600001908051906020019061258a929190612e3c565b5060208201518160010190805190602001906125a7929190612e3c565b506040820151816002015560608201518160030160006101000a81548173ffffffffffffffffffffffffffffffffffffffff021916908373ffffffffffffffffffffffffffffffffffffffff160217905550905050600284908060018154018082558091505060019003906000526020600020016000909190919091509080519060200190612637929190612e3c565b505b600160078460405161264b919061337a565b908152602001604051809103902060006101000a81548160ff0219169083151502179055506001600785604051612682919061337a565b908152602001604051809103902060006101000a81548160ff0219169083151502179055507f23328c870127949cf845a05506d0fc9028a78b1fe34f9c4300f672ca306238c3848442336040516126dc949392919061344a565b60405180910390a150505050565b6060806060806000600460003373ffffffffffffffffffffffffffffffffffffffff1673ffffffffffffffffffffffffffffffffffffffff16815260200190815260200160002080549050905060008167ffffffffffffffff811115612779577f4e487b7100000000000000000000000000000000000000000000000000000000600052604160045260246000fd5b6040519080825280602002602001820160405280156127ac57816020015b60608152602001906001900390816127975790505b50905060008267ffffffffffffffff8111156127f1577f4e487b7100000000000000000000000000000000000000000000000000000000600052604160045260246000fd5b60405190808252806020026020018201604052801561282457816020015b606081526020019060019003908161280f5790505b50905060008367ffffffffffffffff811115612869577f4e487b7100000000000000000000000000000000000000000000000000000000600052604160045260246000fd5b6040519080825280602002602001820160405280156128975781602001602082028036833780820191505090505b50905060008467ffffffffffffffff8111156128dc577f4e487b7100000000000000000000000000000000000000000000000000000000600052604160045260246000fd5b60405190808252806020026020018201604052801561290a5781602001602082028036833780820191505090505b50905060005b85811015612e24576000600460003373ffffffffffffffffffffffffffffffffffffffff1673ffffffffffffffffffffffffffffffffffffffff1681526020019081526020016000208281548110612991577f4e487b7100000000000000000000000000000000000000000000000000000000600052603260045260246000fd5b9060005260206000200180546129a69061370f565b80601f01602080910402602001604051908101604052809291908181526020018280546129d29061370f565b8015612a1f5780601f106129f457610100808354040283529160200191612a1f565b820191906000526020600020905b815481529060010190602001808311612a0257829003601f168201915b50505050509050600360003373ffffffffffffffffffffffffffffffffffffffff1673ffffffffffffffffffffffffffffffffffffffff16815260200190815260200160002081604051612a73919061337a565b90815260200160405180910390206000018054612a8f9061370f565b80601f0160208091040260200160405190810160405280929190818152602001828054612abb9061370f565b8015612b085780601f10612add57610100808354040283529160200191612b08565b820191906000526020600020905b815481529060010190602001808311612aeb57829003601f168201915b5050505050868381518110612b46577f4e487b7100000000000000000000000000000000000000000000000000000000600052603260045260246000fd5b6020026020010181905250600360003373ffffffffffffffffffffffffffffffffffffffff1673ffffffffffffffffffffffffffffffffffffffff16815260200190815260200160002081604051612b9e919061337a565b90815260200160405180910390206001018054612bba9061370f565b80601f0160208091040260200160405190810160405280929190818152602001828054612be69061370f565b8015612c335780601f10612c0857610100808354040283529160200191612c33565b820191906000526020600020905b815481529060010190602001808311612c1657829003601f168201915b5050505050858381518110612c71577f4e487b7100000000000000000000000000000000000000000000000000000000600052603260045260246000fd5b6020026020010181905250600360003373ffffffffffffffffffffffffffffffffffffffff1673ffffffffffffffffffffffffffffffffffffffff16815260200190815260200160002081604051612cc9919061337a565b908152602001604051809103902060020154848381518110612d14577f4e487b7100000000000000000000000000000000000000000000000000000000600052603260045260246000fd5b602002602001018181525050600360003373ffffffffffffffffffffffffffffffffffffffff1673ffffffffffffffffffffffffffffffffffffffff16815260200190815260200160002081604051612d6d919061337a565b908152602001604051809103902060030160009054906101000a900473ffffffffffffffffffffffffffffffffffffffff16838381518110612dd8577f4e487b7100000000000000000000000000000000000000000000000000000000600052603260045260246000fd5b602002602001019073ffffffffffffffffffffffffffffffffffffffff16908173ffffffffffffffffffffffffffffffffffffffff16815250505080612e1d90613772565b9050612910565b50838383839850985098509850505050505090919293565b828054612e489061370f565b90600052602060002090601f016020900481019282612e6a5760008555612eb1565b82601f10612e8357805160ff1916838001178555612eb1565b82800160010185558215612eb1579182015b82811115612eb0578251825591602001919060010190612e95565b5b509050612ebe9190612ec2565b5090565b5b80821115612edb576000816000905550600101612ec3565b5090565b6000612ef2612eed8461353d565b613518565b905082815260208101848484011115612f0a57600080fd5b612f158482856136cd565b509392505050565b600081359050612f2c81613920565b92915050565b600082601f830112612f4357600080fd5b8135612f53848260208601612edf565b91505092915050565b600081359050612f6b81613937565b92915050565b60008060408385031215612f8457600080fd5b6000612f9285828601612f1d565b925050602083013567ffffffffffffffff811115612faf57600080fd5b612fbb85828601612f32565b9150509250929050565b600060208284031215612fd757600080fd5b600082013567ffffffffffffffff811115612ff157600080fd5b612ffd84828501612f32565b91505092915050565b60008060006060848603121561301b57600080fd5b600084013567ffffffffffffffff81111561303557600080fd5b61304186828701612f32565b935050602084013567ffffffffffffffff81111561305e57600080fd5b61306a86828701612f32565b925050604061307b86828701612f5c565b9150509250925092565b60006020828403121561309757600080fd5b60006130a584828501612f5c565b91505092915050565b60006130ba83836130f2565b60208301905092915050565b60006130d28383613250565b905092915050565b60006130e6838361335c565b60208301905092915050565b6130fb81613685565b82525050565b61310a81613685565b82525050565b600061311b8261359e565b61312581856135f1565b93506131308361356e565b8060005b8381101561316157815161314888826130ae565b9750613153836135ca565b925050600181019050613134565b5085935050505092915050565b6000613179826135a9565b6131838185613602565b9350836020820285016131958561357e565b8060005b858110156131d157848403895281516131b285826130c6565b94506131bd836135d7565b925060208a01995050600181019050613199565b50829750879550505050505092915050565b60006131ee826135b4565b6131f88185613613565b93506132038361358e565b8060005b8381101561323457815161321b88826130da565b9750613226836135e4565b925050600181019050613207565b5085935050505092915050565b61324a81613697565b82525050565b600061325b826135bf565b6132658185613624565b93506132758185602086016136dc565b61327e81613848565b840191505092915050565b6000613294826135bf565b61329e8185613635565b93506132ae8185602086016136dc565b6132b781613848565b840191505092915050565b60006132cd826135bf565b6132d78185613646565b93506132e78185602086016136dc565b80840191505092915050565b6000613300601383613635565b915061330b82613859565b602082019050919050565b6000613323602b83613635565b915061332e82613882565b604082019050919050565b6000613346602483613635565b9150613351826138d1565b604082019050919050565b613365816136c3565b82525050565b613374816136c3565b82525050565b600061338682846132c2565b915081905092915050565b60006020820190506133a66000830184613101565b92915050565b600060808201905081810360008301526133c6818761316e565b905081810360208301526133da818661316e565b905081810360408301526133ee81856131e3565b905081810360608301526134028184613110565b905095945050505050565b60006020820190506134226000830184613241565b92915050565b600060208201905081810360008301526134428184613289565b905092915050565b600060808201905081810360008301526134648187613289565b905081810360208301526134788186613289565b9050613487604083018561336b565b6134946060830184613101565b95945050505050565b600060208201905081810360008301526134b6816132f3565b9050919050565b600060208201905081810360008301526134d681613316565b9050919050565b600060208201905081810360008301526134f681613339565b9050919050565b6000602082019050613512600083018461336b565b92915050565b6000613522613533565b905061352e8282613741565b919050565b6000604051905090565b600067ffffffffffffffff82111561355857613557613819565b5b61356182613848565b9050602081019050919050565b6000819050602082019050919050565b6000819050602082019050919050565b6000819050602082019050919050565b600081519050919050565b600081519050919050565b600081519050919050565b600081519050919050565b6000602082019050919050565b6000602082019050919050565b6000602082019050919050565b600082825260208201905092915050565b600082825260208201905092915050565b600082825260208201905092915050565b600082825260208201905092915050565b600082825260208201905092915050565b600081905092915050565b600061365c826136c3565b9150613667836136c3565b92508282101561367a576136796137bb565b5b828203905092915050565b6000613690826136a3565b9050919050565b60008115159050919050565b600073ffffffffffffffffffffffffffffffffffffffff82169050919050565b6000819050919050565b82818337600083830152505050565b60005b838110156136fa5780820151818401526020810190506136df565b83811115613709576000848401525b50505050565b6000600282049050600182168061372757607f821691505b6020821081141561373b5761373a6137ea565b5b50919050565b61374a82613848565b810181811067ffffffffffffffff8211171561376957613768613819565b5b80604052505050565b600061377d826136c3565b91507fffffffffffffffffffffffffffffffffffffffffffffffffffffffffffffffff8214156137b0576137af6137bb565b5b600182019050919050565b7f4e487b7100000000000000000000000000000000000000000000000000000000600052601160045260246000fd5b7f4e487b7100000000000000000000000000000000000000000000000000000000600052602260045260246000fd5b7f4e487b7100000000000000000000000000000000000000000000000000000000600052604160045260246000fd5b6000601f19601f8301169050919050565b7f46696c6520646f6573206e6f7420657869737400000000000000000000000000600082015250565b7f46696c6520776974682074686973204e616d6520616c7265616479206578697360008201527f74732c2052656e616d652e000000000000000000000000000000000000000000602082015250565b7f46696c65207368617265206e6f7420617574686f72697a65642e204e6f74204f60008201527f776e657200000000000000000000000000000000000000000000000000000000602082015250565b61392981613685565b811461393457600080fd5b50565b613940816136c3565b811461394b57600080fd5b5056fea2646970667358221220bfda8ae013b3539f2dcd5ebbd03a05ff69dcd43fb1222c48fcb5ae714a92391964736f6c63430008040033",
  "linkReferences": {},
  "deployedLinkReferences": {}
}